{
	"contracts/uniswap.sol": {
		"PixelcoinLiquidity": {
			"abi": [
				{
					"inputs": [
						{
							"internalType": "address",
							"name": "_pixelcoin",
							"type": "address"
						},
						{
							"internalType": "address",
							"name": "_uniswapRouter",
							"type": "address"
						}
					],
					"stateMutability": "nonpayable",
					"type": "constructor"
				},
				{
					"inputs": [
						{
							"internalType": "uint256",
							"name": "tokenAmount",
							"type": "uint256"
						}
					],
					"name": "addLiquidity",
					"outputs": [],
					"stateMutability": "payable",
					"type": "function"
				},
				{
					"inputs": [],
					"name": "pixelcoin",
					"outputs": [
						{
							"internalType": "address",
							"name": "",
							"type": "address"
						}
					],
					"stateMutability": "view",
					"type": "function"
				},
				{
					"inputs": [],
					"name": "uniswapRouter",
					"outputs": [
						{
							"internalType": "contract IUniswapV2Router02",
							"name": "",
							"type": "address"
						}
					],
					"stateMutability": "view",
					"type": "function"
				},
				{
					"stateMutability": "payable",
					"type": "receive"
				}
			],
			"devdoc": {
				"kind": "dev",
				"methods": {},
				"version": 1
			},
			"evm": {
				"assembly": "    /* \"contracts/uniswap.sol\":543:1449  contract PixelcoinLiquidity {... */\n  mstore(0x40, 0x80)\n    /* \"contracts/uniswap.sol\":654:809  constructor(address _pixelcoin, address _uniswapRouter) {... */\n  callvalue\n  dup1\n  iszero\n  tag_1\n  jumpi\n  revert(0x00, 0x00)\ntag_1:\n  pop\n  mload(0x40)\n  sub(codesize, bytecodeSize)\n  dup1\n  bytecodeSize\n  dup4\n  codecopy\n  dup2\n  dup2\n  add\n  0x40\n  mstore\n  dup2\n  add\n  swap1\n  tag_2\n  swap2\n  swap1\n  tag_3\n  jump\t// in\ntag_2:\n    /* \"contracts/uniswap.sol\":732:742  _pixelcoin */\n  dup2\n    /* \"contracts/uniswap.sol\":720:729  pixelcoin */\n  0x01\n  0x00\n    /* \"contracts/uniswap.sol\":720:742  pixelcoin = _pixelcoin */\n  0x0100\n  exp\n  dup2\n  sload\n  dup2\n  0xffffffffffffffffffffffffffffffffffffffff\n  mul\n  not\n  and\n  swap1\n  dup4\n  0xffffffffffffffffffffffffffffffffffffffff\n  and\n  mul\n  or\n  swap1\n  sstore\n  pop\n    /* \"contracts/uniswap.sol\":787:801  _uniswapRouter */\n  dup1\n    /* \"contracts/uniswap.sol\":752:765  uniswapRouter */\n  0x00\n  0x00\n    /* \"contracts/uniswap.sol\":752:802  uniswapRouter = IUniswapV2Router02(_uniswapRouter) */\n  0x0100\n  exp\n  dup2\n  sload\n  dup2\n  0xffffffffffffffffffffffffffffffffffffffff\n  mul\n  not\n  and\n  swap1\n  dup4\n  0xffffffffffffffffffffffffffffffffffffffff\n  and\n  mul\n  or\n  swap1\n  sstore\n  pop\n    /* \"contracts/uniswap.sol\":654:809  constructor(address _pixelcoin, address _uniswapRouter) {... */\n  pop\n  pop\n    /* \"contracts/uniswap.sol\":543:1449  contract PixelcoinLiquidity {... */\n  jump(tag_6)\n    /* \"#utility.yul\":88:205   */\ntag_8:\n    /* \"#utility.yul\":197:198   */\n  0x00\n    /* \"#utility.yul\":194:195   */\n  0x00\n    /* \"#utility.yul\":187:199   */\n  revert\n    /* \"#utility.yul\":334:460   */\ntag_10:\n    /* \"#utility.yul\":371:378   */\n  0x00\n    /* \"#utility.yul\":411:453   */\n  0xffffffffffffffffffffffffffffffffffffffff\n    /* \"#utility.yul\":404:409   */\n  dup3\n    /* \"#utility.yul\":400:454   */\n  and\n    /* \"#utility.yul\":389:454   */\n  swap1\n  pop\n    /* \"#utility.yul\":334:460   */\n  swap2\n  swap1\n  pop\n  jump\t// out\n    /* \"#utility.yul\":466:562   */\ntag_11:\n    /* \"#utility.yul\":503:510   */\n  0x00\n    /* \"#utility.yul\":532:556   */\n  tag_20\n    /* \"#utility.yul\":550:555   */\n  dup3\n    /* \"#utility.yul\":532:556   */\n  tag_10\n  jump\t// in\ntag_20:\n    /* \"#utility.yul\":521:556   */\n  swap1\n  pop\n    /* \"#utility.yul\":466:562   */\n  swap2\n  swap1\n  pop\n  jump\t// out\n    /* \"#utility.yul\":568:690   */\ntag_12:\n    /* \"#utility.yul\":641:665   */\n  tag_22\n    /* \"#utility.yul\":659:664   */\n  dup2\n    /* \"#utility.yul\":641:665   */\n  tag_11\n  jump\t// in\ntag_22:\n    /* \"#utility.yul\":634:639   */\n  dup2\n    /* \"#utility.yul\":631:666   */\n  eq\n    /* \"#utility.yul\":621:684   */\n  tag_23\n  jumpi\n    /* \"#utility.yul\":680:681   */\n  0x00\n    /* \"#utility.yul\":677:678   */\n  0x00\n    /* \"#utility.yul\":670:682   */\n  revert\n    /* \"#utility.yul\":621:684   */\ntag_23:\n    /* \"#utility.yul\":568:690   */\n  pop\n  jump\t// out\n    /* \"#utility.yul\":696:839   */\ntag_13:\n    /* \"#utility.yul\":753:758   */\n  0x00\n    /* \"#utility.yul\":784:790   */\n  dup2\n    /* \"#utility.yul\":778:791   */\n  mload\n    /* \"#utility.yul\":769:791   */\n  swap1\n  pop\n    /* \"#utility.yul\":800:833   */\n  tag_25\n    /* \"#utility.yul\":827:832   */\n  dup2\n    /* \"#utility.yul\":800:833   */\n  tag_12\n  jump\t// in\ntag_25:\n    /* \"#utility.yul\":696:839   */\n  swap3\n  swap2\n  pop\n  pop\n  jump\t// out\n    /* \"#utility.yul\":845:1352   */\ntag_3:\n    /* \"#utility.yul\":924:930   */\n  0x00\n    /* \"#utility.yul\":932:938   */\n  0x00\n    /* \"#utility.yul\":981:983   */\n  0x40\n    /* \"#utility.yul\":969:978   */\n  dup4\n    /* \"#utility.yul\":960:967   */\n  dup6\n    /* \"#utility.yul\":956:979   */\n  sub\n    /* \"#utility.yul\":952:984   */\n  slt\n    /* \"#utility.yul\":949:1068   */\n  iszero\n  tag_27\n  jumpi\n    /* \"#utility.yul\":987:1066   */\n  tag_28\n  tag_8\n  jump\t// in\ntag_28:\n    /* \"#utility.yul\":949:1068   */\ntag_27:\n    /* \"#utility.yul\":1107:1108   */\n  0x00\n    /* \"#utility.yul\":1132:1196   */\n  tag_29\n    /* \"#utility.yul\":1188:1195   */\n  dup6\n    /* \"#utility.yul\":1179:1185   */\n  dup3\n    /* \"#utility.yul\":1168:1177   */\n  dup7\n    /* \"#utility.yul\":1164:1186   */\n  add\n    /* \"#utility.yul\":1132:1196   */\n  tag_13\n  jump\t// in\ntag_29:\n    /* \"#utility.yul\":1122:1196   */\n  swap3\n  pop\n    /* \"#utility.yul\":1078:1206   */\n  pop\n    /* \"#utility.yul\":1245:1247   */\n  0x20\n    /* \"#utility.yul\":1271:1335   */\n  tag_30\n    /* \"#utility.yul\":1327:1334   */\n  dup6\n    /* \"#utility.yul\":1318:1324   */\n  dup3\n    /* \"#utility.yul\":1307:1316   */\n  dup7\n    /* \"#utility.yul\":1303:1325   */\n  add\n    /* \"#utility.yul\":1271:1335   */\n  tag_13\n  jump\t// in\ntag_30:\n    /* \"#utility.yul\":1261:1335   */\n  swap2\n  pop\n    /* \"#utility.yul\":1216:1345   */\n  pop\n    /* \"#utility.yul\":845:1352   */\n  swap3\n  pop\n  swap3\n  swap1\n  pop\n  jump\t// out\n    /* \"contracts/uniswap.sol\":543:1449  contract PixelcoinLiquidity {... */\ntag_6:\n  dataSize(sub_0)\n  dup1\n  dataOffset(sub_0)\n  0x00\n  codecopy\n  0x00\n  return\nstop\n\nsub_0: assembly {\n        /* \"contracts/uniswap.sol\":543:1449  contract PixelcoinLiquidity {... */\n      mstore(0x40, 0x80)\n      jumpi(tag_1, lt(calldatasize, 0x04))\n      shr(0xe0, calldataload(0x00))\n      dup1\n      0x51c6590a\n      eq\n      tag_3\n      jumpi\n      dup1\n      0x735de9f7\n      eq\n      tag_4\n      jumpi\n      dup1\n      0xe4f90b19\n      eq\n      tag_5\n      jumpi\n      jump(tag_2)\n    tag_1:\n      jumpi(tag_2, calldatasize)\n      stop\n    tag_2:\n      revert(0x00, 0x00)\n        /* \"contracts/uniswap.sol\":815:1390  function addLiquidity(uint256 tokenAmount) external payable {... */\n    tag_3:\n      tag_8\n      0x04\n      dup1\n      calldatasize\n      sub\n      dup2\n      add\n      swap1\n      tag_9\n      swap2\n      swap1\n      tag_10\n      jump\t// in\n    tag_9:\n      tag_11\n      jump\t// in\n    tag_8:\n      stop\n        /* \"contracts/uniswap.sol\":578:617  IUniswapV2Router02 public uniswapRouter */\n    tag_4:\n      callvalue\n      dup1\n      iszero\n      tag_12\n      jumpi\n      revert(0x00, 0x00)\n    tag_12:\n      pop\n      tag_13\n      tag_14\n      jump\t// in\n    tag_13:\n      mload(0x40)\n      tag_15\n      swap2\n      swap1\n      tag_16\n      jump\t// in\n    tag_15:\n      mload(0x40)\n      dup1\n      swap2\n      sub\n      swap1\n      return\n        /* \"contracts/uniswap.sol\":623:647  address public pixelcoin */\n    tag_5:\n      callvalue\n      dup1\n      iszero\n      tag_17\n      jumpi\n      revert(0x00, 0x00)\n    tag_17:\n      pop\n      tag_18\n      tag_19\n      jump\t// in\n    tag_18:\n      mload(0x40)\n      tag_20\n      swap2\n      swap1\n      tag_21\n      jump\t// in\n    tag_20:\n      mload(0x40)\n      dup1\n      swap2\n      sub\n      swap1\n      return\n        /* \"contracts/uniswap.sol\":815:1390  function addLiquidity(uint256 tokenAmount) external payable {... */\n    tag_11:\n        /* \"contracts/uniswap.sol\":996:1005  pixelcoin */\n      0x01\n      0x00\n      swap1\n      sload\n      swap1\n      0x0100\n      exp\n      swap1\n      div\n      0xffffffffffffffffffffffffffffffffffffffff\n      and\n        /* \"contracts/uniswap.sol\":989:1014  IERC20(pixelcoin).approve */\n      0xffffffffffffffffffffffffffffffffffffffff\n      and\n      0x095ea7b3\n        /* \"contracts/uniswap.sol\":1023:1036  uniswapRouter */\n      0x00\n      0x00\n      swap1\n      sload\n      swap1\n      0x0100\n      exp\n      swap1\n      div\n      0xffffffffffffffffffffffffffffffffffffffff\n      and\n        /* \"contracts/uniswap.sol\":1039:1050  tokenAmount */\n      dup4\n        /* \"contracts/uniswap.sol\":989:1051  IERC20(pixelcoin).approve(address(uniswapRouter), tokenAmount) */\n      mload(0x40)\n      dup4\n      0xffffffff\n      and\n      0xe0\n      shl\n      dup2\n      mstore\n      0x04\n      add\n      tag_23\n      swap3\n      swap2\n      swap1\n      tag_24\n      jump\t// in\n    tag_23:\n      0x20\n      mload(0x40)\n      dup1\n      dup4\n      sub\n      dup2\n      0x00\n      dup8\n      gas\n      call\n      iszero\n      dup1\n      iszero\n      tag_26\n      jumpi\n      returndatacopy(0x00, 0x00, returndatasize)\n      revert(0x00, returndatasize)\n    tag_26:\n      pop\n      pop\n      pop\n      pop\n      mload(0x40)\n      returndatasize\n      not(0x1f)\n      0x1f\n      dup3\n      add\n      and\n      dup3\n      add\n      dup1\n      0x40\n      mstore\n      pop\n      dup2\n      add\n      swap1\n      tag_27\n      swap2\n      swap1\n      tag_28\n      jump\t// in\n    tag_27:\n      pop\n        /* \"contracts/uniswap.sol\":1117:1130  uniswapRouter */\n      0x00\n      0x00\n      swap1\n      sload\n      swap1\n      0x0100\n      exp\n      swap1\n      div\n      0xffffffffffffffffffffffffffffffffffffffff\n      and\n        /* \"contracts/uniswap.sol\":1117:1146  uniswapRouter.addLiquidityETH */\n      0xffffffffffffffffffffffffffffffffffffffff\n      and\n      0xf305d719\n        /* \"contracts/uniswap.sol\":1154:1163  msg.value */\n      callvalue\n        /* \"contracts/uniswap.sol\":1178:1187  pixelcoin */\n      0x01\n      0x00\n      swap1\n      sload\n      swap1\n      0x0100\n      exp\n      swap1\n      div\n      0xffffffffffffffffffffffffffffffffffffffff\n      and\n        /* \"contracts/uniswap.sol\":1201:1212  tokenAmount */\n      dup5\n        /* \"contracts/uniswap.sol\":1226:1227  0 */\n      0x00\n        /* \"contracts/uniswap.sol\":1284:1285  0 */\n      0x00\n        /* \"contracts/uniswap.sol\":1299:1309  msg.sender */\n      caller\n        /* \"contracts/uniswap.sol\":1370:1373  300 */\n      0x012c\n        /* \"contracts/uniswap.sol\":1352:1367  block.timestamp */\n      timestamp\n        /* \"contracts/uniswap.sol\":1352:1373  block.timestamp + 300 */\n      tag_29\n      swap2\n      swap1\n      tag_30\n      jump\t// in\n    tag_29:\n        /* \"contracts/uniswap.sol\":1117:1383  uniswapRouter.addLiquidityETH{value: msg.value}(... */\n      mload(0x40)\n      dup9\n      0xffffffff\n      and\n      0xe0\n      shl\n      dup2\n      mstore\n      0x04\n      add\n      tag_31\n      swap7\n      swap6\n      swap5\n      swap4\n      swap3\n      swap2\n      swap1\n      tag_32\n      jump\t// in\n    tag_31:\n      0x60\n      mload(0x40)\n      dup1\n      dup4\n      sub\n      dup2\n      dup6\n      dup9\n      gas\n      call\n      iszero\n      dup1\n      iszero\n      tag_34\n      jumpi\n      returndatacopy(0x00, 0x00, returndatasize)\n      revert(0x00, returndatasize)\n    tag_34:\n      pop\n      pop\n      pop\n      pop\n      pop\n      mload(0x40)\n      returndatasize\n      not(0x1f)\n      0x1f\n      dup3\n      add\n      and\n      dup3\n      add\n      dup1\n      0x40\n      mstore\n      pop\n      dup2\n      add\n      swap1\n      tag_35\n      swap2\n      swap1\n      tag_36\n      jump\t// in\n    tag_35:\n      pop\n      pop\n      pop\n        /* \"contracts/uniswap.sol\":815:1390  function addLiquidity(uint256 tokenAmount) external payable {... */\n      pop\n      jump\t// out\n        /* \"contracts/uniswap.sol\":578:617  IUniswapV2Router02 public uniswapRouter */\n    tag_14:\n      0x00\n      0x00\n      swap1\n      sload\n      swap1\n      0x0100\n      exp\n      swap1\n      div\n      0xffffffffffffffffffffffffffffffffffffffff\n      and\n      dup2\n      jump\t// out\n        /* \"contracts/uniswap.sol\":623:647  address public pixelcoin */\n    tag_19:\n      0x01\n      0x00\n      swap1\n      sload\n      swap1\n      0x0100\n      exp\n      swap1\n      div\n      0xffffffffffffffffffffffffffffffffffffffff\n      and\n      dup2\n      jump\t// out\n        /* \"#utility.yul\":88:205   */\n    tag_38:\n        /* \"#utility.yul\":197:198   */\n      0x00\n        /* \"#utility.yul\":194:195   */\n      0x00\n        /* \"#utility.yul\":187:199   */\n      revert\n        /* \"#utility.yul\":334:411   */\n    tag_40:\n        /* \"#utility.yul\":371:378   */\n      0x00\n        /* \"#utility.yul\":400:405   */\n      dup2\n        /* \"#utility.yul\":389:405   */\n      swap1\n      pop\n        /* \"#utility.yul\":334:411   */\n      swap2\n      swap1\n      pop\n      jump\t// out\n        /* \"#utility.yul\":417:539   */\n    tag_41:\n        /* \"#utility.yul\":490:514   */\n      tag_66\n        /* \"#utility.yul\":508:513   */\n      dup2\n        /* \"#utility.yul\":490:514   */\n      tag_40\n      jump\t// in\n    tag_66:\n        /* \"#utility.yul\":483:488   */\n      dup2\n        /* \"#utility.yul\":480:515   */\n      eq\n        /* \"#utility.yul\":470:533   */\n      tag_67\n      jumpi\n        /* \"#utility.yul\":529:530   */\n      0x00\n        /* \"#utility.yul\":526:527   */\n      0x00\n        /* \"#utility.yul\":519:531   */\n      revert\n        /* \"#utility.yul\":470:533   */\n    tag_67:\n        /* \"#utility.yul\":417:539   */\n      pop\n      jump\t// out\n        /* \"#utility.yul\":545:684   */\n    tag_42:\n        /* \"#utility.yul\":591:596   */\n      0x00\n        /* \"#utility.yul\":629:635   */\n      dup2\n        /* \"#utility.yul\":616:636   */\n      calldataload\n        /* \"#utility.yul\":607:636   */\n      swap1\n      pop\n        /* \"#utility.yul\":645:678   */\n      tag_69\n        /* \"#utility.yul\":672:677   */\n      dup2\n        /* \"#utility.yul\":645:678   */\n      tag_41\n      jump\t// in\n    tag_69:\n        /* \"#utility.yul\":545:684   */\n      swap3\n      swap2\n      pop\n      pop\n      jump\t// out\n        /* \"#utility.yul\":690:1019   */\n    tag_10:\n        /* \"#utility.yul\":749:755   */\n      0x00\n        /* \"#utility.yul\":798:800   */\n      0x20\n        /* \"#utility.yul\":786:795   */\n      dup3\n        /* \"#utility.yul\":777:784   */\n      dup5\n        /* \"#utility.yul\":773:796   */\n      sub\n        /* \"#utility.yul\":769:801   */\n      slt\n        /* \"#utility.yul\":766:885   */\n      iszero\n      tag_71\n      jumpi\n        /* \"#utility.yul\":804:883   */\n      tag_72\n      tag_38\n      jump\t// in\n    tag_72:\n        /* \"#utility.yul\":766:885   */\n    tag_71:\n        /* \"#utility.yul\":924:925   */\n      0x00\n        /* \"#utility.yul\":949:1002   */\n      tag_73\n        /* \"#utility.yul\":994:1001   */\n      dup5\n        /* \"#utility.yul\":985:991   */\n      dup3\n        /* \"#utility.yul\":974:983   */\n      dup6\n        /* \"#utility.yul\":970:992   */\n      add\n        /* \"#utility.yul\":949:1002   */\n      tag_42\n      jump\t// in\n    tag_73:\n        /* \"#utility.yul\":939:1002   */\n      swap2\n      pop\n        /* \"#utility.yul\":895:1012   */\n      pop\n        /* \"#utility.yul\":690:1019   */\n      swap3\n      swap2\n      pop\n      pop\n      jump\t// out\n        /* \"#utility.yul\":1025:1151   */\n    tag_43:\n        /* \"#utility.yul\":1062:1069   */\n      0x00\n        /* \"#utility.yul\":1102:1144   */\n      0xffffffffffffffffffffffffffffffffffffffff\n        /* \"#utility.yul\":1095:1100   */\n      dup3\n        /* \"#utility.yul\":1091:1145   */\n      and\n        /* \"#utility.yul\":1080:1145   */\n      swap1\n      pop\n        /* \"#utility.yul\":1025:1151   */\n      swap2\n      swap1\n      pop\n      jump\t// out\n        /* \"#utility.yul\":1157:1217   */\n    tag_44:\n        /* \"#utility.yul\":1185:1188   */\n      0x00\n        /* \"#utility.yul\":1206:1211   */\n      dup2\n        /* \"#utility.yul\":1199:1211   */\n      swap1\n      pop\n        /* \"#utility.yul\":1157:1217   */\n      swap2\n      swap1\n      pop\n      jump\t// out\n        /* \"#utility.yul\":1223:1365   */\n    tag_45:\n        /* \"#utility.yul\":1273:1282   */\n      0x00\n        /* \"#utility.yul\":1306:1359   */\n      tag_77\n        /* \"#utility.yul\":1324:1358   */\n      tag_78\n        /* \"#utility.yul\":1333:1357   */\n      tag_79\n        /* \"#utility.yul\":1351:1356   */\n      dup5\n        /* \"#utility.yul\":1333:1357   */\n      tag_43\n      jump\t// in\n    tag_79:\n        /* \"#utility.yul\":1324:1358   */\n      tag_44\n      jump\t// in\n    tag_78:\n        /* \"#utility.yul\":1306:1359   */\n      tag_43\n      jump\t// in\n    tag_77:\n        /* \"#utility.yul\":1293:1359   */\n      swap1\n      pop\n        /* \"#utility.yul\":1223:1365   */\n      swap2\n      swap1\n      pop\n      jump\t// out\n        /* \"#utility.yul\":1371:1497   */\n    tag_46:\n        /* \"#utility.yul\":1421:1430   */\n      0x00\n        /* \"#utility.yul\":1454:1491   */\n      tag_81\n        /* \"#utility.yul\":1485:1490   */\n      dup3\n        /* \"#utility.yul\":1454:1491   */\n      tag_45\n      jump\t// in\n    tag_81:\n        /* \"#utility.yul\":1441:1491   */\n      swap1\n      pop\n        /* \"#utility.yul\":1371:1497   */\n      swap2\n      swap1\n      pop\n      jump\t// out\n        /* \"#utility.yul\":1503:1654   */\n    tag_47:\n        /* \"#utility.yul\":1578:1587   */\n      0x00\n        /* \"#utility.yul\":1611:1648   */\n      tag_83\n        /* \"#utility.yul\":1642:1647   */\n      dup3\n        /* \"#utility.yul\":1611:1648   */\n      tag_46\n      jump\t// in\n    tag_83:\n        /* \"#utility.yul\":1598:1648   */\n      swap1\n      pop\n        /* \"#utility.yul\":1503:1654   */\n      swap2\n      swap1\n      pop\n      jump\t// out\n        /* \"#utility.yul\":1660:1841   */\n    tag_48:\n        /* \"#utility.yul\":1772:1834   */\n      tag_85\n        /* \"#utility.yul\":1828:1833   */\n      dup2\n        /* \"#utility.yul\":1772:1834   */\n      tag_47\n      jump\t// in\n    tag_85:\n        /* \"#utility.yul\":1767:1770   */\n      dup3\n        /* \"#utility.yul\":1760:1835   */\n      mstore\n        /* \"#utility.yul\":1660:1841   */\n      pop\n      pop\n      jump\t// out\n        /* \"#utility.yul\":1847:2119   */\n    tag_16:\n        /* \"#utility.yul\":1965:1969   */\n      0x00\n        /* \"#utility.yul\":2003:2005   */\n      0x20\n        /* \"#utility.yul\":1992:2001   */\n      dup3\n        /* \"#utility.yul\":1988:2006   */\n      add\n        /* \"#utility.yul\":1980:2006   */\n      swap1\n      pop\n        /* \"#utility.yul\":2016:2112   */\n      tag_87\n        /* \"#utility.yul\":2109:2110   */\n      0x00\n        /* \"#utility.yul\":2098:2107   */\n      dup4\n        /* \"#utility.yul\":2094:2111   */\n      add\n        /* \"#utility.yul\":2085:2091   */\n      dup5\n        /* \"#utility.yul\":2016:2112   */\n      tag_48\n      jump\t// in\n    tag_87:\n        /* \"#utility.yul\":1847:2119   */\n      swap3\n      swap2\n      pop\n      pop\n      jump\t// out\n        /* \"#utility.yul\":2125:2221   */\n    tag_49:\n        /* \"#utility.yul\":2162:2169   */\n      0x00\n        /* \"#utility.yul\":2191:2215   */\n      tag_89\n        /* \"#utility.yul\":2209:2214   */\n      dup3\n        /* \"#utility.yul\":2191:2215   */\n      tag_43\n      jump\t// in\n    tag_89:\n        /* \"#utility.yul\":2180:2215   */\n      swap1\n      pop\n        /* \"#utility.yul\":2125:2221   */\n      swap2\n      swap1\n      pop\n      jump\t// out\n        /* \"#utility.yul\":2227:2345   */\n    tag_50:\n        /* \"#utility.yul\":2314:2338   */\n      tag_91\n        /* \"#utility.yul\":2332:2337   */\n      dup2\n        /* \"#utility.yul\":2314:2338   */\n      tag_49\n      jump\t// in\n    tag_91:\n        /* \"#utility.yul\":2309:2312   */\n      dup3\n        /* \"#utility.yul\":2302:2339   */\n      mstore\n        /* \"#utility.yul\":2227:2345   */\n      pop\n      pop\n      jump\t// out\n        /* \"#utility.yul\":2351:2573   */\n    tag_21:\n        /* \"#utility.yul\":2444:2448   */\n      0x00\n        /* \"#utility.yul\":2482:2484   */\n      0x20\n        /* \"#utility.yul\":2471:2480   */\n      dup3\n        /* \"#utility.yul\":2467:2485   */\n      add\n        /* \"#utility.yul\":2459:2485   */\n      swap1\n      pop\n        /* \"#utility.yul\":2495:2566   */\n      tag_93\n        /* \"#utility.yul\":2563:2564   */\n      0x00\n        /* \"#utility.yul\":2552:2561   */\n      dup4\n        /* \"#utility.yul\":2548:2565   */\n      add\n        /* \"#utility.yul\":2539:2545   */\n      dup5\n        /* \"#utility.yul\":2495:2566   */\n      tag_50\n      jump\t// in\n    tag_93:\n        /* \"#utility.yul\":2351:2573   */\n      swap3\n      swap2\n      pop\n      pop\n      jump\t// out\n        /* \"#utility.yul\":2579:2697   */\n    tag_51:\n        /* \"#utility.yul\":2666:2690   */\n      tag_95\n        /* \"#utility.yul\":2684:2689   */\n      dup2\n        /* \"#utility.yul\":2666:2690   */\n      tag_40\n      jump\t// in\n    tag_95:\n        /* \"#utility.yul\":2661:2664   */\n      dup3\n        /* \"#utility.yul\":2654:2691   */\n      mstore\n        /* \"#utility.yul\":2579:2697   */\n      pop\n      pop\n      jump\t// out\n        /* \"#utility.yul\":2703:3035   */\n    tag_24:\n        /* \"#utility.yul\":2824:2828   */\n      0x00\n        /* \"#utility.yul\":2862:2864   */\n      0x40\n        /* \"#utility.yul\":2851:2860   */\n      dup3\n        /* \"#utility.yul\":2847:2865   */\n      add\n        /* \"#utility.yul\":2839:2865   */\n      swap1\n      pop\n        /* \"#utility.yul\":2875:2946   */\n      tag_97\n        /* \"#utility.yul\":2943:2944   */\n      0x00\n        /* \"#utility.yul\":2932:2941   */\n      dup4\n        /* \"#utility.yul\":2928:2945   */\n      add\n        /* \"#utility.yul\":2919:2925   */\n      dup6\n        /* \"#utility.yul\":2875:2946   */\n      tag_50\n      jump\t// in\n    tag_97:\n        /* \"#utility.yul\":2956:3028   */\n      tag_98\n        /* \"#utility.yul\":3024:3026   */\n      0x20\n        /* \"#utility.yul\":3013:3022   */\n      dup4\n        /* \"#utility.yul\":3009:3027   */\n      add\n        /* \"#utility.yul\":3000:3006   */\n      dup5\n        /* \"#utility.yul\":2956:3028   */\n      tag_51\n      jump\t// in\n    tag_98:\n        /* \"#utility.yul\":2703:3035   */\n      swap4\n      swap3\n      pop\n      pop\n      pop\n      jump\t// out\n        /* \"#utility.yul\":3041:3131   */\n    tag_52:\n        /* \"#utility.yul\":3075:3082   */\n      0x00\n        /* \"#utility.yul\":3118:3123   */\n      dup2\n        /* \"#utility.yul\":3111:3124   */\n      iszero\n        /* \"#utility.yul\":3104:3125   */\n      iszero\n        /* \"#utility.yul\":3093:3125   */\n      swap1\n      pop\n        /* \"#utility.yul\":3041:3131   */\n      swap2\n      swap1\n      pop\n      jump\t// out\n        /* \"#utility.yul\":3137:3253   */\n    tag_53:\n        /* \"#utility.yul\":3207:3228   */\n      tag_101\n        /* \"#utility.yul\":3222:3227   */\n      dup2\n        /* \"#utility.yul\":3207:3228   */\n      tag_52\n      jump\t// in\n    tag_101:\n        /* \"#utility.yul\":3200:3205   */\n      dup2\n        /* \"#utility.yul\":3197:3229   */\n      eq\n        /* \"#utility.yul\":3187:3247   */\n      tag_102\n      jumpi\n        /* \"#utility.yul\":3243:3244   */\n      0x00\n        /* \"#utility.yul\":3240:3241   */\n      0x00\n        /* \"#utility.yul\":3233:3245   */\n      revert\n        /* \"#utility.yul\":3187:3247   */\n    tag_102:\n        /* \"#utility.yul\":3137:3253   */\n      pop\n      jump\t// out\n        /* \"#utility.yul\":3259:3396   */\n    tag_54:\n        /* \"#utility.yul\":3313:3318   */\n      0x00\n        /* \"#utility.yul\":3344:3350   */\n      dup2\n        /* \"#utility.yul\":3338:3351   */\n      mload\n        /* \"#utility.yul\":3329:3351   */\n      swap1\n      pop\n        /* \"#utility.yul\":3360:3390   */\n      tag_104\n        /* \"#utility.yul\":3384:3389   */\n      dup2\n        /* \"#utility.yul\":3360:3390   */\n      tag_53\n      jump\t// in\n    tag_104:\n        /* \"#utility.yul\":3259:3396   */\n      swap3\n      swap2\n      pop\n      pop\n      jump\t// out\n        /* \"#utility.yul\":3402:3747   */\n    tag_28:\n        /* \"#utility.yul\":3469:3475   */\n      0x00\n        /* \"#utility.yul\":3518:3520   */\n      0x20\n        /* \"#utility.yul\":3506:3515   */\n      dup3\n        /* \"#utility.yul\":3497:3504   */\n      dup5\n        /* \"#utility.yul\":3493:3516   */\n      sub\n        /* \"#utility.yul\":3489:3521   */\n      slt\n        /* \"#utility.yul\":3486:3605   */\n      iszero\n      tag_106\n      jumpi\n        /* \"#utility.yul\":3524:3603   */\n      tag_107\n      tag_38\n      jump\t// in\n    tag_107:\n        /* \"#utility.yul\":3486:3605   */\n    tag_106:\n        /* \"#utility.yul\":3644:3645   */\n      0x00\n        /* \"#utility.yul\":3669:3730   */\n      tag_108\n        /* \"#utility.yul\":3722:3729   */\n      dup5\n        /* \"#utility.yul\":3713:3719   */\n      dup3\n        /* \"#utility.yul\":3702:3711   */\n      dup6\n        /* \"#utility.yul\":3698:3720   */\n      add\n        /* \"#utility.yul\":3669:3730   */\n      tag_54\n      jump\t// in\n    tag_108:\n        /* \"#utility.yul\":3659:3730   */\n      swap2\n      pop\n        /* \"#utility.yul\":3615:3740   */\n      pop\n        /* \"#utility.yul\":3402:3747   */\n      swap3\n      swap2\n      pop\n      pop\n      jump\t// out\n        /* \"#utility.yul\":3753:3933   */\n    tag_55:\n        /* \"#utility.yul\":3801:3878   */\n      0x4e487b7100000000000000000000000000000000000000000000000000000000\n        /* \"#utility.yul\":3798:3799   */\n      0x00\n        /* \"#utility.yul\":3791:3879   */\n      mstore\n        /* \"#utility.yul\":3898:3902   */\n      0x11\n        /* \"#utility.yul\":3895:3896   */\n      0x04\n        /* \"#utility.yul\":3888:3903   */\n      mstore\n        /* \"#utility.yul\":3922:3926   */\n      0x24\n        /* \"#utility.yul\":3919:3920   */\n      0x00\n        /* \"#utility.yul\":3912:3927   */\n      revert\n        /* \"#utility.yul\":3939:4130   */\n    tag_30:\n        /* \"#utility.yul\":3979:3982   */\n      0x00\n        /* \"#utility.yul\":3998:4018   */\n      tag_111\n        /* \"#utility.yul\":4016:4017   */\n      dup3\n        /* \"#utility.yul\":3998:4018   */\n      tag_40\n      jump\t// in\n    tag_111:\n        /* \"#utility.yul\":3993:4018   */\n      swap2\n      pop\n        /* \"#utility.yul\":4032:4052   */\n      tag_112\n        /* \"#utility.yul\":4050:4051   */\n      dup4\n        /* \"#utility.yul\":4032:4052   */\n      tag_40\n      jump\t// in\n    tag_112:\n        /* \"#utility.yul\":4027:4052   */\n      swap3\n      pop\n        /* \"#utility.yul\":4075:4076   */\n      dup3\n        /* \"#utility.yul\":4072:4073   */\n      dup3\n        /* \"#utility.yul\":4068:4077   */\n      add\n        /* \"#utility.yul\":4061:4077   */\n      swap1\n      pop\n        /* \"#utility.yul\":4096:4099   */\n      dup1\n        /* \"#utility.yul\":4093:4094   */\n      dup3\n        /* \"#utility.yul\":4090:4100   */\n      gt\n        /* \"#utility.yul\":4087:4123   */\n      iszero\n      tag_113\n      jumpi\n        /* \"#utility.yul\":4103:4121   */\n      tag_114\n      tag_55\n      jump\t// in\n    tag_114:\n        /* \"#utility.yul\":4087:4123   */\n    tag_113:\n        /* \"#utility.yul\":3939:4130   */\n      swap3\n      swap2\n      pop\n      pop\n      jump\t// out\n        /* \"#utility.yul\":4136:4221   */\n    tag_56:\n        /* \"#utility.yul\":4181:4188   */\n      0x00\n        /* \"#utility.yul\":4210:4215   */\n      dup2\n        /* \"#utility.yul\":4199:4215   */\n      swap1\n      pop\n        /* \"#utility.yul\":4136:4221   */\n      swap2\n      swap1\n      pop\n      jump\t// out\n        /* \"#utility.yul\":4227:4385   */\n    tag_57:\n        /* \"#utility.yul\":4285:4294   */\n      0x00\n        /* \"#utility.yul\":4318:4379   */\n      tag_117\n        /* \"#utility.yul\":4336:4378   */\n      tag_118\n        /* \"#utility.yul\":4345:4377   */\n      tag_119\n        /* \"#utility.yul\":4371:4376   */\n      dup5\n        /* \"#utility.yul\":4345:4377   */\n      tag_56\n      jump\t// in\n    tag_119:\n        /* \"#utility.yul\":4336:4378   */\n      tag_44\n      jump\t// in\n    tag_118:\n        /* \"#utility.yul\":4318:4379   */\n      tag_40\n      jump\t// in\n    tag_117:\n        /* \"#utility.yul\":4305:4379   */\n      swap1\n      pop\n        /* \"#utility.yul\":4227:4385   */\n      swap2\n      swap1\n      pop\n      jump\t// out\n        /* \"#utility.yul\":4391:4538   */\n    tag_58:\n        /* \"#utility.yul\":4486:4531   */\n      tag_121\n        /* \"#utility.yul\":4525:4530   */\n      dup2\n        /* \"#utility.yul\":4486:4531   */\n      tag_57\n      jump\t// in\n    tag_121:\n        /* \"#utility.yul\":4481:4484   */\n      dup3\n        /* \"#utility.yul\":4474:4532   */\n      mstore\n        /* \"#utility.yul\":4391:4538   */\n      pop\n      pop\n      jump\t// out\n        /* \"#utility.yul\":4544:5351   */\n    tag_32:\n        /* \"#utility.yul\":4793:4797   */\n      0x00\n        /* \"#utility.yul\":4831:4834   */\n      0xc0\n        /* \"#utility.yul\":4820:4829   */\n      dup3\n        /* \"#utility.yul\":4816:4835   */\n      add\n        /* \"#utility.yul\":4808:4835   */\n      swap1\n      pop\n        /* \"#utility.yul\":4845:4916   */\n      tag_123\n        /* \"#utility.yul\":4913:4914   */\n      0x00\n        /* \"#utility.yul\":4902:4911   */\n      dup4\n        /* \"#utility.yul\":4898:4915   */\n      add\n        /* \"#utility.yul\":4889:4895   */\n      dup10\n        /* \"#utility.yul\":4845:4916   */\n      tag_50\n      jump\t// in\n    tag_123:\n        /* \"#utility.yul\":4926:4998   */\n      tag_124\n        /* \"#utility.yul\":4994:4996   */\n      0x20\n        /* \"#utility.yul\":4983:4992   */\n      dup4\n        /* \"#utility.yul\":4979:4997   */\n      add\n        /* \"#utility.yul\":4970:4976   */\n      dup9\n        /* \"#utility.yul\":4926:4998   */\n      tag_51\n      jump\t// in\n    tag_124:\n        /* \"#utility.yul\":5008:5088   */\n      tag_125\n        /* \"#utility.yul\":5084:5086   */\n      0x40\n        /* \"#utility.yul\":5073:5082   */\n      dup4\n        /* \"#utility.yul\":5069:5087   */\n      add\n        /* \"#utility.yul\":5060:5066   */\n      dup8\n        /* \"#utility.yul\":5008:5088   */\n      tag_58\n      jump\t// in\n    tag_125:\n        /* \"#utility.yul\":5098:5178   */\n      tag_126\n        /* \"#utility.yul\":5174:5176   */\n      0x60\n        /* \"#utility.yul\":5163:5172   */\n      dup4\n        /* \"#utility.yul\":5159:5177   */\n      add\n        /* \"#utility.yul\":5150:5156   */\n      dup7\n        /* \"#utility.yul\":5098:5178   */\n      tag_58\n      jump\t// in\n    tag_126:\n        /* \"#utility.yul\":5188:5261   */\n      tag_127\n        /* \"#utility.yul\":5256:5259   */\n      0x80\n        /* \"#utility.yul\":5245:5254   */\n      dup4\n        /* \"#utility.yul\":5241:5260   */\n      add\n        /* \"#utility.yul\":5232:5238   */\n      dup6\n        /* \"#utility.yul\":5188:5261   */\n      tag_50\n      jump\t// in\n    tag_127:\n        /* \"#utility.yul\":5271:5344   */\n      tag_128\n        /* \"#utility.yul\":5339:5342   */\n      0xa0\n        /* \"#utility.yul\":5328:5337   */\n      dup4\n        /* \"#utility.yul\":5324:5343   */\n      add\n        /* \"#utility.yul\":5315:5321   */\n      dup5\n        /* \"#utility.yul\":5271:5344   */\n      tag_51\n      jump\t// in\n    tag_128:\n        /* \"#utility.yul\":4544:5351   */\n      swap8\n      swap7\n      pop\n      pop\n      pop\n      pop\n      pop\n      pop\n      pop\n      jump\t// out\n        /* \"#utility.yul\":5357:5500   */\n    tag_59:\n        /* \"#utility.yul\":5414:5419   */\n      0x00\n        /* \"#utility.yul\":5445:5451   */\n      dup2\n        /* \"#utility.yul\":5439:5452   */\n      mload\n        /* \"#utility.yul\":5430:5452   */\n      swap1\n      pop\n        /* \"#utility.yul\":5461:5494   */\n      tag_130\n        /* \"#utility.yul\":5488:5493   */\n      dup2\n        /* \"#utility.yul\":5461:5494   */\n      tag_41\n      jump\t// in\n    tag_130:\n        /* \"#utility.yul\":5357:5500   */\n      swap3\n      swap2\n      pop\n      pop\n      jump\t// out\n        /* \"#utility.yul\":5506:6169   */\n    tag_36:\n        /* \"#utility.yul\":5594:5600   */\n      0x00\n        /* \"#utility.yul\":5602:5608   */\n      0x00\n        /* \"#utility.yul\":5610:5616   */\n      0x00\n        /* \"#utility.yul\":5659:5661   */\n      0x60\n        /* \"#utility.yul\":5647:5656   */\n      dup5\n        /* \"#utility.yul\":5638:5645   */\n      dup7\n        /* \"#utility.yul\":5634:5657   */\n      sub\n        /* \"#utility.yul\":5630:5662   */\n      slt\n        /* \"#utility.yul\":5627:5746   */\n      iszero\n      tag_132\n      jumpi\n        /* \"#utility.yul\":5665:5744   */\n      tag_133\n      tag_38\n      jump\t// in\n    tag_133:\n        /* \"#utility.yul\":5627:5746   */\n    tag_132:\n        /* \"#utility.yul\":5785:5786   */\n      0x00\n        /* \"#utility.yul\":5810:5874   */\n      tag_134\n        /* \"#utility.yul\":5866:5873   */\n      dup7\n        /* \"#utility.yul\":5857:5863   */\n      dup3\n        /* \"#utility.yul\":5846:5855   */\n      dup8\n        /* \"#utility.yul\":5842:5864   */\n      add\n        /* \"#utility.yul\":5810:5874   */\n      tag_59\n      jump\t// in\n    tag_134:\n        /* \"#utility.yul\":5800:5874   */\n      swap4\n      pop\n        /* \"#utility.yul\":5756:5884   */\n      pop\n        /* \"#utility.yul\":5923:5925   */\n      0x20\n        /* \"#utility.yul\":5949:6013   */\n      tag_135\n        /* \"#utility.yul\":6005:6012   */\n      dup7\n        /* \"#utility.yul\":5996:6002   */\n      dup3\n        /* \"#utility.yul\":5985:5994   */\n      dup8\n        /* \"#utility.yul\":5981:6003   */\n      add\n        /* \"#utility.yul\":5949:6013   */\n      tag_59\n      jump\t// in\n    tag_135:\n        /* \"#utility.yul\":5939:6013   */\n      swap3\n      pop\n        /* \"#utility.yul\":5894:6023   */\n      pop\n        /* \"#utility.yul\":6062:6064   */\n      0x40\n        /* \"#utility.yul\":6088:6152   */\n      tag_136\n        /* \"#utility.yul\":6144:6151   */\n      dup7\n        /* \"#utility.yul\":6135:6141   */\n      dup3\n        /* \"#utility.yul\":6124:6133   */\n      dup8\n        /* \"#utility.yul\":6120:6142   */\n      add\n        /* \"#utility.yul\":6088:6152   */\n      tag_59\n      jump\t// in\n    tag_136:\n        /* \"#utility.yul\":6078:6152   */\n      swap2\n      pop\n        /* \"#utility.yul\":6033:6162   */\n      pop\n        /* \"#utility.yul\":5506:6169   */\n      swap3\n      pop\n      swap3\n      pop\n      swap3\n      jump\t// out\n\n    auxdata: 0xa26469706673582212207f14dedbe7a1e4058f03f9c5a016e19ad4bddfd82bfeaaaab561a1fd6f8146dd64736f6c634300081e0033\n}\n",
				"bytecode": {
					"linkReferences": {},
					"object": "608060405234801561000f575f5ffd5b5060405161074738038061074783398181016040528101906100319190610115565b8160015f6101000a81548173ffffffffffffffffffffffffffffffffffffffff021916908373ffffffffffffffffffffffffffffffffffffffff160217905550805f5f6101000a81548173ffffffffffffffffffffffffffffffffffffffff021916908373ffffffffffffffffffffffffffffffffffffffff1602179055505050610153565b5f5ffd5b5f73ffffffffffffffffffffffffffffffffffffffff82169050919050565b5f6100e4826100bb565b9050919050565b6100f4816100da565b81146100fe575f5ffd5b50565b5f8151905061010f816100eb565b92915050565b5f5f6040838503121561012b5761012a6100b7565b5b5f61013885828601610101565b925050602061014985828601610101565b9150509250929050565b6105e7806101605f395ff3fe608060405260043610610037575f3560e01c806351c6590a14610042578063735de9f71461005e578063e4f90b19146100885761003e565b3661003e57005b5f5ffd5b61005c600480360381019061005791906102c8565b6100b2565b005b348015610069575f5ffd5b50610072610248565b60405161007f919061036d565b60405180910390f35b348015610093575f5ffd5b5061009c61026c565b6040516100a991906103a6565b60405180910390f35b60015f9054906101000a900473ffffffffffffffffffffffffffffffffffffffff1673ffffffffffffffffffffffffffffffffffffffff1663095ea7b35f5f9054906101000a900473ffffffffffffffffffffffffffffffffffffffff16836040518363ffffffff1660e01b815260040161012e9291906103ce565b6020604051808303815f875af115801561014a573d5f5f3e3d5ffd5b505050506040513d601f19601f8201168201806040525081019061016e919061042a565b505f5f9054906101000a900473ffffffffffffffffffffffffffffffffffffffff1673ffffffffffffffffffffffffffffffffffffffff1663f305d7193460015f9054906101000a900473ffffffffffffffffffffffffffffffffffffffff16845f5f3361012c426101e09190610482565b6040518863ffffffff1660e01b8152600401610201969594939291906104ee565b60606040518083038185885af115801561021d573d5f5f3e3d5ffd5b50505050506040513d601f19601f820116820180604052508101906102429190610561565b50505050565b5f5f9054906101000a900473ffffffffffffffffffffffffffffffffffffffff1681565b60015f9054906101000a900473ffffffffffffffffffffffffffffffffffffffff1681565b5f5ffd5b5f819050919050565b6102a781610295565b81146102b1575f5ffd5b50565b5f813590506102c28161029e565b92915050565b5f602082840312156102dd576102dc610291565b5b5f6102ea848285016102b4565b91505092915050565b5f73ffffffffffffffffffffffffffffffffffffffff82169050919050565b5f819050919050565b5f61033561033061032b846102f3565b610312565b6102f3565b9050919050565b5f6103468261031b565b9050919050565b5f6103578261033c565b9050919050565b6103678161034d565b82525050565b5f6020820190506103805f83018461035e565b92915050565b5f610390826102f3565b9050919050565b6103a081610386565b82525050565b5f6020820190506103b95f830184610397565b92915050565b6103c881610295565b82525050565b5f6040820190506103e15f830185610397565b6103ee60208301846103bf565b9392505050565b5f8115159050919050565b610409816103f5565b8114610413575f5ffd5b50565b5f8151905061042481610400565b92915050565b5f6020828403121561043f5761043e610291565b5b5f61044c84828501610416565b91505092915050565b7f4e487b71000000000000000000000000000000000000000000000000000000005f52601160045260245ffd5b5f61048c82610295565b915061049783610295565b92508282019050808211156104af576104ae610455565b5b92915050565b5f819050919050565b5f6104d86104d36104ce846104b5565b610312565b610295565b9050919050565b6104e8816104be565b82525050565b5f60c0820190506105015f830189610397565b61050e60208301886103bf565b61051b60408301876104df565b61052860608301866104df565b6105356080830185610397565b61054260a08301846103bf565b979650505050505050565b5f8151905061055b8161029e565b92915050565b5f5f5f6060848603121561057857610577610291565b5b5f6105858682870161054d565b93505060206105968682870161054d565b92505060406105a78682870161054d565b915050925092509256fea26469706673582212207f14dedbe7a1e4058f03f9c5a016e19ad4bddfd82bfeaaaab561a1fd6f8146dd64736f6c634300081e0033",
					"opcodes": "PUSH1 0x80 PUSH1 0x40 MSTORE CALLVALUE DUP1 ISZERO PUSH2 0xF JUMPI PUSH0 PUSH0 REVERT JUMPDEST POP PUSH1 0x40 MLOAD PUSH2 0x747 CODESIZE SUB DUP1 PUSH2 0x747 DUP4 CODECOPY DUP2 DUP2 ADD PUSH1 0x40 MSTORE DUP2 ADD SWAP1 PUSH2 0x31 SWAP2 SWAP1 PUSH2 0x115 JUMP JUMPDEST DUP2 PUSH1 0x1 PUSH0 PUSH2 0x100 EXP DUP2 SLOAD DUP2 PUSH20 0xFFFFFFFFFFFFFFFFFFFFFFFFFFFFFFFFFFFFFFFF MUL NOT AND SWAP1 DUP4 PUSH20 0xFFFFFFFFFFFFFFFFFFFFFFFFFFFFFFFFFFFFFFFF AND MUL OR SWAP1 SSTORE POP DUP1 PUSH0 PUSH0 PUSH2 0x100 EXP DUP2 SLOAD DUP2 PUSH20 0xFFFFFFFFFFFFFFFFFFFFFFFFFFFFFFFFFFFFFFFF MUL NOT AND SWAP1 DUP4 PUSH20 0xFFFFFFFFFFFFFFFFFFFFFFFFFFFFFFFFFFFFFFFF AND MUL OR SWAP1 SSTORE POP POP POP PUSH2 0x153 JUMP JUMPDEST PUSH0 PUSH0 REVERT JUMPDEST PUSH0 PUSH20 0xFFFFFFFFFFFFFFFFFFFFFFFFFFFFFFFFFFFFFFFF DUP3 AND SWAP1 POP SWAP2 SWAP1 POP JUMP JUMPDEST PUSH0 PUSH2 0xE4 DUP3 PUSH2 0xBB JUMP JUMPDEST SWAP1 POP SWAP2 SWAP1 POP JUMP JUMPDEST PUSH2 0xF4 DUP2 PUSH2 0xDA JUMP JUMPDEST DUP2 EQ PUSH2 0xFE JUMPI PUSH0 PUSH0 REVERT JUMPDEST POP JUMP JUMPDEST PUSH0 DUP2 MLOAD SWAP1 POP PUSH2 0x10F DUP2 PUSH2 0xEB JUMP JUMPDEST SWAP3 SWAP2 POP POP JUMP JUMPDEST PUSH0 PUSH0 PUSH1 0x40 DUP4 DUP6 SUB SLT ISZERO PUSH2 0x12B JUMPI PUSH2 0x12A PUSH2 0xB7 JUMP JUMPDEST JUMPDEST PUSH0 PUSH2 0x138 DUP6 DUP3 DUP7 ADD PUSH2 0x101 JUMP JUMPDEST SWAP3 POP POP PUSH1 0x20 PUSH2 0x149 DUP6 DUP3 DUP7 ADD PUSH2 0x101 JUMP JUMPDEST SWAP2 POP POP SWAP3 POP SWAP3 SWAP1 POP JUMP JUMPDEST PUSH2 0x5E7 DUP1 PUSH2 0x160 PUSH0 CODECOPY PUSH0 RETURN INVALID PUSH1 0x80 PUSH1 0x40 MSTORE PUSH1 0x4 CALLDATASIZE LT PUSH2 0x37 JUMPI PUSH0 CALLDATALOAD PUSH1 0xE0 SHR DUP1 PUSH4 0x51C6590A EQ PUSH2 0x42 JUMPI DUP1 PUSH4 0x735DE9F7 EQ PUSH2 0x5E JUMPI DUP1 PUSH4 0xE4F90B19 EQ PUSH2 0x88 JUMPI PUSH2 0x3E JUMP JUMPDEST CALLDATASIZE PUSH2 0x3E JUMPI STOP JUMPDEST PUSH0 PUSH0 REVERT JUMPDEST PUSH2 0x5C PUSH1 0x4 DUP1 CALLDATASIZE SUB DUP2 ADD SWAP1 PUSH2 0x57 SWAP2 SWAP1 PUSH2 0x2C8 JUMP JUMPDEST PUSH2 0xB2 JUMP JUMPDEST STOP JUMPDEST CALLVALUE DUP1 ISZERO PUSH2 0x69 JUMPI PUSH0 PUSH0 REVERT JUMPDEST POP PUSH2 0x72 PUSH2 0x248 JUMP JUMPDEST PUSH1 0x40 MLOAD PUSH2 0x7F SWAP2 SWAP1 PUSH2 0x36D JUMP JUMPDEST PUSH1 0x40 MLOAD DUP1 SWAP2 SUB SWAP1 RETURN JUMPDEST CALLVALUE DUP1 ISZERO PUSH2 0x93 JUMPI PUSH0 PUSH0 REVERT JUMPDEST POP PUSH2 0x9C PUSH2 0x26C JUMP JUMPDEST PUSH1 0x40 MLOAD PUSH2 0xA9 SWAP2 SWAP1 PUSH2 0x3A6 JUMP JUMPDEST PUSH1 0x40 MLOAD DUP1 SWAP2 SUB SWAP1 RETURN JUMPDEST PUSH1 0x1 PUSH0 SWAP1 SLOAD SWAP1 PUSH2 0x100 EXP SWAP1 DIV PUSH20 0xFFFFFFFFFFFFFFFFFFFFFFFFFFFFFFFFFFFFFFFF AND PUSH20 0xFFFFFFFFFFFFFFFFFFFFFFFFFFFFFFFFFFFFFFFF AND PUSH4 0x95EA7B3 PUSH0 PUSH0 SWAP1 SLOAD SWAP1 PUSH2 0x100 EXP SWAP1 DIV PUSH20 0xFFFFFFFFFFFFFFFFFFFFFFFFFFFFFFFFFFFFFFFF AND DUP4 PUSH1 0x40 MLOAD DUP4 PUSH4 0xFFFFFFFF AND PUSH1 0xE0 SHL DUP2 MSTORE PUSH1 0x4 ADD PUSH2 0x12E SWAP3 SWAP2 SWAP1 PUSH2 0x3CE JUMP JUMPDEST PUSH1 0x20 PUSH1 0x40 MLOAD DUP1 DUP4 SUB DUP2 PUSH0 DUP8 GAS CALL ISZERO DUP1 ISZERO PUSH2 0x14A JUMPI RETURNDATASIZE PUSH0 PUSH0 RETURNDATACOPY RETURNDATASIZE PUSH0 REVERT JUMPDEST POP POP POP POP PUSH1 0x40 MLOAD RETURNDATASIZE PUSH1 0x1F NOT PUSH1 0x1F DUP3 ADD AND DUP3 ADD DUP1 PUSH1 0x40 MSTORE POP DUP2 ADD SWAP1 PUSH2 0x16E SWAP2 SWAP1 PUSH2 0x42A JUMP JUMPDEST POP PUSH0 PUSH0 SWAP1 SLOAD SWAP1 PUSH2 0x100 EXP SWAP1 DIV PUSH20 0xFFFFFFFFFFFFFFFFFFFFFFFFFFFFFFFFFFFFFFFF AND PUSH20 0xFFFFFFFFFFFFFFFFFFFFFFFFFFFFFFFFFFFFFFFF AND PUSH4 0xF305D719 CALLVALUE PUSH1 0x1 PUSH0 SWAP1 SLOAD SWAP1 PUSH2 0x100 EXP SWAP1 DIV PUSH20 0xFFFFFFFFFFFFFFFFFFFFFFFFFFFFFFFFFFFFFFFF AND DUP5 PUSH0 PUSH0 CALLER PUSH2 0x12C TIMESTAMP PUSH2 0x1E0 SWAP2 SWAP1 PUSH2 0x482 JUMP JUMPDEST PUSH1 0x40 MLOAD DUP9 PUSH4 0xFFFFFFFF AND PUSH1 0xE0 SHL DUP2 MSTORE PUSH1 0x4 ADD PUSH2 0x201 SWAP7 SWAP6 SWAP5 SWAP4 SWAP3 SWAP2 SWAP1 PUSH2 0x4EE JUMP JUMPDEST PUSH1 0x60 PUSH1 0x40 MLOAD DUP1 DUP4 SUB DUP2 DUP6 DUP9 GAS CALL ISZERO DUP1 ISZERO PUSH2 0x21D JUMPI RETURNDATASIZE PUSH0 PUSH0 RETURNDATACOPY RETURNDATASIZE PUSH0 REVERT JUMPDEST POP POP POP POP POP PUSH1 0x40 MLOAD RETURNDATASIZE PUSH1 0x1F NOT PUSH1 0x1F DUP3 ADD AND DUP3 ADD DUP1 PUSH1 0x40 MSTORE POP DUP2 ADD SWAP1 PUSH2 0x242 SWAP2 SWAP1 PUSH2 0x561 JUMP JUMPDEST POP POP POP POP JUMP JUMPDEST PUSH0 PUSH0 SWAP1 SLOAD SWAP1 PUSH2 0x100 EXP SWAP1 DIV PUSH20 0xFFFFFFFFFFFFFFFFFFFFFFFFFFFFFFFFFFFFFFFF AND DUP2 JUMP JUMPDEST PUSH1 0x1 PUSH0 SWAP1 SLOAD SWAP1 PUSH2 0x100 EXP SWAP1 DIV PUSH20 0xFFFFFFFFFFFFFFFFFFFFFFFFFFFFFFFFFFFFFFFF AND DUP2 JUMP JUMPDEST PUSH0 PUSH0 REVERT JUMPDEST PUSH0 DUP2 SWAP1 POP SWAP2 SWAP1 POP JUMP JUMPDEST PUSH2 0x2A7 DUP2 PUSH2 0x295 JUMP JUMPDEST DUP2 EQ PUSH2 0x2B1 JUMPI PUSH0 PUSH0 REVERT JUMPDEST POP JUMP JUMPDEST PUSH0 DUP2 CALLDATALOAD SWAP1 POP PUSH2 0x2C2 DUP2 PUSH2 0x29E JUMP JUMPDEST SWAP3 SWAP2 POP POP JUMP JUMPDEST PUSH0 PUSH1 0x20 DUP3 DUP5 SUB SLT ISZERO PUSH2 0x2DD JUMPI PUSH2 0x2DC PUSH2 0x291 JUMP JUMPDEST JUMPDEST PUSH0 PUSH2 0x2EA DUP5 DUP3 DUP6 ADD PUSH2 0x2B4 JUMP JUMPDEST SWAP2 POP POP SWAP3 SWAP2 POP POP JUMP JUMPDEST PUSH0 PUSH20 0xFFFFFFFFFFFFFFFFFFFFFFFFFFFFFFFFFFFFFFFF DUP3 AND SWAP1 POP SWAP2 SWAP1 POP JUMP JUMPDEST PUSH0 DUP2 SWAP1 POP SWAP2 SWAP1 POP JUMP JUMPDEST PUSH0 PUSH2 0x335 PUSH2 0x330 PUSH2 0x32B DUP5 PUSH2 0x2F3 JUMP JUMPDEST PUSH2 0x312 JUMP JUMPDEST PUSH2 0x2F3 JUMP JUMPDEST SWAP1 POP SWAP2 SWAP1 POP JUMP JUMPDEST PUSH0 PUSH2 0x346 DUP3 PUSH2 0x31B JUMP JUMPDEST SWAP1 POP SWAP2 SWAP1 POP JUMP JUMPDEST PUSH0 PUSH2 0x357 DUP3 PUSH2 0x33C JUMP JUMPDEST SWAP1 POP SWAP2 SWAP1 POP JUMP JUMPDEST PUSH2 0x367 DUP2 PUSH2 0x34D JUMP JUMPDEST DUP3 MSTORE POP POP JUMP JUMPDEST PUSH0 PUSH1 0x20 DUP3 ADD SWAP1 POP PUSH2 0x380 PUSH0 DUP4 ADD DUP5 PUSH2 0x35E JUMP JUMPDEST SWAP3 SWAP2 POP POP JUMP JUMPDEST PUSH0 PUSH2 0x390 DUP3 PUSH2 0x2F3 JUMP JUMPDEST SWAP1 POP SWAP2 SWAP1 POP JUMP JUMPDEST PUSH2 0x3A0 DUP2 PUSH2 0x386 JUMP JUMPDEST DUP3 MSTORE POP POP JUMP JUMPDEST PUSH0 PUSH1 0x20 DUP3 ADD SWAP1 POP PUSH2 0x3B9 PUSH0 DUP4 ADD DUP5 PUSH2 0x397 JUMP JUMPDEST SWAP3 SWAP2 POP POP JUMP JUMPDEST PUSH2 0x3C8 DUP2 PUSH2 0x295 JUMP JUMPDEST DUP3 MSTORE POP POP JUMP JUMPDEST PUSH0 PUSH1 0x40 DUP3 ADD SWAP1 POP PUSH2 0x3E1 PUSH0 DUP4 ADD DUP6 PUSH2 0x397 JUMP JUMPDEST PUSH2 0x3EE PUSH1 0x20 DUP4 ADD DUP5 PUSH2 0x3BF JUMP JUMPDEST SWAP4 SWAP3 POP POP POP JUMP JUMPDEST PUSH0 DUP2 ISZERO ISZERO SWAP1 POP SWAP2 SWAP1 POP JUMP JUMPDEST PUSH2 0x409 DUP2 PUSH2 0x3F5 JUMP JUMPDEST DUP2 EQ PUSH2 0x413 JUMPI PUSH0 PUSH0 REVERT JUMPDEST POP JUMP JUMPDEST PUSH0 DUP2 MLOAD SWAP1 POP PUSH2 0x424 DUP2 PUSH2 0x400 JUMP JUMPDEST SWAP3 SWAP2 POP POP JUMP JUMPDEST PUSH0 PUSH1 0x20 DUP3 DUP5 SUB SLT ISZERO PUSH2 0x43F JUMPI PUSH2 0x43E PUSH2 0x291 JUMP JUMPDEST JUMPDEST PUSH0 PUSH2 0x44C DUP5 DUP3 DUP6 ADD PUSH2 0x416 JUMP JUMPDEST SWAP2 POP POP SWAP3 SWAP2 POP POP JUMP JUMPDEST PUSH32 0x4E487B7100000000000000000000000000000000000000000000000000000000 PUSH0 MSTORE PUSH1 0x11 PUSH1 0x4 MSTORE PUSH1 0x24 PUSH0 REVERT JUMPDEST PUSH0 PUSH2 0x48C DUP3 PUSH2 0x295 JUMP JUMPDEST SWAP2 POP PUSH2 0x497 DUP4 PUSH2 0x295 JUMP JUMPDEST SWAP3 POP DUP3 DUP3 ADD SWAP1 POP DUP1 DUP3 GT ISZERO PUSH2 0x4AF JUMPI PUSH2 0x4AE PUSH2 0x455 JUMP JUMPDEST JUMPDEST SWAP3 SWAP2 POP POP JUMP JUMPDEST PUSH0 DUP2 SWAP1 POP SWAP2 SWAP1 POP JUMP JUMPDEST PUSH0 PUSH2 0x4D8 PUSH2 0x4D3 PUSH2 0x4CE DUP5 PUSH2 0x4B5 JUMP JUMPDEST PUSH2 0x312 JUMP JUMPDEST PUSH2 0x295 JUMP JUMPDEST SWAP1 POP SWAP2 SWAP1 POP JUMP JUMPDEST PUSH2 0x4E8 DUP2 PUSH2 0x4BE JUMP JUMPDEST DUP3 MSTORE POP POP JUMP JUMPDEST PUSH0 PUSH1 0xC0 DUP3 ADD SWAP1 POP PUSH2 0x501 PUSH0 DUP4 ADD DUP10 PUSH2 0x397 JUMP JUMPDEST PUSH2 0x50E PUSH1 0x20 DUP4 ADD DUP9 PUSH2 0x3BF JUMP JUMPDEST PUSH2 0x51B PUSH1 0x40 DUP4 ADD DUP8 PUSH2 0x4DF JUMP JUMPDEST PUSH2 0x528 PUSH1 0x60 DUP4 ADD DUP7 PUSH2 0x4DF JUMP JUMPDEST PUSH2 0x535 PUSH1 0x80 DUP4 ADD DUP6 PUSH2 0x397 JUMP JUMPDEST PUSH2 0x542 PUSH1 0xA0 DUP4 ADD DUP5 PUSH2 0x3BF JUMP JUMPDEST SWAP8 SWAP7 POP POP POP POP POP POP POP JUMP JUMPDEST PUSH0 DUP2 MLOAD SWAP1 POP PUSH2 0x55B DUP2 PUSH2 0x29E JUMP JUMPDEST SWAP3 SWAP2 POP POP JUMP JUMPDEST PUSH0 PUSH0 PUSH0 PUSH1 0x60 DUP5 DUP7 SUB SLT ISZERO PUSH2 0x578 JUMPI PUSH2 0x577 PUSH2 0x291 JUMP JUMPDEST JUMPDEST PUSH0 PUSH2 0x585 DUP7 DUP3 DUP8 ADD PUSH2 0x54D JUMP JUMPDEST SWAP4 POP POP PUSH1 0x20 PUSH2 0x596 DUP7 DUP3 DUP8 ADD PUSH2 0x54D JUMP JUMPDEST SWAP3 POP POP PUSH1 0x40 PUSH2 0x5A7 DUP7 DUP3 DUP8 ADD PUSH2 0x54D JUMP JUMPDEST SWAP2 POP POP SWAP3 POP SWAP3 POP SWAP3 JUMP INVALID LOG2 PUSH5 0x6970667358 0x22 SLT KECCAK256 PUSH32 0x14DEDBE7A1E4058F03F9C5A016E19AD4BDDFD82BFEAAAAB561A1FD6F8146DD64 PUSH20 0x6F6C634300081E00330000000000000000000000 "
				},
				"gasEstimates": {
					"creation": {
						"codeDepositCost": "302200",
						"executionCost": "infinite",
						"totalCost": "infinite"
					},
					"external": {
						"addLiquidity(uint256)": "infinite",
						"pixelcoin()": "2530",
						"uniswapRouter()": "infinite"
					}
				},
				"methodIdentifiers": {
					"addLiquidity(uint256)": "51c6590a",
					"pixelcoin()": "e4f90b19",
					"uniswapRouter()": "735de9f7"
				}
			},
			"storageLayout": {
				"storage": [
					{
						"astId": 41,
						"contract": "contracts/uniswap.sol:PixelcoinLiquidity",
						"label": "uniswapRouter",
						"offset": 0,
						"slot": "0",
						"type": "t_contract(IUniswapV2Router02)28"
					},
					{
						"astId": 43,
						"contract": "contracts/uniswap.sol:PixelcoinLiquidity",
						"label": "pixelcoin",
						"offset": 0,
						"slot": "1",
						"type": "t_address"
					}
				],
				"types": {
					"t_address": {
						"encoding": "inplace",
						"label": "address",
						"numberOfBytes": "20"
					},
					"t_contract(IUniswapV2Router02)28": {
						"encoding": "inplace",
						"label": "contract IUniswapV2Router02",
						"numberOfBytes": "20"
					}
				}
			},
			"userdoc": {
				"kind": "user",
				"methods": {},
				"version": 1
			}
		}
	}
}