{
	"contracts/PixelcoinMergeChain.sol": {
		"PixelcoinMergeChain": {
			"abi": [
				{
					"inputs": [],
					"stateMutability": "nonpayable",
					"type": "constructor"
				},
				{
					"anonymous": false,
					"inputs": [
						{
							"indexed": true,
							"internalType": "uint256",
							"name": "id",
							"type": "uint256"
						},
						{
							"indexed": true,
							"internalType": "address",
							"name": "miner",
							"type": "address"
						},
						{
							"indexed": false,
							"internalType": "bytes32",
							"name": "hash",
							"type": "bytes32"
						}
					],
					"name": "BlockMined",
					"type": "event"
				},
				{
					"inputs": [
						{
							"internalType": "string",
							"name": "_data",
							"type": "string"
						}
					],
					"name": "addBlock",
					"outputs": [],
					"stateMutability": "nonpayable",
					"type": "function"
				},
				{
					"inputs": [
						{
							"internalType": "uint256",
							"name": "",
							"type": "uint256"
						}
					],
					"name": "blocks",
					"outputs": [
						{
							"internalType": "uint256",
							"name": "id",
							"type": "uint256"
						},
						{
							"internalType": "bytes32",
							"name": "prevHash",
							"type": "bytes32"
						},
						{
							"internalType": "bytes32",
							"name": "blockHash",
							"type": "bytes32"
						},
						{
							"internalType": "address",
							"name": "miner",
							"type": "address"
						},
						{
							"internalType": "string",
							"name": "data",
							"type": "string"
						},
						{
							"internalType": "uint256",
							"name": "timestamp",
							"type": "uint256"
						}
					],
					"stateMutability": "view",
					"type": "function"
				},
				{
					"inputs": [
						{
							"internalType": "uint256",
							"name": "blockId",
							"type": "uint256"
						}
					],
					"name": "getBlock",
					"outputs": [
						{
							"internalType": "uint256",
							"name": "id",
							"type": "uint256"
						},
						{
							"internalType": "bytes32",
							"name": "prevHash",
							"type": "bytes32"
						},
						{
							"internalType": "bytes32",
							"name": "blockHash",
							"type": "bytes32"
						},
						{
							"internalType": "address",
							"name": "miner",
							"type": "address"
						},
						{
							"internalType": "string",
							"name": "data",
							"type": "string"
						},
						{
							"internalType": "uint256",
							"name": "timestamp",
							"type": "uint256"
						}
					],
					"stateMutability": "view",
					"type": "function"
				},
				{
					"inputs": [],
					"name": "getChainLength",
					"outputs": [
						{
							"internalType": "uint256",
							"name": "",
							"type": "uint256"
						}
					],
					"stateMutability": "view",
					"type": "function"
				},
				{
					"inputs": [],
					"name": "getLatestBlockHash",
					"outputs": [
						{
							"internalType": "bytes32",
							"name": "",
							"type": "bytes32"
						}
					],
					"stateMutability": "view",
					"type": "function"
				},
				{
					"inputs": [],
					"name": "latestBlockId",
					"outputs": [
						{
							"internalType": "uint256",
							"name": "",
							"type": "uint256"
						}
					],
					"stateMutability": "view",
					"type": "function"
				}
			],
			"devdoc": {
				"kind": "dev",
				"methods": {},
				"version": 1
			},
			"evm": {
				"assembly": "    /* \"contracts/PixelcoinMergeChain.sol\":58:2055  contract PixelcoinMergeChain {... */\n  mstore(0x40, 0x80)\n    /* \"contracts/PixelcoinMergeChain.sol\":423:882  constructor() {... */\n  callvalue\n  dup1\n  iszero\n  tag_1\n  jumpi\n  revert(0x00, 0x00)\ntag_1:\n  pop\n    /* \"contracts/PixelcoinMergeChain.sol\":472:491  bytes32 genesisHash */\n  0x00\n    /* \"contracts/PixelcoinMergeChain.sol\":521:536  block.timestamp */\n  timestamp\n    /* \"contracts/PixelcoinMergeChain.sol\":538:548  msg.sender */\n  caller\n    /* \"contracts/PixelcoinMergeChain.sol\":504:566  abi.encodePacked(block.timestamp, msg.sender, \"Genesis Block\") */\n  add(0x20, mload(0x40))\n  tag_4\n  swap3\n  swap2\n  swap1\n  tag_5\n  jump\t// in\ntag_4:\n  mload(0x40)\n  0x20\n  dup2\n  dup4\n  sub\n  sub\n  dup2\n  mstore\n  swap1\n  0x40\n  mstore\n    /* \"contracts/PixelcoinMergeChain.sol\":494:567  keccak256(abi.encodePacked(block.timestamp, msg.sender, \"Genesis Block\")) */\n  dup1\n  mload\n  swap1\n  0x20\n  add\n  keccak256\n    /* \"contracts/PixelcoinMergeChain.sol\":472:567  bytes32 genesisHash = keccak256(abi.encodePacked(block.timestamp, msg.sender, \"Genesis Block\")) */\n  swap1\n  pop\n    /* \"contracts/PixelcoinMergeChain.sol\":589:794  Block({... */\n  mload(0x40)\n  dup1\n  0xc0\n  add\n  0x40\n  mstore\n  dup1\n    /* \"contracts/PixelcoinMergeChain.sol\":613:614  0 */\n  0x00\n    /* \"contracts/PixelcoinMergeChain.sol\":589:794  Block({... */\n  dup2\n  mstore\n  0x20\n  add\n    /* \"contracts/PixelcoinMergeChain.sol\":638:641  0x0 */\n  0x00\n    /* \"contracts/PixelcoinMergeChain.sol\":589:794  Block({... */\n  0x00\n  shl\n  dup2\n  mstore\n  0x20\n  add\n    /* \"contracts/PixelcoinMergeChain.sol\":666:677  genesisHash */\n  dup3\n    /* \"contracts/PixelcoinMergeChain.sol\":589:794  Block({... */\n  dup2\n  mstore\n  0x20\n  add\n    /* \"contracts/PixelcoinMergeChain.sol\":698:708  msg.sender */\n  caller\n    /* \"contracts/PixelcoinMergeChain.sol\":589:794  Block({... */\n  0xffffffffffffffffffffffffffffffffffffffff\n  and\n  dup2\n  mstore\n  0x20\n  add\n  mload(0x40)\n  dup1\n  0x40\n  add\n  0x40\n  mstore\n  dup1\n  0x0d\n  dup2\n  mstore\n  0x20\n  add\n  0x47656e6573697320426c6f636b00000000000000000000000000000000000000\n  dup2\n  mstore\n  pop\n  dup2\n  mstore\n  0x20\n  add\n    /* \"contracts/PixelcoinMergeChain.sol\":768:783  block.timestamp */\n  timestamp\n    /* \"contracts/PixelcoinMergeChain.sol\":589:794  Block({... */\n  dup2\n  mstore\n  pop\n    /* \"contracts/PixelcoinMergeChain.sol\":577:583  blocks */\n  0x00\n    /* \"contracts/PixelcoinMergeChain.sol\":577:586  blocks[0] */\n  0x00\n    /* \"contracts/PixelcoinMergeChain.sol\":584:585  0 */\n  0x00\n    /* \"contracts/PixelcoinMergeChain.sol\":577:586  blocks[0] */\n  dup2\n  mstore\n  0x20\n  add\n  swap1\n  dup2\n  mstore\n  0x20\n  add\n  0x00\n  keccak256\n    /* \"contracts/PixelcoinMergeChain.sol\":577:794  blocks[0] = Block({... */\n  0x00\n  dup3\n  add\n  mload\n  dup2\n  0x00\n  add\n  sstore\n  0x20\n  dup3\n  add\n  mload\n  dup2\n  0x01\n  add\n  sstore\n  0x40\n  dup3\n  add\n  mload\n  dup2\n  0x02\n  add\n  sstore\n  0x60\n  dup3\n  add\n  mload\n  dup2\n  0x03\n  add\n  exp(0x0100, 0x00)\n  dup2\n  sload\n  dup2\n  0xffffffffffffffffffffffffffffffffffffffff\n  mul\n  not\n  and\n  swap1\n  dup4\n  0xffffffffffffffffffffffffffffffffffffffff\n  and\n  mul\n  or\n  swap1\n  sstore\n  pop\n  0x80\n  dup3\n  add\n  mload\n  dup2\n  0x04\n  add\n  swap1\n  dup2\n  tag_6\n  swap2\n  swap1\n  tag_7\n  jump\t// in\ntag_6:\n  pop\n  0xa0\n  dup3\n  add\n  mload\n  dup2\n  0x05\n  add\n  sstore\n  swap1\n  pop\n  pop\n    /* \"contracts/PixelcoinMergeChain.sol\":820:821  0 */\n  0x00\n    /* \"contracts/PixelcoinMergeChain.sol\":804:817  latestBlockId */\n  0x01\n    /* \"contracts/PixelcoinMergeChain.sol\":804:821  latestBlockId = 0 */\n  dup2\n  swap1\n  sstore\n  pop\n    /* \"contracts/PixelcoinMergeChain.sol\":851:861  msg.sender */\n  caller\n    /* \"contracts/PixelcoinMergeChain.sol\":837:875  BlockMined(0, msg.sender, genesisHash) */\n  0xffffffffffffffffffffffffffffffffffffffff\n  and\n    /* \"contracts/PixelcoinMergeChain.sol\":848:849  0 */\n  0x00\n    /* \"contracts/PixelcoinMergeChain.sol\":837:875  BlockMined(0, msg.sender, genesisHash) */\n  0x84c1f3580ae009522c870c7efc2c3dc362bb7c75603ba15b642a5f0f95408643\n    /* \"contracts/PixelcoinMergeChain.sol\":863:874  genesisHash */\n  dup4\n    /* \"contracts/PixelcoinMergeChain.sol\":837:875  BlockMined(0, msg.sender, genesisHash) */\n  mload(0x40)\n  tag_8\n  swap2\n  swap1\n  tag_9\n  jump\t// in\ntag_8:\n  mload(0x40)\n  dup1\n  swap2\n  sub\n  swap1\n  log3\n    /* \"contracts/PixelcoinMergeChain.sol\":437:882  {... */\n  pop\n    /* \"contracts/PixelcoinMergeChain.sol\":58:2055  contract PixelcoinMergeChain {... */\n  jump(tag_10)\n    /* \"#utility.yul\":7:84   */\ntag_11:\n    /* \"#utility.yul\":44:51   */\n  0x00\n    /* \"#utility.yul\":73:78   */\n  dup2\n    /* \"#utility.yul\":62:78   */\n  swap1\n  pop\n    /* \"#utility.yul\":7:84   */\n  swap2\n  swap1\n  pop\n  jump\t// out\n    /* \"#utility.yul\":90:169   */\ntag_12:\n    /* \"#utility.yul\":129:136   */\n  0x00\n    /* \"#utility.yul\":158:163   */\n  dup2\n    /* \"#utility.yul\":147:163   */\n  swap1\n  pop\n    /* \"#utility.yul\":90:169   */\n  swap2\n  swap1\n  pop\n  jump\t// out\n    /* \"#utility.yul\":175:332   */\ntag_13:\n    /* \"#utility.yul\":280:325   */\n  tag_48\n    /* \"#utility.yul\":300:324   */\n  tag_49\n    /* \"#utility.yul\":318:323   */\n  dup3\n    /* \"#utility.yul\":300:324   */\n  tag_11\n  jump\t// in\ntag_49:\n    /* \"#utility.yul\":280:325   */\n  tag_12\n  jump\t// in\ntag_48:\n    /* \"#utility.yul\":275:278   */\n  dup3\n    /* \"#utility.yul\":268:326   */\n  mstore\n    /* \"#utility.yul\":175:332   */\n  pop\n  pop\n  jump\t// out\n    /* \"#utility.yul\":338:464   */\ntag_14:\n    /* \"#utility.yul\":375:382   */\n  0x00\n    /* \"#utility.yul\":415:457   */\n  0xffffffffffffffffffffffffffffffffffffffff\n    /* \"#utility.yul\":408:413   */\n  dup3\n    /* \"#utility.yul\":404:458   */\n  and\n    /* \"#utility.yul\":393:458   */\n  swap1\n  pop\n    /* \"#utility.yul\":338:464   */\n  swap2\n  swap1\n  pop\n  jump\t// out\n    /* \"#utility.yul\":470:566   */\ntag_15:\n    /* \"#utility.yul\":507:514   */\n  0x00\n    /* \"#utility.yul\":536:560   */\n  tag_52\n    /* \"#utility.yul\":554:559   */\n  dup3\n    /* \"#utility.yul\":536:560   */\n  tag_14\n  jump\t// in\ntag_52:\n    /* \"#utility.yul\":525:560   */\n  swap1\n  pop\n    /* \"#utility.yul\":470:566   */\n  swap2\n  swap1\n  pop\n  jump\t// out\n    /* \"#utility.yul\":572:666   */\ntag_16:\n    /* \"#utility.yul\":605:613   */\n  0x00\n    /* \"#utility.yul\":653:658   */\n  dup2\n    /* \"#utility.yul\":649:651   */\n  0x60\n    /* \"#utility.yul\":645:659   */\n  shl\n    /* \"#utility.yul\":624:659   */\n  swap1\n  pop\n    /* \"#utility.yul\":572:666   */\n  swap2\n  swap1\n  pop\n  jump\t// out\n    /* \"#utility.yul\":672:766   */\ntag_17:\n    /* \"#utility.yul\":711:718   */\n  0x00\n    /* \"#utility.yul\":740:760   */\n  tag_55\n    /* \"#utility.yul\":754:759   */\n  dup3\n    /* \"#utility.yul\":740:760   */\n  tag_16\n  jump\t// in\ntag_55:\n    /* \"#utility.yul\":729:760   */\n  swap1\n  pop\n    /* \"#utility.yul\":672:766   */\n  swap2\n  swap1\n  pop\n  jump\t// out\n    /* \"#utility.yul\":772:872   */\ntag_18:\n    /* \"#utility.yul\":811:818   */\n  0x00\n    /* \"#utility.yul\":840:866   */\n  tag_57\n    /* \"#utility.yul\":860:865   */\n  dup3\n    /* \"#utility.yul\":840:866   */\n  tag_17\n  jump\t// in\ntag_57:\n    /* \"#utility.yul\":829:866   */\n  swap1\n  pop\n    /* \"#utility.yul\":772:872   */\n  swap2\n  swap1\n  pop\n  jump\t// out\n    /* \"#utility.yul\":878:1035   */\ntag_19:\n    /* \"#utility.yul\":983:1028   */\n  tag_59\n    /* \"#utility.yul\":1003:1027   */\n  tag_60\n    /* \"#utility.yul\":1021:1026   */\n  dup3\n    /* \"#utility.yul\":1003:1027   */\n  tag_15\n  jump\t// in\ntag_60:\n    /* \"#utility.yul\":983:1028   */\n  tag_18\n  jump\t// in\ntag_59:\n    /* \"#utility.yul\":978:981   */\n  dup3\n    /* \"#utility.yul\":971:1029   */\n  mstore\n    /* \"#utility.yul\":878:1035   */\n  pop\n  pop\n  jump\t// out\n    /* \"#utility.yul\":1041:1189   */\ntag_20:\n    /* \"#utility.yul\":1143:1154   */\n  0x00\n    /* \"#utility.yul\":1180:1183   */\n  dup2\n    /* \"#utility.yul\":1165:1183   */\n  swap1\n  pop\n    /* \"#utility.yul\":1041:1189   */\n  swap3\n  swap2\n  pop\n  pop\n  jump\t// out\n    /* \"#utility.yul\":1195:1358   */\ntag_21:\n    /* \"#utility.yul\":1335:1350   */\n  0x47656e6573697320426c6f636b00000000000000000000000000000000000000\n    /* \"#utility.yul\":1331:1332   */\n  0x00\n    /* \"#utility.yul\":1323:1329   */\n  dup3\n    /* \"#utility.yul\":1319:1333   */\n  add\n    /* \"#utility.yul\":1312:1351   */\n  mstore\n    /* \"#utility.yul\":1195:1358   */\n  pop\n  jump\t// out\n    /* \"#utility.yul\":1364:1766   */\ntag_22:\n    /* \"#utility.yul\":1524:1527   */\n  0x00\n    /* \"#utility.yul\":1545:1630   */\n  tag_64\n    /* \"#utility.yul\":1627:1629   */\n  0x0d\n    /* \"#utility.yul\":1622:1625   */\n  dup4\n    /* \"#utility.yul\":1545:1630   */\n  tag_20\n  jump\t// in\ntag_64:\n    /* \"#utility.yul\":1538:1630   */\n  swap2\n  pop\n    /* \"#utility.yul\":1639:1732   */\n  tag_65\n    /* \"#utility.yul\":1728:1731   */\n  dup3\n    /* \"#utility.yul\":1639:1732   */\n  tag_21\n  jump\t// in\ntag_65:\n    /* \"#utility.yul\":1757:1759   */\n  0x0d\n    /* \"#utility.yul\":1752:1755   */\n  dup3\n    /* \"#utility.yul\":1748:1760   */\n  add\n    /* \"#utility.yul\":1741:1760   */\n  swap1\n  pop\n    /* \"#utility.yul\":1364:1766   */\n  swap2\n  swap1\n  pop\n  jump\t// out\n    /* \"#utility.yul\":1772:2435   */\ntag_5:\n    /* \"#utility.yul\":2013:2016   */\n  0x00\n    /* \"#utility.yul\":2028:2103   */\n  tag_67\n    /* \"#utility.yul\":2099:2102   */\n  dup3\n    /* \"#utility.yul\":2090:2096   */\n  dup6\n    /* \"#utility.yul\":2028:2103   */\n  tag_13\n  jump\t// in\ntag_67:\n    /* \"#utility.yul\":2128:2130   */\n  0x20\n    /* \"#utility.yul\":2123:2126   */\n  dup3\n    /* \"#utility.yul\":2119:2131   */\n  add\n    /* \"#utility.yul\":2112:2131   */\n  swap2\n  pop\n    /* \"#utility.yul\":2141:2216   */\n  tag_68\n    /* \"#utility.yul\":2212:2215   */\n  dup3\n    /* \"#utility.yul\":2203:2209   */\n  dup5\n    /* \"#utility.yul\":2141:2216   */\n  tag_19\n  jump\t// in\ntag_68:\n    /* \"#utility.yul\":2241:2243   */\n  0x14\n    /* \"#utility.yul\":2236:2239   */\n  dup3\n    /* \"#utility.yul\":2232:2244   */\n  add\n    /* \"#utility.yul\":2225:2244   */\n  swap2\n  pop\n    /* \"#utility.yul\":2261:2409   */\n  tag_69\n    /* \"#utility.yul\":2405:2408   */\n  dup3\n    /* \"#utility.yul\":2261:2409   */\n  tag_22\n  jump\t// in\ntag_69:\n    /* \"#utility.yul\":2254:2409   */\n  swap2\n  pop\n    /* \"#utility.yul\":2426:2429   */\n  dup2\n    /* \"#utility.yul\":2419:2429   */\n  swap1\n  pop\n    /* \"#utility.yul\":1772:2435   */\n  swap4\n  swap3\n  pop\n  pop\n  pop\n  jump\t// out\n    /* \"#utility.yul\":2441:2540   */\ntag_23:\n    /* \"#utility.yul\":2493:2499   */\n  0x00\n    /* \"#utility.yul\":2527:2532   */\n  dup2\n    /* \"#utility.yul\":2521:2533   */\n  mload\n    /* \"#utility.yul\":2511:2533   */\n  swap1\n  pop\n    /* \"#utility.yul\":2441:2540   */\n  swap2\n  swap1\n  pop\n  jump\t// out\n    /* \"#utility.yul\":2546:2726   */\ntag_24:\n    /* \"#utility.yul\":2594:2671   */\n  0x4e487b7100000000000000000000000000000000000000000000000000000000\n    /* \"#utility.yul\":2591:2592   */\n  0x00\n    /* \"#utility.yul\":2584:2672   */\n  mstore\n    /* \"#utility.yul\":2691:2695   */\n  0x41\n    /* \"#utility.yul\":2688:2689   */\n  0x04\n    /* \"#utility.yul\":2681:2696   */\n  mstore\n    /* \"#utility.yul\":2715:2719   */\n  0x24\n    /* \"#utility.yul\":2712:2713   */\n  0x00\n    /* \"#utility.yul\":2705:2720   */\n  revert\n    /* \"#utility.yul\":2732:2912   */\ntag_25:\n    /* \"#utility.yul\":2780:2857   */\n  0x4e487b7100000000000000000000000000000000000000000000000000000000\n    /* \"#utility.yul\":2777:2778   */\n  0x00\n    /* \"#utility.yul\":2770:2858   */\n  mstore\n    /* \"#utility.yul\":2877:2881   */\n  0x22\n    /* \"#utility.yul\":2874:2875   */\n  0x04\n    /* \"#utility.yul\":2867:2882   */\n  mstore\n    /* \"#utility.yul\":2901:2905   */\n  0x24\n    /* \"#utility.yul\":2898:2899   */\n  0x00\n    /* \"#utility.yul\":2891:2906   */\n  revert\n    /* \"#utility.yul\":2918:3238   */\ntag_26:\n    /* \"#utility.yul\":2962:2968   */\n  0x00\n    /* \"#utility.yul\":2999:3000   */\n  0x02\n    /* \"#utility.yul\":2993:2997   */\n  dup3\n    /* \"#utility.yul\":2989:3001   */\n  div\n    /* \"#utility.yul\":2979:3001   */\n  swap1\n  pop\n    /* \"#utility.yul\":3046:3047   */\n  0x01\n    /* \"#utility.yul\":3040:3044   */\n  dup3\n    /* \"#utility.yul\":3036:3048   */\n  and\n    /* \"#utility.yul\":3067:3085   */\n  dup1\n    /* \"#utility.yul\":3057:3138   */\n  tag_74\n  jumpi\n    /* \"#utility.yul\":3123:3127   */\n  0x7f\n    /* \"#utility.yul\":3115:3121   */\n  dup3\n    /* \"#utility.yul\":3111:3128   */\n  and\n    /* \"#utility.yul\":3101:3128   */\n  swap2\n  pop\n    /* \"#utility.yul\":3057:3138   */\ntag_74:\n    /* \"#utility.yul\":3185:3187   */\n  0x20\n    /* \"#utility.yul\":3177:3183   */\n  dup3\n    /* \"#utility.yul\":3174:3188   */\n  lt\n    /* \"#utility.yul\":3154:3172   */\n  dup2\n    /* \"#utility.yul\":3151:3189   */\n  sub\n    /* \"#utility.yul\":3148:3232   */\n  tag_75\n  jumpi\n    /* \"#utility.yul\":3204:3222   */\n  tag_76\n  tag_25\n  jump\t// in\ntag_76:\n    /* \"#utility.yul\":3148:3232   */\ntag_75:\n    /* \"#utility.yul\":2969:3238   */\n  pop\n    /* \"#utility.yul\":2918:3238   */\n  swap2\n  swap1\n  pop\n  jump\t// out\n    /* \"#utility.yul\":3244:3385   */\ntag_27:\n    /* \"#utility.yul\":3293:3297   */\n  0x00\n    /* \"#utility.yul\":3316:3319   */\n  dup2\n    /* \"#utility.yul\":3308:3319   */\n  swap1\n  pop\n    /* \"#utility.yul\":3339:3342   */\n  dup2\n    /* \"#utility.yul\":3336:3337   */\n  0x00\n    /* \"#utility.yul\":3329:3343   */\n  mstore\n    /* \"#utility.yul\":3373:3377   */\n  0x20\n    /* \"#utility.yul\":3370:3371   */\n  0x00\n    /* \"#utility.yul\":3360:3378   */\n  keccak256\n    /* \"#utility.yul\":3352:3378   */\n  swap1\n  pop\n    /* \"#utility.yul\":3244:3385   */\n  swap2\n  swap1\n  pop\n  jump\t// out\n    /* \"#utility.yul\":3391:3484   */\ntag_28:\n    /* \"#utility.yul\":3428:3434   */\n  0x00\n    /* \"#utility.yul\":3475:3477   */\n  0x20\n    /* \"#utility.yul\":3470:3472   */\n  0x1f\n    /* \"#utility.yul\":3463:3468   */\n  dup4\n    /* \"#utility.yul\":3459:3473   */\n  add\n    /* \"#utility.yul\":3455:3478   */\n  div\n    /* \"#utility.yul\":3445:3478   */\n  swap1\n  pop\n    /* \"#utility.yul\":3391:3484   */\n  swap2\n  swap1\n  pop\n  jump\t// out\n    /* \"#utility.yul\":3490:3597   */\ntag_29:\n    /* \"#utility.yul\":3534:3542   */\n  0x00\n    /* \"#utility.yul\":3584:3589   */\n  dup3\n    /* \"#utility.yul\":3578:3582   */\n  dup3\n    /* \"#utility.yul\":3574:3590   */\n  shl\n    /* \"#utility.yul\":3553:3590   */\n  swap1\n  pop\n    /* \"#utility.yul\":3490:3597   */\n  swap3\n  swap2\n  pop\n  pop\n  jump\t// out\n    /* \"#utility.yul\":3603:3996   */\ntag_30:\n    /* \"#utility.yul\":3672:3678   */\n  0x00\n    /* \"#utility.yul\":3722:3723   */\n  0x08\n    /* \"#utility.yul\":3710:3720   */\n  dup4\n    /* \"#utility.yul\":3706:3724   */\n  mul\n    /* \"#utility.yul\":3745:3842   */\n  tag_81\n    /* \"#utility.yul\":3775:3841   */\n  0xffffffffffffffffffffffffffffffffffffffffffffffffffffffffffffffff\n    /* \"#utility.yul\":3764:3773   */\n  dup3\n    /* \"#utility.yul\":3745:3842   */\n  tag_29\n  jump\t// in\ntag_81:\n    /* \"#utility.yul\":3863:3902   */\n  tag_82\n    /* \"#utility.yul\":3893:3901   */\n  dup7\n    /* \"#utility.yul\":3882:3891   */\n  dup4\n    /* \"#utility.yul\":3863:3902   */\n  tag_29\n  jump\t// in\ntag_82:\n    /* \"#utility.yul\":3851:3902   */\n  swap6\n  pop\n    /* \"#utility.yul\":3935:3939   */\n  dup1\n    /* \"#utility.yul\":3931:3940   */\n  not\n    /* \"#utility.yul\":3924:3929   */\n  dup5\n    /* \"#utility.yul\":3920:3941   */\n  and\n    /* \"#utility.yul\":3911:3941   */\n  swap4\n  pop\n    /* \"#utility.yul\":3984:3988   */\n  dup1\n    /* \"#utility.yul\":3974:3982   */\n  dup7\n    /* \"#utility.yul\":3970:3989   */\n  and\n    /* \"#utility.yul\":3963:3968   */\n  dup5\n    /* \"#utility.yul\":3960:3990   */\n  or\n    /* \"#utility.yul\":3950:3990   */\n  swap3\n  pop\n    /* \"#utility.yul\":3679:3996   */\n  pop\n  pop\n    /* \"#utility.yul\":3603:3996   */\n  swap4\n  swap3\n  pop\n  pop\n  pop\n  jump\t// out\n    /* \"#utility.yul\":4002:4062   */\ntag_31:\n    /* \"#utility.yul\":4030:4033   */\n  0x00\n    /* \"#utility.yul\":4051:4056   */\n  dup2\n    /* \"#utility.yul\":4044:4056   */\n  swap1\n  pop\n    /* \"#utility.yul\":4002:4062   */\n  swap2\n  swap1\n  pop\n  jump\t// out\n    /* \"#utility.yul\":4068:4210   */\ntag_32:\n    /* \"#utility.yul\":4118:4127   */\n  0x00\n    /* \"#utility.yul\":4151:4204   */\n  tag_85\n    /* \"#utility.yul\":4169:4203   */\n  tag_86\n    /* \"#utility.yul\":4178:4202   */\n  tag_87\n    /* \"#utility.yul\":4196:4201   */\n  dup5\n    /* \"#utility.yul\":4178:4202   */\n  tag_11\n  jump\t// in\ntag_87:\n    /* \"#utility.yul\":4169:4203   */\n  tag_31\n  jump\t// in\ntag_86:\n    /* \"#utility.yul\":4151:4204   */\n  tag_11\n  jump\t// in\ntag_85:\n    /* \"#utility.yul\":4138:4204   */\n  swap1\n  pop\n    /* \"#utility.yul\":4068:4210   */\n  swap2\n  swap1\n  pop\n  jump\t// out\n    /* \"#utility.yul\":4216:4291   */\ntag_33:\n    /* \"#utility.yul\":4259:4262   */\n  0x00\n    /* \"#utility.yul\":4280:4285   */\n  dup2\n    /* \"#utility.yul\":4273:4285   */\n  swap1\n  pop\n    /* \"#utility.yul\":4216:4291   */\n  swap2\n  swap1\n  pop\n  jump\t// out\n    /* \"#utility.yul\":4297:4566   */\ntag_34:\n    /* \"#utility.yul\":4407:4446   */\n  tag_90\n    /* \"#utility.yul\":4438:4445   */\n  dup4\n    /* \"#utility.yul\":4407:4446   */\n  tag_32\n  jump\t// in\ntag_90:\n    /* \"#utility.yul\":4468:4559   */\n  tag_91\n    /* \"#utility.yul\":4517:4558   */\n  tag_92\n    /* \"#utility.yul\":4541:4557   */\n  dup3\n    /* \"#utility.yul\":4517:4558   */\n  tag_33\n  jump\t// in\ntag_92:\n    /* \"#utility.yul\":4509:4515   */\n  dup5\n    /* \"#utility.yul\":4502:4506   */\n  dup5\n    /* \"#utility.yul\":4496:4507   */\n  sload\n    /* \"#utility.yul\":4468:4559   */\n  tag_30\n  jump\t// in\ntag_91:\n    /* \"#utility.yul\":4462:4466   */\n  dup3\n    /* \"#utility.yul\":4455:4560   */\n  sstore\n    /* \"#utility.yul\":4373:4566   */\n  pop\n    /* \"#utility.yul\":4297:4566   */\n  pop\n  pop\n  pop\n  jump\t// out\n    /* \"#utility.yul\":4572:4645   */\ntag_35:\n    /* \"#utility.yul\":4617:4620   */\n  0x00\n    /* \"#utility.yul\":4638:4639   */\n  0x00\n    /* \"#utility.yul\":4631:4639   */\n  swap1\n  pop\n    /* \"#utility.yul\":4572:4645   */\n  swap1\n  jump\t// out\n    /* \"#utility.yul\":4651:4840   */\ntag_36:\n    /* \"#utility.yul\":4728:4760   */\n  tag_95\n  tag_35\n  jump\t// in\ntag_95:\n    /* \"#utility.yul\":4769:4834   */\n  tag_96\n    /* \"#utility.yul\":4827:4833   */\n  dup2\n    /* \"#utility.yul\":4819:4825   */\n  dup5\n    /* \"#utility.yul\":4813:4817   */\n  dup5\n    /* \"#utility.yul\":4769:4834   */\n  tag_34\n  jump\t// in\ntag_96:\n    /* \"#utility.yul\":4704:4840   */\n  pop\n    /* \"#utility.yul\":4651:4840   */\n  pop\n  pop\n  jump\t// out\n    /* \"#utility.yul\":4846:5032   */\ntag_37:\n    /* \"#utility.yul\":4906:5026   */\ntag_98:\n    /* \"#utility.yul\":4923:4926   */\n  dup2\n    /* \"#utility.yul\":4916:4921   */\n  dup2\n    /* \"#utility.yul\":4913:4927   */\n  lt\n    /* \"#utility.yul\":4906:5026   */\n  iszero\n  tag_100\n  jumpi\n    /* \"#utility.yul\":4977:5016   */\n  tag_101\n    /* \"#utility.yul\":5014:5015   */\n  0x00\n    /* \"#utility.yul\":5007:5012   */\n  dup3\n    /* \"#utility.yul\":4977:5016   */\n  tag_36\n  jump\t// in\ntag_101:\n    /* \"#utility.yul\":4950:4951   */\n  0x01\n    /* \"#utility.yul\":4943:4948   */\n  dup2\n    /* \"#utility.yul\":4939:4952   */\n  add\n    /* \"#utility.yul\":4930:4952   */\n  swap1\n  pop\n    /* \"#utility.yul\":4906:5026   */\n  jump(tag_98)\ntag_100:\n    /* \"#utility.yul\":4846:5032   */\n  pop\n  pop\n  jump\t// out\n    /* \"#utility.yul\":5038:5581   */\ntag_38:\n    /* \"#utility.yul\":5139:5141   */\n  0x1f\n    /* \"#utility.yul\":5134:5137   */\n  dup3\n    /* \"#utility.yul\":5131:5142   */\n  gt\n    /* \"#utility.yul\":5128:5574   */\n  iszero\n  tag_103\n  jumpi\n    /* \"#utility.yul\":5173:5211   */\n  tag_104\n    /* \"#utility.yul\":5205:5210   */\n  dup2\n    /* \"#utility.yul\":5173:5211   */\n  tag_27\n  jump\t// in\ntag_104:\n    /* \"#utility.yul\":5257:5286   */\n  tag_105\n    /* \"#utility.yul\":5275:5285   */\n  dup5\n    /* \"#utility.yul\":5257:5286   */\n  tag_28\n  jump\t// in\ntag_105:\n    /* \"#utility.yul\":5247:5255   */\n  dup2\n    /* \"#utility.yul\":5243:5287   */\n  add\n    /* \"#utility.yul\":5440:5442   */\n  0x20\n    /* \"#utility.yul\":5428:5438   */\n  dup6\n    /* \"#utility.yul\":5425:5443   */\n  lt\n    /* \"#utility.yul\":5422:5471   */\n  iszero\n  tag_106\n  jumpi\n    /* \"#utility.yul\":5461:5469   */\n  dup2\n    /* \"#utility.yul\":5446:5469   */\n  swap1\n  pop\n    /* \"#utility.yul\":5422:5471   */\ntag_106:\n    /* \"#utility.yul\":5484:5564   */\n  tag_107\n    /* \"#utility.yul\":5540:5562   */\n  tag_108\n    /* \"#utility.yul\":5558:5561   */\n  dup6\n    /* \"#utility.yul\":5540:5562   */\n  tag_28\n  jump\t// in\ntag_108:\n    /* \"#utility.yul\":5530:5538   */\n  dup4\n    /* \"#utility.yul\":5526:5563   */\n  add\n    /* \"#utility.yul\":5513:5524   */\n  dup3\n    /* \"#utility.yul\":5484:5564   */\n  tag_37\n  jump\t// in\ntag_107:\n    /* \"#utility.yul\":5143:5574   */\n  pop\n  pop\n    /* \"#utility.yul\":5128:5574   */\ntag_103:\n    /* \"#utility.yul\":5038:5581   */\n  pop\n  pop\n  pop\n  jump\t// out\n    /* \"#utility.yul\":5587:5704   */\ntag_39:\n    /* \"#utility.yul\":5641:5649   */\n  0x00\n    /* \"#utility.yul\":5691:5696   */\n  dup3\n    /* \"#utility.yul\":5685:5689   */\n  dup3\n    /* \"#utility.yul\":5681:5697   */\n  shr\n    /* \"#utility.yul\":5660:5697   */\n  swap1\n  pop\n    /* \"#utility.yul\":5587:5704   */\n  swap3\n  swap2\n  pop\n  pop\n  jump\t// out\n    /* \"#utility.yul\":5710:5879   */\ntag_40:\n    /* \"#utility.yul\":5754:5760   */\n  0x00\n    /* \"#utility.yul\":5787:5838   */\n  tag_111\n    /* \"#utility.yul\":5835:5836   */\n  0x00\n    /* \"#utility.yul\":5831:5837   */\n  not\n    /* \"#utility.yul\":5823:5828   */\n  dup5\n    /* \"#utility.yul\":5820:5821   */\n  0x08\n    /* \"#utility.yul\":5816:5829   */\n  mul\n    /* \"#utility.yul\":5787:5838   */\n  tag_39\n  jump\t// in\ntag_111:\n    /* \"#utility.yul\":5783:5839   */\n  not\n    /* \"#utility.yul\":5868:5872   */\n  dup1\n    /* \"#utility.yul\":5862:5866   */\n  dup4\n    /* \"#utility.yul\":5858:5873   */\n  and\n    /* \"#utility.yul\":5848:5873   */\n  swap2\n  pop\n    /* \"#utility.yul\":5761:5879   */\n  pop\n    /* \"#utility.yul\":5710:5879   */\n  swap3\n  swap2\n  pop\n  pop\n  jump\t// out\n    /* \"#utility.yul\":5884:6179   */\ntag_41:\n    /* \"#utility.yul\":5960:5964   */\n  0x00\n    /* \"#utility.yul\":6106:6135   */\n  tag_113\n    /* \"#utility.yul\":6131:6134   */\n  dup4\n    /* \"#utility.yul\":6125:6129   */\n  dup4\n    /* \"#utility.yul\":6106:6135   */\n  tag_40\n  jump\t// in\ntag_113:\n    /* \"#utility.yul\":6098:6135   */\n  swap2\n  pop\n    /* \"#utility.yul\":6168:6171   */\n  dup3\n    /* \"#utility.yul\":6165:6166   */\n  0x02\n    /* \"#utility.yul\":6161:6172   */\n  mul\n    /* \"#utility.yul\":6155:6159   */\n  dup3\n    /* \"#utility.yul\":6152:6173   */\n  or\n    /* \"#utility.yul\":6144:6173   */\n  swap1\n  pop\n    /* \"#utility.yul\":5884:6179   */\n  swap3\n  swap2\n  pop\n  pop\n  jump\t// out\n    /* \"#utility.yul\":6184:7579   */\ntag_7:\n    /* \"#utility.yul\":6301:6338   */\n  tag_115\n    /* \"#utility.yul\":6334:6337   */\n  dup3\n    /* \"#utility.yul\":6301:6338   */\n  tag_23\n  jump\t// in\ntag_115:\n    /* \"#utility.yul\":6403:6421   */\n  0xffffffffffffffff\n    /* \"#utility.yul\":6395:6401   */\n  dup2\n    /* \"#utility.yul\":6392:6422   */\n  gt\n    /* \"#utility.yul\":6389:6445   */\n  iszero\n  tag_116\n  jumpi\n    /* \"#utility.yul\":6425:6443   */\n  tag_117\n  tag_24\n  jump\t// in\ntag_117:\n    /* \"#utility.yul\":6389:6445   */\ntag_116:\n    /* \"#utility.yul\":6469:6507   */\n  tag_118\n    /* \"#utility.yul\":6501:6505   */\n  dup3\n    /* \"#utility.yul\":6495:6506   */\n  sload\n    /* \"#utility.yul\":6469:6507   */\n  tag_26\n  jump\t// in\ntag_118:\n    /* \"#utility.yul\":6554:6621   */\n  tag_119\n    /* \"#utility.yul\":6614:6620   */\n  dup3\n    /* \"#utility.yul\":6606:6612   */\n  dup3\n    /* \"#utility.yul\":6600:6604   */\n  dup6\n    /* \"#utility.yul\":6554:6621   */\n  tag_38\n  jump\t// in\ntag_119:\n    /* \"#utility.yul\":6648:6649   */\n  0x00\n    /* \"#utility.yul\":6672:6676   */\n  0x20\n    /* \"#utility.yul\":6659:6676   */\n  swap1\n  pop\n    /* \"#utility.yul\":6704:6706   */\n  0x1f\n    /* \"#utility.yul\":6696:6702   */\n  dup4\n    /* \"#utility.yul\":6693:6707   */\n  gt\n    /* \"#utility.yul\":6721:6722   */\n  0x01\n    /* \"#utility.yul\":6716:7334   */\n  dup2\n  eq\n  tag_121\n  jumpi\n    /* \"#utility.yul\":7378:7379   */\n  0x00\n    /* \"#utility.yul\":7395:7401   */\n  dup5\n    /* \"#utility.yul\":7392:7469   */\n  iszero\n  tag_122\n  jumpi\n    /* \"#utility.yul\":7444:7453   */\n  dup3\n    /* \"#utility.yul\":7439:7442   */\n  dup8\n    /* \"#utility.yul\":7435:7454   */\n  add\n    /* \"#utility.yul\":7429:7455   */\n  mload\n    /* \"#utility.yul\":7420:7455   */\n  swap1\n  pop\n    /* \"#utility.yul\":7392:7469   */\ntag_122:\n    /* \"#utility.yul\":7495:7562   */\n  tag_123\n    /* \"#utility.yul\":7555:7561   */\n  dup6\n    /* \"#utility.yul\":7548:7553   */\n  dup3\n    /* \"#utility.yul\":7495:7562   */\n  tag_41\n  jump\t// in\ntag_123:\n    /* \"#utility.yul\":7489:7493   */\n  dup7\n    /* \"#utility.yul\":7482:7563   */\n  sstore\n    /* \"#utility.yul\":7351:7573   */\n  pop\n    /* \"#utility.yul\":6686:7573   */\n  jump(tag_120)\n    /* \"#utility.yul\":6716:7334   */\ntag_121:\n    /* \"#utility.yul\":6768:6772   */\n  0x1f\n    /* \"#utility.yul\":6764:6773   */\n  not\n    /* \"#utility.yul\":6756:6762   */\n  dup5\n    /* \"#utility.yul\":6752:6774   */\n  and\n    /* \"#utility.yul\":6802:6839   */\n  tag_124\n    /* \"#utility.yul\":6834:6838   */\n  dup7\n    /* \"#utility.yul\":6802:6839   */\n  tag_27\n  jump\t// in\ntag_124:\n    /* \"#utility.yul\":6861:6862   */\n  0x00\n    /* \"#utility.yul\":6875:7083   */\ntag_125:\n    /* \"#utility.yul\":6889:6896   */\n  dup3\n    /* \"#utility.yul\":6886:6887   */\n  dup2\n    /* \"#utility.yul\":6883:6897   */\n  lt\n    /* \"#utility.yul\":6875:7083   */\n  iszero\n  tag_127\n  jumpi\n    /* \"#utility.yul\":6968:6977   */\n  dup5\n    /* \"#utility.yul\":6963:6966   */\n  dup10\n    /* \"#utility.yul\":6959:6978   */\n  add\n    /* \"#utility.yul\":6953:6979   */\n  mload\n    /* \"#utility.yul\":6945:6951   */\n  dup3\n    /* \"#utility.yul\":6938:6980   */\n  sstore\n    /* \"#utility.yul\":7019:7020   */\n  0x01\n    /* \"#utility.yul\":7011:7017   */\n  dup3\n    /* \"#utility.yul\":7007:7021   */\n  add\n    /* \"#utility.yul\":6997:7021   */\n  swap2\n  pop\n    /* \"#utility.yul\":7066:7068   */\n  0x20\n    /* \"#utility.yul\":7055:7064   */\n  dup6\n    /* \"#utility.yul\":7051:7069   */\n  add\n    /* \"#utility.yul\":7038:7069   */\n  swap5\n  pop\n    /* \"#utility.yul\":6912:6916   */\n  0x20\n    /* \"#utility.yul\":6909:6910   */\n  dup2\n    /* \"#utility.yul\":6905:6917   */\n  add\n    /* \"#utility.yul\":6900:6917   */\n  swap1\n  pop\n    /* \"#utility.yul\":6875:7083   */\n  jump(tag_125)\ntag_127:\n    /* \"#utility.yul\":7111:7117   */\n  dup7\n    /* \"#utility.yul\":7102:7109   */\n  dup4\n    /* \"#utility.yul\":7099:7118   */\n  lt\n    /* \"#utility.yul\":7096:7275   */\n  iszero\n  tag_128\n  jumpi\n    /* \"#utility.yul\":7169:7178   */\n  dup5\n    /* \"#utility.yul\":7164:7167   */\n  dup10\n    /* \"#utility.yul\":7160:7179   */\n  add\n    /* \"#utility.yul\":7154:7180   */\n  mload\n    /* \"#utility.yul\":7212:7260   */\n  tag_129\n    /* \"#utility.yul\":7254:7258   */\n  0x1f\n    /* \"#utility.yul\":7246:7252   */\n  dup10\n    /* \"#utility.yul\":7242:7259   */\n  and\n    /* \"#utility.yul\":7231:7240   */\n  dup3\n    /* \"#utility.yul\":7212:7260   */\n  tag_40\n  jump\t// in\ntag_129:\n    /* \"#utility.yul\":7204:7210   */\n  dup4\n    /* \"#utility.yul\":7197:7261   */\n  sstore\n    /* \"#utility.yul\":7119:7275   */\n  pop\n    /* \"#utility.yul\":7096:7275   */\ntag_128:\n    /* \"#utility.yul\":7321:7322   */\n  0x01\n    /* \"#utility.yul\":7317:7318   */\n  0x02\n    /* \"#utility.yul\":7309:7315   */\n  dup9\n    /* \"#utility.yul\":7305:7319   */\n  mul\n    /* \"#utility.yul\":7301:7323   */\n  add\n    /* \"#utility.yul\":7295:7299   */\n  dup9\n    /* \"#utility.yul\":7288:7324   */\n  sstore\n    /* \"#utility.yul\":6723:7334   */\n  pop\n  pop\n  pop\n    /* \"#utility.yul\":6686:7573   */\ntag_120:\n  pop\n    /* \"#utility.yul\":6276:7579   */\n  pop\n  pop\n  pop\n    /* \"#utility.yul\":6184:7579   */\n  pop\n  pop\n  jump\t// out\n    /* \"#utility.yul\":7585:7662   */\ntag_42:\n    /* \"#utility.yul\":7622:7629   */\n  0x00\n    /* \"#utility.yul\":7651:7656   */\n  dup2\n    /* \"#utility.yul\":7640:7656   */\n  swap1\n  pop\n    /* \"#utility.yul\":7585:7662   */\n  swap2\n  swap1\n  pop\n  jump\t// out\n    /* \"#utility.yul\":7668:7786   */\ntag_43:\n    /* \"#utility.yul\":7755:7779   */\n  tag_132\n    /* \"#utility.yul\":7773:7778   */\n  dup2\n    /* \"#utility.yul\":7755:7779   */\n  tag_42\n  jump\t// in\ntag_132:\n    /* \"#utility.yul\":7750:7753   */\n  dup3\n    /* \"#utility.yul\":7743:7780   */\n  mstore\n    /* \"#utility.yul\":7668:7786   */\n  pop\n  pop\n  jump\t// out\n    /* \"#utility.yul\":7792:8014   */\ntag_9:\n    /* \"#utility.yul\":7885:7889   */\n  0x00\n    /* \"#utility.yul\":7923:7925   */\n  0x20\n    /* \"#utility.yul\":7912:7921   */\n  dup3\n    /* \"#utility.yul\":7908:7926   */\n  add\n    /* \"#utility.yul\":7900:7926   */\n  swap1\n  pop\n    /* \"#utility.yul\":7936:8007   */\n  tag_134\n    /* \"#utility.yul\":8004:8005   */\n  0x00\n    /* \"#utility.yul\":7993:8002   */\n  dup4\n    /* \"#utility.yul\":7989:8006   */\n  add\n    /* \"#utility.yul\":7980:7986   */\n  dup5\n    /* \"#utility.yul\":7936:8007   */\n  tag_43\n  jump\t// in\ntag_134:\n    /* \"#utility.yul\":7792:8014   */\n  swap3\n  swap2\n  pop\n  pop\n  jump\t// out\n    /* \"contracts/PixelcoinMergeChain.sol\":58:2055  contract PixelcoinMergeChain {... */\ntag_10:\n  dataSize(sub_0)\n  dup1\n  dataOffset(sub_0)\n  0x00\n  codecopy\n  0x00\n  return\nstop\n\nsub_0: assembly {\n        /* \"contracts/PixelcoinMergeChain.sol\":58:2055  contract PixelcoinMergeChain {... */\n      mstore(0x40, 0x80)\n      callvalue\n      dup1\n      iszero\n      tag_1\n      jumpi\n      revert(0x00, 0x00)\n    tag_1:\n      pop\n      jumpi(tag_2, lt(calldatasize, 0x04))\n      shr(0xe0, calldataload(0x00))\n      dup1\n      0x04c07569\n      eq\n      tag_3\n      jumpi\n      dup1\n      0x42bcad28\n      eq\n      tag_4\n      jumpi\n      dup1\n      0x8f2bab07\n      eq\n      tag_5\n      jumpi\n      dup1\n      0xa4388d22\n      eq\n      tag_6\n      jumpi\n      dup1\n      0xdc6548b0\n      eq\n      tag_7\n      jumpi\n      dup1\n      0xf25b3f99\n      eq\n      tag_8\n      jumpi\n    tag_2:\n      revert(0x00, 0x00)\n        /* \"contracts/PixelcoinMergeChain.sol\":1489:1829  function getBlock(uint256 blockId) public view returns (... */\n    tag_3:\n      tag_9\n      0x04\n      dup1\n      calldatasize\n      sub\n      dup2\n      add\n      swap1\n      tag_10\n      swap2\n      swap1\n      tag_11\n      jump\t// in\n    tag_10:\n      tag_12\n      jump\t// in\n    tag_9:\n      mload(0x40)\n      tag_13\n      swap7\n      swap6\n      swap5\n      swap4\n      swap3\n      swap2\n      swap1\n      tag_14\n      jump\t// in\n    tag_13:\n      mload(0x40)\n      dup1\n      swap2\n      sub\n      swap1\n      return\n        /* \"contracts/PixelcoinMergeChain.sol\":1835:1950  function getLatestBlockHash() public view returns (bytes32) {... */\n    tag_4:\n      tag_15\n      tag_16\n      jump\t// in\n    tag_15:\n      mload(0x40)\n      tag_17\n      swap2\n      swap1\n      tag_18\n      jump\t// in\n    tag_17:\n      mload(0x40)\n      dup1\n      swap2\n      sub\n      swap1\n      return\n        /* \"contracts/PixelcoinMergeChain.sol\":1956:2053  function getChainLength() public view returns (uint256) {... */\n    tag_5:\n      tag_19\n      tag_20\n      jump\t// in\n    tag_19:\n      mload(0x40)\n      tag_21\n      swap2\n      swap1\n      tag_22\n      jump\t// in\n    tag_21:\n      mload(0x40)\n      dup1\n      swap2\n      sub\n      swap1\n      return\n        /* \"contracts/PixelcoinMergeChain.sol\":308:336  uint256 public latestBlockId */\n    tag_6:\n      tag_23\n      tag_24\n      jump\t// in\n    tag_23:\n      mload(0x40)\n      tag_25\n      swap2\n      swap1\n      tag_22\n      jump\t// in\n    tag_25:\n      mload(0x40)\n      dup1\n      swap2\n      sub\n      swap1\n      return\n        /* \"contracts/PixelcoinMergeChain.sol\":888:1483  function addBlock(string memory _data) public {... */\n    tag_7:\n      tag_26\n      0x04\n      dup1\n      calldatasize\n      sub\n      dup2\n      add\n      swap1\n      tag_27\n      swap2\n      swap1\n      tag_28\n      jump\t// in\n    tag_27:\n      tag_29\n      jump\t// in\n    tag_26:\n      stop\n        /* \"contracts/PixelcoinMergeChain.sol\":263:302  mapping(uint256 => Block) public blocks */\n    tag_8:\n      tag_30\n      0x04\n      dup1\n      calldatasize\n      sub\n      dup2\n      add\n      swap1\n      tag_31\n      swap2\n      swap1\n      tag_11\n      jump\t// in\n    tag_31:\n      tag_32\n      jump\t// in\n    tag_30:\n      mload(0x40)\n      tag_33\n      swap7\n      swap6\n      swap5\n      swap4\n      swap3\n      swap2\n      swap1\n      tag_14\n      jump\t// in\n    tag_33:\n      mload(0x40)\n      dup1\n      swap2\n      sub\n      swap1\n      return\n        /* \"contracts/PixelcoinMergeChain.sol\":1489:1829  function getBlock(uint256 blockId) public view returns (... */\n    tag_12:\n        /* \"contracts/PixelcoinMergeChain.sol\":1554:1564  uint256 id */\n      0x00\n        /* \"contracts/PixelcoinMergeChain.sol\":1574:1590  bytes32 prevHash */\n      0x00\n        /* \"contracts/PixelcoinMergeChain.sol\":1600:1617  bytes32 blockHash */\n      0x00\n        /* \"contracts/PixelcoinMergeChain.sol\":1627:1640  address miner */\n      0x00\n        /* \"contracts/PixelcoinMergeChain.sol\":1650:1668  string memory data */\n      0x60\n        /* \"contracts/PixelcoinMergeChain.sol\":1678:1695  uint256 timestamp */\n      0x00\n        /* \"contracts/PixelcoinMergeChain.sol\":1712:1726  Block memory b */\n      0x00\n        /* \"contracts/PixelcoinMergeChain.sol\":1729:1735  blocks */\n      0x00\n        /* \"contracts/PixelcoinMergeChain.sol\":1729:1744  blocks[blockId] */\n      0x00\n        /* \"contracts/PixelcoinMergeChain.sol\":1736:1743  blockId */\n      dup10\n        /* \"contracts/PixelcoinMergeChain.sol\":1729:1744  blocks[blockId] */\n      dup2\n      mstore\n      0x20\n      add\n      swap1\n      dup2\n      mstore\n      0x20\n      add\n      0x00\n      keccak256\n        /* \"contracts/PixelcoinMergeChain.sol\":1712:1744  Block memory b = blocks[blockId] */\n      mload(0x40)\n      dup1\n      0xc0\n      add\n      0x40\n      mstore\n      swap1\n      dup2\n      0x00\n      dup3\n      add\n      sload\n      dup2\n      mstore\n      0x20\n      add\n      0x01\n      dup3\n      add\n      sload\n      dup2\n      mstore\n      0x20\n      add\n      0x02\n      dup3\n      add\n      sload\n      dup2\n      mstore\n      0x20\n      add\n      0x03\n      dup3\n      add\n      0x00\n      swap1\n      sload\n      swap1\n      0x0100\n      exp\n      swap1\n      div\n      0xffffffffffffffffffffffffffffffffffffffff\n      and\n      0xffffffffffffffffffffffffffffffffffffffff\n      and\n      0xffffffffffffffffffffffffffffffffffffffff\n      and\n      dup2\n      mstore\n      0x20\n      add\n      0x04\n      dup3\n      add\n      dup1\n      sload\n      tag_35\n      swap1\n      tag_36\n      jump\t// in\n    tag_35:\n      dup1\n      0x1f\n      add\n      0x20\n      dup1\n      swap2\n      div\n      mul\n      0x20\n      add\n      mload(0x40)\n      swap1\n      dup2\n      add\n      0x40\n      mstore\n      dup1\n      swap3\n      swap2\n      swap1\n      dup2\n      dup2\n      mstore\n      0x20\n      add\n      dup3\n      dup1\n      sload\n      tag_37\n      swap1\n      tag_36\n      jump\t// in\n    tag_37:\n      dup1\n      iszero\n      tag_38\n      jumpi\n      dup1\n      0x1f\n      lt\n      tag_39\n      jumpi\n      0x0100\n      dup1\n      dup4\n      sload\n      div\n      mul\n      dup4\n      mstore\n      swap2\n      0x20\n      add\n      swap2\n      jump(tag_38)\n    tag_39:\n      dup3\n      add\n      swap2\n      swap1\n      0x00\n      mstore\n      keccak256(0x00, 0x20)\n      swap1\n    tag_40:\n      dup2\n      sload\n      dup2\n      mstore\n      swap1\n      0x01\n      add\n      swap1\n      0x20\n      add\n      dup1\n      dup4\n      gt\n      tag_40\n      jumpi\n      dup3\n      swap1\n      sub\n      0x1f\n      and\n      dup3\n      add\n      swap2\n    tag_38:\n      pop\n      pop\n      pop\n      pop\n      pop\n      dup2\n      mstore\n      0x20\n      add\n      0x05\n      dup3\n      add\n      sload\n      dup2\n      mstore\n      pop\n      pop\n      swap1\n      pop\n        /* \"contracts/PixelcoinMergeChain.sol\":1762:1763  b */\n      dup1\n        /* \"contracts/PixelcoinMergeChain.sol\":1762:1766  b.id */\n      0x00\n      add\n      mload\n        /* \"contracts/PixelcoinMergeChain.sol\":1768:1769  b */\n      dup2\n        /* \"contracts/PixelcoinMergeChain.sol\":1768:1778  b.prevHash */\n      0x20\n      add\n      mload\n        /* \"contracts/PixelcoinMergeChain.sol\":1780:1781  b */\n      dup3\n        /* \"contracts/PixelcoinMergeChain.sol\":1780:1791  b.blockHash */\n      0x40\n      add\n      mload\n        /* \"contracts/PixelcoinMergeChain.sol\":1793:1794  b */\n      dup4\n        /* \"contracts/PixelcoinMergeChain.sol\":1793:1800  b.miner */\n      0x60\n      add\n      mload\n        /* \"contracts/PixelcoinMergeChain.sol\":1802:1803  b */\n      dup5\n        /* \"contracts/PixelcoinMergeChain.sol\":1802:1808  b.data */\n      0x80\n      add\n      mload\n        /* \"contracts/PixelcoinMergeChain.sol\":1810:1811  b */\n      dup6\n        /* \"contracts/PixelcoinMergeChain.sol\":1810:1821  b.timestamp */\n      0xa0\n      add\n      mload\n        /* \"contracts/PixelcoinMergeChain.sol\":1754:1822  return (b.id, b.prevHash, b.blockHash, b.miner, b.data, b.timestamp) */\n      swap7\n      pop\n      swap7\n      pop\n      swap7\n      pop\n      swap7\n      pop\n      swap7\n      pop\n      swap7\n      pop\n      pop\n        /* \"contracts/PixelcoinMergeChain.sol\":1489:1829  function getBlock(uint256 blockId) public view returns (... */\n      swap2\n      swap4\n      swap6\n      pop\n      swap2\n      swap4\n      swap6\n      jump\t// out\n        /* \"contracts/PixelcoinMergeChain.sol\":1835:1950  function getLatestBlockHash() public view returns (bytes32) {... */\n    tag_16:\n        /* \"contracts/PixelcoinMergeChain.sol\":1886:1893  bytes32 */\n      0x00\n        /* \"contracts/PixelcoinMergeChain.sol\":1912:1918  blocks */\n      0x00\n        /* \"contracts/PixelcoinMergeChain.sol\":1912:1933  blocks[latestBlockId] */\n      0x00\n        /* \"contracts/PixelcoinMergeChain.sol\":1919:1932  latestBlockId */\n      sload(0x01)\n        /* \"contracts/PixelcoinMergeChain.sol\":1912:1933  blocks[latestBlockId] */\n      dup2\n      mstore\n      0x20\n      add\n      swap1\n      dup2\n      mstore\n      0x20\n      add\n      0x00\n      keccak256\n        /* \"contracts/PixelcoinMergeChain.sol\":1912:1943  blocks[latestBlockId].blockHash */\n      0x02\n      add\n      sload\n        /* \"contracts/PixelcoinMergeChain.sol\":1905:1943  return blocks[latestBlockId].blockHash */\n      swap1\n      pop\n        /* \"contracts/PixelcoinMergeChain.sol\":1835:1950  function getLatestBlockHash() public view returns (bytes32) {... */\n      swap1\n      jump\t// out\n        /* \"contracts/PixelcoinMergeChain.sol\":1956:2053  function getChainLength() public view returns (uint256) {... */\n    tag_20:\n        /* \"contracts/PixelcoinMergeChain.sol\":2003:2010  uint256 */\n      0x00\n        /* \"contracts/PixelcoinMergeChain.sol\":2045:2046  1 */\n      0x01\n        /* \"contracts/PixelcoinMergeChain.sol\":2029:2042  latestBlockId */\n      dup1\n      sload\n        /* \"contracts/PixelcoinMergeChain.sol\":2029:2046  latestBlockId + 1 */\n      tag_43\n      swap2\n      swap1\n      tag_44\n      jump\t// in\n    tag_43:\n        /* \"contracts/PixelcoinMergeChain.sol\":2022:2046  return latestBlockId + 1 */\n      swap1\n      pop\n        /* \"contracts/PixelcoinMergeChain.sol\":1956:2053  function getChainLength() public view returns (uint256) {... */\n      swap1\n      jump\t// out\n        /* \"contracts/PixelcoinMergeChain.sol\":308:336  uint256 public latestBlockId */\n    tag_24:\n      sload(0x01)\n      dup2\n      jump\t// out\n        /* \"contracts/PixelcoinMergeChain.sol\":888:1483  function addBlock(string memory _data) public {... */\n    tag_29:\n        /* \"contracts/PixelcoinMergeChain.sol\":944:962  uint256 newBlockId */\n      0x00\n        /* \"contracts/PixelcoinMergeChain.sol\":981:982  1 */\n      0x01\n        /* \"contracts/PixelcoinMergeChain.sol\":965:978  latestBlockId */\n      dup1\n      sload\n        /* \"contracts/PixelcoinMergeChain.sol\":965:982  latestBlockId + 1 */\n      tag_46\n      swap2\n      swap1\n      tag_44\n      jump\t// in\n    tag_46:\n        /* \"contracts/PixelcoinMergeChain.sol\":944:982  uint256 newBlockId = latestBlockId + 1 */\n      swap1\n      pop\n        /* \"contracts/PixelcoinMergeChain.sol\":992:1008  bytes32 prevHash */\n      0x00\n        /* \"contracts/PixelcoinMergeChain.sol\":1011:1017  blocks */\n      0x00\n        /* \"contracts/PixelcoinMergeChain.sol\":1011:1032  blocks[latestBlockId] */\n      0x00\n        /* \"contracts/PixelcoinMergeChain.sol\":1018:1031  latestBlockId */\n      sload(0x01)\n        /* \"contracts/PixelcoinMergeChain.sol\":1011:1032  blocks[latestBlockId] */\n      dup2\n      mstore\n      0x20\n      add\n      swap1\n      dup2\n      mstore\n      0x20\n      add\n      0x00\n      keccak256\n        /* \"contracts/PixelcoinMergeChain.sol\":1011:1042  blocks[latestBlockId].blockHash */\n      0x02\n      add\n      sload\n        /* \"contracts/PixelcoinMergeChain.sol\":992:1042  bytes32 prevHash = blocks[latestBlockId].blockHash */\n      swap1\n      pop\n        /* \"contracts/PixelcoinMergeChain.sol\":1052:1067  bytes32 newHash */\n      0x00\n        /* \"contracts/PixelcoinMergeChain.sol\":1097:1112  block.timestamp */\n      timestamp\n        /* \"contracts/PixelcoinMergeChain.sol\":1114:1124  msg.sender */\n      caller\n        /* \"contracts/PixelcoinMergeChain.sol\":1126:1131  _data */\n      dup6\n        /* \"contracts/PixelcoinMergeChain.sol\":1133:1141  prevHash */\n      dup5\n        /* \"contracts/PixelcoinMergeChain.sol\":1080:1142  abi.encodePacked(block.timestamp, msg.sender, _data, prevHash) */\n      add(0x20, mload(0x40))\n      tag_47\n      swap5\n      swap4\n      swap3\n      swap2\n      swap1\n      tag_48\n      jump\t// in\n    tag_47:\n      mload(0x40)\n      0x20\n      dup2\n      dup4\n      sub\n      sub\n      dup2\n      mstore\n      swap1\n      0x40\n      mstore\n        /* \"contracts/PixelcoinMergeChain.sol\":1070:1143  keccak256(abi.encodePacked(block.timestamp, msg.sender, _data, prevHash)) */\n      dup1\n      mload\n      swap1\n      0x20\n      add\n      keccak256\n        /* \"contracts/PixelcoinMergeChain.sol\":1052:1143  bytes32 newHash = keccak256(abi.encodePacked(block.timestamp, msg.sender, _data, prevHash)) */\n      swap1\n      pop\n        /* \"contracts/PixelcoinMergeChain.sol\":1175:1380  Block({... */\n      mload(0x40)\n      dup1\n      0xc0\n      add\n      0x40\n      mstore\n      dup1\n        /* \"contracts/PixelcoinMergeChain.sol\":1199:1209  newBlockId */\n      dup5\n        /* \"contracts/PixelcoinMergeChain.sol\":1175:1380  Block({... */\n      dup2\n      mstore\n      0x20\n      add\n        /* \"contracts/PixelcoinMergeChain.sol\":1233:1241  prevHash */\n      dup4\n        /* \"contracts/PixelcoinMergeChain.sol\":1175:1380  Block({... */\n      dup2\n      mstore\n      0x20\n      add\n        /* \"contracts/PixelcoinMergeChain.sol\":1266:1273  newHash */\n      dup3\n        /* \"contracts/PixelcoinMergeChain.sol\":1175:1380  Block({... */\n      dup2\n      mstore\n      0x20\n      add\n        /* \"contracts/PixelcoinMergeChain.sol\":1294:1304  msg.sender */\n      caller\n        /* \"contracts/PixelcoinMergeChain.sol\":1175:1380  Block({... */\n      0xffffffffffffffffffffffffffffffffffffffff\n      and\n      dup2\n      mstore\n      0x20\n      add\n        /* \"contracts/PixelcoinMergeChain.sol\":1324:1329  _data */\n      dup6\n        /* \"contracts/PixelcoinMergeChain.sol\":1175:1380  Block({... */\n      dup2\n      mstore\n      0x20\n      add\n        /* \"contracts/PixelcoinMergeChain.sol\":1354:1369  block.timestamp */\n      timestamp\n        /* \"contracts/PixelcoinMergeChain.sol\":1175:1380  Block({... */\n      dup2\n      mstore\n      pop\n        /* \"contracts/PixelcoinMergeChain.sol\":1154:1160  blocks */\n      0x00\n        /* \"contracts/PixelcoinMergeChain.sol\":1154:1172  blocks[newBlockId] */\n      0x00\n        /* \"contracts/PixelcoinMergeChain.sol\":1161:1171  newBlockId */\n      dup6\n        /* \"contracts/PixelcoinMergeChain.sol\":1154:1172  blocks[newBlockId] */\n      dup2\n      mstore\n      0x20\n      add\n      swap1\n      dup2\n      mstore\n      0x20\n      add\n      0x00\n      keccak256\n        /* \"contracts/PixelcoinMergeChain.sol\":1154:1380  blocks[newBlockId] = Block({... */\n      0x00\n      dup3\n      add\n      mload\n      dup2\n      0x00\n      add\n      sstore\n      0x20\n      dup3\n      add\n      mload\n      dup2\n      0x01\n      add\n      sstore\n      0x40\n      dup3\n      add\n      mload\n      dup2\n      0x02\n      add\n      sstore\n      0x60\n      dup3\n      add\n      mload\n      dup2\n      0x03\n      add\n      exp(0x0100, 0x00)\n      dup2\n      sload\n      dup2\n      0xffffffffffffffffffffffffffffffffffffffff\n      mul\n      not\n      and\n      swap1\n      dup4\n      0xffffffffffffffffffffffffffffffffffffffff\n      and\n      mul\n      or\n      swap1\n      sstore\n      pop\n      0x80\n      dup3\n      add\n      mload\n      dup2\n      0x04\n      add\n      swap1\n      dup2\n      tag_49\n      swap2\n      swap1\n      tag_50\n      jump\t// in\n    tag_49:\n      pop\n      0xa0\n      dup3\n      add\n      mload\n      dup2\n      0x05\n      add\n      sstore\n      swap1\n      pop\n      pop\n        /* \"contracts/PixelcoinMergeChain.sol\":1407:1417  newBlockId */\n      dup3\n        /* \"contracts/PixelcoinMergeChain.sol\":1391:1404  latestBlockId */\n      0x01\n        /* \"contracts/PixelcoinMergeChain.sol\":1391:1417  latestBlockId = newBlockId */\n      dup2\n      swap1\n      sstore\n      pop\n        /* \"contracts/PixelcoinMergeChain.sol\":1456:1466  msg.sender */\n      caller\n        /* \"contracts/PixelcoinMergeChain.sol\":1433:1476  BlockMined(newBlockId, msg.sender, newHash) */\n      0xffffffffffffffffffffffffffffffffffffffff\n      and\n        /* \"contracts/PixelcoinMergeChain.sol\":1444:1454  newBlockId */\n      dup4\n        /* \"contracts/PixelcoinMergeChain.sol\":1433:1476  BlockMined(newBlockId, msg.sender, newHash) */\n      0x84c1f3580ae009522c870c7efc2c3dc362bb7c75603ba15b642a5f0f95408643\n        /* \"contracts/PixelcoinMergeChain.sol\":1468:1475  newHash */\n      dup4\n        /* \"contracts/PixelcoinMergeChain.sol\":1433:1476  BlockMined(newBlockId, msg.sender, newHash) */\n      mload(0x40)\n      tag_51\n      swap2\n      swap1\n      tag_18\n      jump\t// in\n    tag_51:\n      mload(0x40)\n      dup1\n      swap2\n      sub\n      swap1\n      log3\n        /* \"contracts/PixelcoinMergeChain.sol\":934:1483  {... */\n      pop\n      pop\n      pop\n        /* \"contracts/PixelcoinMergeChain.sol\":888:1483  function addBlock(string memory _data) public {... */\n      pop\n      jump\t// out\n        /* \"contracts/PixelcoinMergeChain.sol\":263:302  mapping(uint256 => Block) public blocks */\n    tag_32:\n      mstore(0x20, 0x00)\n      dup1\n      0x00\n      mstore\n      keccak256(0x00, 0x40)\n      0x00\n      swap2\n      pop\n      swap1\n      pop\n      dup1\n      0x00\n      add\n      sload\n      swap1\n      dup1\n      0x01\n      add\n      sload\n      swap1\n      dup1\n      0x02\n      add\n      sload\n      swap1\n      dup1\n      0x03\n      add\n      0x00\n      swap1\n      sload\n      swap1\n      0x0100\n      exp\n      swap1\n      div\n      0xffffffffffffffffffffffffffffffffffffffff\n      and\n      swap1\n      dup1\n      0x04\n      add\n      dup1\n      sload\n      tag_52\n      swap1\n      tag_36\n      jump\t// in\n    tag_52:\n      dup1\n      0x1f\n      add\n      0x20\n      dup1\n      swap2\n      div\n      mul\n      0x20\n      add\n      mload(0x40)\n      swap1\n      dup2\n      add\n      0x40\n      mstore\n      dup1\n      swap3\n      swap2\n      swap1\n      dup2\n      dup2\n      mstore\n      0x20\n      add\n      dup3\n      dup1\n      sload\n      tag_53\n      swap1\n      tag_36\n      jump\t// in\n    tag_53:\n      dup1\n      iszero\n      tag_54\n      jumpi\n      dup1\n      0x1f\n      lt\n      tag_55\n      jumpi\n      0x0100\n      dup1\n      dup4\n      sload\n      div\n      mul\n      dup4\n      mstore\n      swap2\n      0x20\n      add\n      swap2\n      jump(tag_54)\n    tag_55:\n      dup3\n      add\n      swap2\n      swap1\n      0x00\n      mstore\n      keccak256(0x00, 0x20)\n      swap1\n    tag_56:\n      dup2\n      sload\n      dup2\n      mstore\n      swap1\n      0x01\n      add\n      swap1\n      0x20\n      add\n      dup1\n      dup4\n      gt\n      tag_56\n      jumpi\n      dup3\n      swap1\n      sub\n      0x1f\n      and\n      dup3\n      add\n      swap2\n    tag_54:\n      pop\n      pop\n      pop\n      pop\n      pop\n      swap1\n      dup1\n      0x05\n      add\n      sload\n      swap1\n      pop\n      dup7\n      jump\t// out\n        /* \"#utility.yul\":7:82   */\n    tag_57:\n        /* \"#utility.yul\":40:46   */\n      0x00\n        /* \"#utility.yul\":73:75   */\n      0x40\n        /* \"#utility.yul\":67:76   */\n      mload\n        /* \"#utility.yul\":57:76   */\n      swap1\n      pop\n        /* \"#utility.yul\":7:82   */\n      swap1\n      jump\t// out\n        /* \"#utility.yul\":88:205   */\n    tag_58:\n        /* \"#utility.yul\":197:198   */\n      0x00\n        /* \"#utility.yul\":194:195   */\n      0x00\n        /* \"#utility.yul\":187:199   */\n      revert\n        /* \"#utility.yul\":211:328   */\n    tag_59:\n        /* \"#utility.yul\":320:321   */\n      0x00\n        /* \"#utility.yul\":317:318   */\n      0x00\n        /* \"#utility.yul\":310:322   */\n      revert\n        /* \"#utility.yul\":334:411   */\n    tag_60:\n        /* \"#utility.yul\":371:378   */\n      0x00\n        /* \"#utility.yul\":400:405   */\n      dup2\n        /* \"#utility.yul\":389:405   */\n      swap1\n      pop\n        /* \"#utility.yul\":334:411   */\n      swap2\n      swap1\n      pop\n      jump\t// out\n        /* \"#utility.yul\":417:539   */\n    tag_61:\n        /* \"#utility.yul\":490:514   */\n      tag_116\n        /* \"#utility.yul\":508:513   */\n      dup2\n        /* \"#utility.yul\":490:514   */\n      tag_60\n      jump\t// in\n    tag_116:\n        /* \"#utility.yul\":483:488   */\n      dup2\n        /* \"#utility.yul\":480:515   */\n      eq\n        /* \"#utility.yul\":470:533   */\n      tag_117\n      jumpi\n        /* \"#utility.yul\":529:530   */\n      0x00\n        /* \"#utility.yul\":526:527   */\n      0x00\n        /* \"#utility.yul\":519:531   */\n      revert\n        /* \"#utility.yul\":470:533   */\n    tag_117:\n        /* \"#utility.yul\":417:539   */\n      pop\n      jump\t// out\n        /* \"#utility.yul\":545:684   */\n    tag_62:\n        /* \"#utility.yul\":591:596   */\n      0x00\n        /* \"#utility.yul\":629:635   */\n      dup2\n        /* \"#utility.yul\":616:636   */\n      calldataload\n        /* \"#utility.yul\":607:636   */\n      swap1\n      pop\n        /* \"#utility.yul\":645:678   */\n      tag_119\n        /* \"#utility.yul\":672:677   */\n      dup2\n        /* \"#utility.yul\":645:678   */\n      tag_61\n      jump\t// in\n    tag_119:\n        /* \"#utility.yul\":545:684   */\n      swap3\n      swap2\n      pop\n      pop\n      jump\t// out\n        /* \"#utility.yul\":690:1019   */\n    tag_11:\n        /* \"#utility.yul\":749:755   */\n      0x00\n        /* \"#utility.yul\":798:800   */\n      0x20\n        /* \"#utility.yul\":786:795   */\n      dup3\n        /* \"#utility.yul\":777:784   */\n      dup5\n        /* \"#utility.yul\":773:796   */\n      sub\n        /* \"#utility.yul\":769:801   */\n      slt\n        /* \"#utility.yul\":766:885   */\n      iszero\n      tag_121\n      jumpi\n        /* \"#utility.yul\":804:883   */\n      tag_122\n      tag_58\n      jump\t// in\n    tag_122:\n        /* \"#utility.yul\":766:885   */\n    tag_121:\n        /* \"#utility.yul\":924:925   */\n      0x00\n        /* \"#utility.yul\":949:1002   */\n      tag_123\n        /* \"#utility.yul\":994:1001   */\n      dup5\n        /* \"#utility.yul\":985:991   */\n      dup3\n        /* \"#utility.yul\":974:983   */\n      dup6\n        /* \"#utility.yul\":970:992   */\n      add\n        /* \"#utility.yul\":949:1002   */\n      tag_62\n      jump\t// in\n    tag_123:\n        /* \"#utility.yul\":939:1002   */\n      swap2\n      pop\n        /* \"#utility.yul\":895:1012   */\n      pop\n        /* \"#utility.yul\":690:1019   */\n      swap3\n      swap2\n      pop\n      pop\n      jump\t// out\n        /* \"#utility.yul\":1025:1143   */\n    tag_63:\n        /* \"#utility.yul\":1112:1136   */\n      tag_125\n        /* \"#utility.yul\":1130:1135   */\n      dup2\n        /* \"#utility.yul\":1112:1136   */\n      tag_60\n      jump\t// in\n    tag_125:\n        /* \"#utility.yul\":1107:1110   */\n      dup3\n        /* \"#utility.yul\":1100:1137   */\n      mstore\n        /* \"#utility.yul\":1025:1143   */\n      pop\n      pop\n      jump\t// out\n        /* \"#utility.yul\":1149:1226   */\n    tag_64:\n        /* \"#utility.yul\":1186:1193   */\n      0x00\n        /* \"#utility.yul\":1215:1220   */\n      dup2\n        /* \"#utility.yul\":1204:1220   */\n      swap1\n      pop\n        /* \"#utility.yul\":1149:1226   */\n      swap2\n      swap1\n      pop\n      jump\t// out\n        /* \"#utility.yul\":1232:1350   */\n    tag_65:\n        /* \"#utility.yul\":1319:1343   */\n      tag_128\n        /* \"#utility.yul\":1337:1342   */\n      dup2\n        /* \"#utility.yul\":1319:1343   */\n      tag_64\n      jump\t// in\n    tag_128:\n        /* \"#utility.yul\":1314:1317   */\n      dup3\n        /* \"#utility.yul\":1307:1344   */\n      mstore\n        /* \"#utility.yul\":1232:1350   */\n      pop\n      pop\n      jump\t// out\n        /* \"#utility.yul\":1356:1482   */\n    tag_66:\n        /* \"#utility.yul\":1393:1400   */\n      0x00\n        /* \"#utility.yul\":1433:1475   */\n      0xffffffffffffffffffffffffffffffffffffffff\n        /* \"#utility.yul\":1426:1431   */\n      dup3\n        /* \"#utility.yul\":1422:1476   */\n      and\n        /* \"#utility.yul\":1411:1476   */\n      swap1\n      pop\n        /* \"#utility.yul\":1356:1482   */\n      swap2\n      swap1\n      pop\n      jump\t// out\n        /* \"#utility.yul\":1488:1584   */\n    tag_67:\n        /* \"#utility.yul\":1525:1532   */\n      0x00\n        /* \"#utility.yul\":1554:1578   */\n      tag_131\n        /* \"#utility.yul\":1572:1577   */\n      dup3\n        /* \"#utility.yul\":1554:1578   */\n      tag_66\n      jump\t// in\n    tag_131:\n        /* \"#utility.yul\":1543:1578   */\n      swap1\n      pop\n        /* \"#utility.yul\":1488:1584   */\n      swap2\n      swap1\n      pop\n      jump\t// out\n        /* \"#utility.yul\":1590:1708   */\n    tag_68:\n        /* \"#utility.yul\":1677:1701   */\n      tag_133\n        /* \"#utility.yul\":1695:1700   */\n      dup2\n        /* \"#utility.yul\":1677:1701   */\n      tag_67\n      jump\t// in\n    tag_133:\n        /* \"#utility.yul\":1672:1675   */\n      dup3\n        /* \"#utility.yul\":1665:1702   */\n      mstore\n        /* \"#utility.yul\":1590:1708   */\n      pop\n      pop\n      jump\t// out\n        /* \"#utility.yul\":1714:1813   */\n    tag_69:\n        /* \"#utility.yul\":1766:1772   */\n      0x00\n        /* \"#utility.yul\":1800:1805   */\n      dup2\n        /* \"#utility.yul\":1794:1806   */\n      mload\n        /* \"#utility.yul\":1784:1806   */\n      swap1\n      pop\n        /* \"#utility.yul\":1714:1813   */\n      swap2\n      swap1\n      pop\n      jump\t// out\n        /* \"#utility.yul\":1819:1988   */\n    tag_70:\n        /* \"#utility.yul\":1903:1914   */\n      0x00\n        /* \"#utility.yul\":1937:1943   */\n      dup3\n        /* \"#utility.yul\":1932:1935   */\n      dup3\n        /* \"#utility.yul\":1925:1944   */\n      mstore\n        /* \"#utility.yul\":1977:1981   */\n      0x20\n        /* \"#utility.yul\":1972:1975   */\n      dup3\n        /* \"#utility.yul\":1968:1982   */\n      add\n        /* \"#utility.yul\":1953:1982   */\n      swap1\n      pop\n        /* \"#utility.yul\":1819:1988   */\n      swap3\n      swap2\n      pop\n      pop\n      jump\t// out\n        /* \"#utility.yul\":1994:2133   */\n    tag_71:\n        /* \"#utility.yul\":2083:2089   */\n      dup3\n        /* \"#utility.yul\":2078:2081   */\n      dup2\n        /* \"#utility.yul\":2073:2076   */\n      dup4\n        /* \"#utility.yul\":2067:2090   */\n      mcopy\n        /* \"#utility.yul\":2124:2125   */\n      0x00\n        /* \"#utility.yul\":2115:2121   */\n      dup4\n        /* \"#utility.yul\":2110:2113   */\n      dup4\n        /* \"#utility.yul\":2106:2122   */\n      add\n        /* \"#utility.yul\":2099:2126   */\n      mstore\n        /* \"#utility.yul\":1994:2133   */\n      pop\n      pop\n      pop\n      jump\t// out\n        /* \"#utility.yul\":2139:2241   */\n    tag_72:\n        /* \"#utility.yul\":2180:2186   */\n      0x00\n        /* \"#utility.yul\":2231:2233   */\n      0x1f\n        /* \"#utility.yul\":2227:2234   */\n      not\n        /* \"#utility.yul\":2222:2224   */\n      0x1f\n        /* \"#utility.yul\":2215:2220   */\n      dup4\n        /* \"#utility.yul\":2211:2225   */\n      add\n        /* \"#utility.yul\":2207:2235   */\n      and\n        /* \"#utility.yul\":2197:2235   */\n      swap1\n      pop\n        /* \"#utility.yul\":2139:2241   */\n      swap2\n      swap1\n      pop\n      jump\t// out\n        /* \"#utility.yul\":2247:2624   */\n    tag_73:\n        /* \"#utility.yul\":2335:2338   */\n      0x00\n        /* \"#utility.yul\":2363:2402   */\n      tag_139\n        /* \"#utility.yul\":2396:2401   */\n      dup3\n        /* \"#utility.yul\":2363:2402   */\n      tag_69\n      jump\t// in\n    tag_139:\n        /* \"#utility.yul\":2418:2489   */\n      tag_140\n        /* \"#utility.yul\":2482:2488   */\n      dup2\n        /* \"#utility.yul\":2477:2480   */\n      dup6\n        /* \"#utility.yul\":2418:2489   */\n      tag_70\n      jump\t// in\n    tag_140:\n        /* \"#utility.yul\":2411:2489   */\n      swap4\n      pop\n        /* \"#utility.yul\":2498:2563   */\n      tag_141\n        /* \"#utility.yul\":2556:2562   */\n      dup2\n        /* \"#utility.yul\":2551:2554   */\n      dup6\n        /* \"#utility.yul\":2544:2548   */\n      0x20\n        /* \"#utility.yul\":2537:2542   */\n      dup7\n        /* \"#utility.yul\":2533:2549   */\n      add\n        /* \"#utility.yul\":2498:2563   */\n      tag_71\n      jump\t// in\n    tag_141:\n        /* \"#utility.yul\":2588:2617   */\n      tag_142\n        /* \"#utility.yul\":2610:2616   */\n      dup2\n        /* \"#utility.yul\":2588:2617   */\n      tag_72\n      jump\t// in\n    tag_142:\n        /* \"#utility.yul\":2583:2586   */\n      dup5\n        /* \"#utility.yul\":2579:2618   */\n      add\n        /* \"#utility.yul\":2572:2618   */\n      swap2\n      pop\n        /* \"#utility.yul\":2339:2624   */\n      pop\n        /* \"#utility.yul\":2247:2624   */\n      swap3\n      swap2\n      pop\n      pop\n      jump\t// out\n        /* \"#utility.yul\":2630:3496   */\n    tag_14:\n        /* \"#utility.yul\":2883:2887   */\n      0x00\n        /* \"#utility.yul\":2921:2924   */\n      0xc0\n        /* \"#utility.yul\":2910:2919   */\n      dup3\n        /* \"#utility.yul\":2906:2925   */\n      add\n        /* \"#utility.yul\":2898:2925   */\n      swap1\n      pop\n        /* \"#utility.yul\":2935:3006   */\n      tag_144\n        /* \"#utility.yul\":3003:3004   */\n      0x00\n        /* \"#utility.yul\":2992:3001   */\n      dup4\n        /* \"#utility.yul\":2988:3005   */\n      add\n        /* \"#utility.yul\":2979:2985   */\n      dup10\n        /* \"#utility.yul\":2935:3006   */\n      tag_63\n      jump\t// in\n    tag_144:\n        /* \"#utility.yul\":3016:3088   */\n      tag_145\n        /* \"#utility.yul\":3084:3086   */\n      0x20\n        /* \"#utility.yul\":3073:3082   */\n      dup4\n        /* \"#utility.yul\":3069:3087   */\n      add\n        /* \"#utility.yul\":3060:3066   */\n      dup9\n        /* \"#utility.yul\":3016:3088   */\n      tag_65\n      jump\t// in\n    tag_145:\n        /* \"#utility.yul\":3098:3170   */\n      tag_146\n        /* \"#utility.yul\":3166:3168   */\n      0x40\n        /* \"#utility.yul\":3155:3164   */\n      dup4\n        /* \"#utility.yul\":3151:3169   */\n      add\n        /* \"#utility.yul\":3142:3148   */\n      dup8\n        /* \"#utility.yul\":3098:3170   */\n      tag_65\n      jump\t// in\n    tag_146:\n        /* \"#utility.yul\":3180:3252   */\n      tag_147\n        /* \"#utility.yul\":3248:3250   */\n      0x60\n        /* \"#utility.yul\":3237:3246   */\n      dup4\n        /* \"#utility.yul\":3233:3251   */\n      add\n        /* \"#utility.yul\":3224:3230   */\n      dup7\n        /* \"#utility.yul\":3180:3252   */\n      tag_68\n      jump\t// in\n    tag_147:\n        /* \"#utility.yul\":3300:3309   */\n      dup2\n        /* \"#utility.yul\":3294:3298   */\n      dup2\n        /* \"#utility.yul\":3290:3310   */\n      sub\n        /* \"#utility.yul\":3284:3287   */\n      0x80\n        /* \"#utility.yul\":3273:3282   */\n      dup4\n        /* \"#utility.yul\":3269:3288   */\n      add\n        /* \"#utility.yul\":3262:3311   */\n      mstore\n        /* \"#utility.yul\":3328:3406   */\n      tag_148\n        /* \"#utility.yul\":3401:3405   */\n      dup2\n        /* \"#utility.yul\":3392:3398   */\n      dup6\n        /* \"#utility.yul\":3328:3406   */\n      tag_73\n      jump\t// in\n    tag_148:\n        /* \"#utility.yul\":3320:3406   */\n      swap1\n      pop\n        /* \"#utility.yul\":3416:3489   */\n      tag_149\n        /* \"#utility.yul\":3484:3487   */\n      0xa0\n        /* \"#utility.yul\":3473:3482   */\n      dup4\n        /* \"#utility.yul\":3469:3488   */\n      add\n        /* \"#utility.yul\":3460:3466   */\n      dup5\n        /* \"#utility.yul\":3416:3489   */\n      tag_63\n      jump\t// in\n    tag_149:\n        /* \"#utility.yul\":2630:3496   */\n      swap8\n      swap7\n      pop\n      pop\n      pop\n      pop\n      pop\n      pop\n      pop\n      jump\t// out\n        /* \"#utility.yul\":3502:3724   */\n    tag_18:\n        /* \"#utility.yul\":3595:3599   */\n      0x00\n        /* \"#utility.yul\":3633:3635   */\n      0x20\n        /* \"#utility.yul\":3622:3631   */\n      dup3\n        /* \"#utility.yul\":3618:3636   */\n      add\n        /* \"#utility.yul\":3610:3636   */\n      swap1\n      pop\n        /* \"#utility.yul\":3646:3717   */\n      tag_151\n        /* \"#utility.yul\":3714:3715   */\n      0x00\n        /* \"#utility.yul\":3703:3712   */\n      dup4\n        /* \"#utility.yul\":3699:3716   */\n      add\n        /* \"#utility.yul\":3690:3696   */\n      dup5\n        /* \"#utility.yul\":3646:3717   */\n      tag_65\n      jump\t// in\n    tag_151:\n        /* \"#utility.yul\":3502:3724   */\n      swap3\n      swap2\n      pop\n      pop\n      jump\t// out\n        /* \"#utility.yul\":3730:3952   */\n    tag_22:\n        /* \"#utility.yul\":3823:3827   */\n      0x00\n        /* \"#utility.yul\":3861:3863   */\n      0x20\n        /* \"#utility.yul\":3850:3859   */\n      dup3\n        /* \"#utility.yul\":3846:3864   */\n      add\n        /* \"#utility.yul\":3838:3864   */\n      swap1\n      pop\n        /* \"#utility.yul\":3874:3945   */\n      tag_153\n        /* \"#utility.yul\":3942:3943   */\n      0x00\n        /* \"#utility.yul\":3931:3940   */\n      dup4\n        /* \"#utility.yul\":3927:3944   */\n      add\n        /* \"#utility.yul\":3918:3924   */\n      dup5\n        /* \"#utility.yul\":3874:3945   */\n      tag_63\n      jump\t// in\n    tag_153:\n        /* \"#utility.yul\":3730:3952   */\n      swap3\n      swap2\n      pop\n      pop\n      jump\t// out\n        /* \"#utility.yul\":3958:4075   */\n    tag_74:\n        /* \"#utility.yul\":4067:4068   */\n      0x00\n        /* \"#utility.yul\":4064:4065   */\n      0x00\n        /* \"#utility.yul\":4057:4069   */\n      revert\n        /* \"#utility.yul\":4081:4198   */\n    tag_75:\n        /* \"#utility.yul\":4190:4191   */\n      0x00\n        /* \"#utility.yul\":4187:4188   */\n      0x00\n        /* \"#utility.yul\":4180:4192   */\n      revert\n        /* \"#utility.yul\":4204:4384   */\n    tag_76:\n        /* \"#utility.yul\":4252:4329   */\n      0x4e487b7100000000000000000000000000000000000000000000000000000000\n        /* \"#utility.yul\":4249:4250   */\n      0x00\n        /* \"#utility.yul\":4242:4330   */\n      mstore\n        /* \"#utility.yul\":4349:4353   */\n      0x41\n        /* \"#utility.yul\":4346:4347   */\n      0x04\n        /* \"#utility.yul\":4339:4354   */\n      mstore\n        /* \"#utility.yul\":4373:4377   */\n      0x24\n        /* \"#utility.yul\":4370:4371   */\n      0x00\n        /* \"#utility.yul\":4363:4378   */\n      revert\n        /* \"#utility.yul\":4390:4671   */\n    tag_77:\n        /* \"#utility.yul\":4473:4500   */\n      tag_158\n        /* \"#utility.yul\":4495:4499   */\n      dup3\n        /* \"#utility.yul\":4473:4500   */\n      tag_72\n      jump\t// in\n    tag_158:\n        /* \"#utility.yul\":4465:4471   */\n      dup2\n        /* \"#utility.yul\":4461:4501   */\n      add\n        /* \"#utility.yul\":4603:4609   */\n      dup2\n        /* \"#utility.yul\":4591:4601   */\n      dup2\n        /* \"#utility.yul\":4588:4610   */\n      lt\n        /* \"#utility.yul\":4567:4585   */\n      0xffffffffffffffff\n        /* \"#utility.yul\":4555:4565   */\n      dup3\n        /* \"#utility.yul\":4552:4586   */\n      gt\n        /* \"#utility.yul\":4549:4611   */\n      or\n        /* \"#utility.yul\":4546:4634   */\n      iszero\n      tag_159\n      jumpi\n        /* \"#utility.yul\":4614:4632   */\n      tag_160\n      tag_76\n      jump\t// in\n    tag_160:\n        /* \"#utility.yul\":4546:4634   */\n    tag_159:\n        /* \"#utility.yul\":4654:4664   */\n      dup1\n        /* \"#utility.yul\":4650:4652   */\n      0x40\n        /* \"#utility.yul\":4643:4665   */\n      mstore\n        /* \"#utility.yul\":4433:4671   */\n      pop\n        /* \"#utility.yul\":4390:4671   */\n      pop\n      pop\n      jump\t// out\n        /* \"#utility.yul\":4677:4806   */\n    tag_78:\n        /* \"#utility.yul\":4711:4717   */\n      0x00\n        /* \"#utility.yul\":4738:4758   */\n      tag_162\n      tag_57\n      jump\t// in\n    tag_162:\n        /* \"#utility.yul\":4728:4758   */\n      swap1\n      pop\n        /* \"#utility.yul\":4767:4800   */\n      tag_163\n        /* \"#utility.yul\":4795:4799   */\n      dup3\n        /* \"#utility.yul\":4787:4793   */\n      dup3\n        /* \"#utility.yul\":4767:4800   */\n      tag_77\n      jump\t// in\n    tag_163:\n        /* \"#utility.yul\":4677:4806   */\n      swap2\n      swap1\n      pop\n      jump\t// out\n        /* \"#utility.yul\":4812:5120   */\n    tag_79:\n        /* \"#utility.yul\":4874:4878   */\n      0x00\n        /* \"#utility.yul\":4964:4982   */\n      0xffffffffffffffff\n        /* \"#utility.yul\":4956:4962   */\n      dup3\n        /* \"#utility.yul\":4953:4983   */\n      gt\n        /* \"#utility.yul\":4950:5006   */\n      iszero\n      tag_165\n      jumpi\n        /* \"#utility.yul\":4986:5004   */\n      tag_166\n      tag_76\n      jump\t// in\n    tag_166:\n        /* \"#utility.yul\":4950:5006   */\n    tag_165:\n        /* \"#utility.yul\":5024:5053   */\n      tag_167\n        /* \"#utility.yul\":5046:5052   */\n      dup3\n        /* \"#utility.yul\":5024:5053   */\n      tag_72\n      jump\t// in\n    tag_167:\n        /* \"#utility.yul\":5016:5053   */\n      swap1\n      pop\n        /* \"#utility.yul\":5108:5112   */\n      0x20\n        /* \"#utility.yul\":5102:5106   */\n      dup2\n        /* \"#utility.yul\":5098:5113   */\n      add\n        /* \"#utility.yul\":5090:5113   */\n      swap1\n      pop\n        /* \"#utility.yul\":4812:5120   */\n      swap2\n      swap1\n      pop\n      jump\t// out\n        /* \"#utility.yul\":5126:5274   */\n    tag_80:\n        /* \"#utility.yul\":5224:5230   */\n      dup3\n        /* \"#utility.yul\":5219:5222   */\n      dup2\n        /* \"#utility.yul\":5214:5217   */\n      dup4\n        /* \"#utility.yul\":5201:5231   */\n      calldatacopy\n        /* \"#utility.yul\":5265:5266   */\n      0x00\n        /* \"#utility.yul\":5256:5262   */\n      dup4\n        /* \"#utility.yul\":5251:5254   */\n      dup4\n        /* \"#utility.yul\":5247:5263   */\n      add\n        /* \"#utility.yul\":5240:5267   */\n      mstore\n        /* \"#utility.yul\":5126:5274   */\n      pop\n      pop\n      pop\n      jump\t// out\n        /* \"#utility.yul\":5280:5705   */\n    tag_81:\n        /* \"#utility.yul\":5358:5363   */\n      0x00\n        /* \"#utility.yul\":5383:5449   */\n      tag_170\n        /* \"#utility.yul\":5399:5448   */\n      tag_171\n        /* \"#utility.yul\":5441:5447   */\n      dup5\n        /* \"#utility.yul\":5399:5448   */\n      tag_79\n      jump\t// in\n    tag_171:\n        /* \"#utility.yul\":5383:5449   */\n      tag_78\n      jump\t// in\n    tag_170:\n        /* \"#utility.yul\":5374:5449   */\n      swap1\n      pop\n        /* \"#utility.yul\":5472:5478   */\n      dup3\n        /* \"#utility.yul\":5465:5470   */\n      dup2\n        /* \"#utility.yul\":5458:5479   */\n      mstore\n        /* \"#utility.yul\":5510:5514   */\n      0x20\n        /* \"#utility.yul\":5503:5508   */\n      dup2\n        /* \"#utility.yul\":5499:5515   */\n      add\n        /* \"#utility.yul\":5548:5551   */\n      dup5\n        /* \"#utility.yul\":5539:5545   */\n      dup5\n        /* \"#utility.yul\":5534:5537   */\n      dup5\n        /* \"#utility.yul\":5530:5546   */\n      add\n        /* \"#utility.yul\":5527:5552   */\n      gt\n        /* \"#utility.yul\":5524:5636   */\n      iszero\n      tag_172\n      jumpi\n        /* \"#utility.yul\":5555:5634   */\n      tag_173\n      tag_75\n      jump\t// in\n    tag_173:\n        /* \"#utility.yul\":5524:5636   */\n    tag_172:\n        /* \"#utility.yul\":5645:5699   */\n      tag_174\n        /* \"#utility.yul\":5692:5698   */\n      dup5\n        /* \"#utility.yul\":5687:5690   */\n      dup3\n        /* \"#utility.yul\":5682:5685   */\n      dup6\n        /* \"#utility.yul\":5645:5699   */\n      tag_80\n      jump\t// in\n    tag_174:\n        /* \"#utility.yul\":5364:5705   */\n      pop\n        /* \"#utility.yul\":5280:5705   */\n      swap4\n      swap3\n      pop\n      pop\n      pop\n      jump\t// out\n        /* \"#utility.yul\":5725:6065   */\n    tag_82:\n        /* \"#utility.yul\":5781:5786   */\n      0x00\n        /* \"#utility.yul\":5830:5833   */\n      dup3\n        /* \"#utility.yul\":5823:5827   */\n      0x1f\n        /* \"#utility.yul\":5815:5821   */\n      dup4\n        /* \"#utility.yul\":5811:5828   */\n      add\n        /* \"#utility.yul\":5807:5834   */\n      slt\n        /* \"#utility.yul\":5797:5919   */\n      tag_176\n      jumpi\n        /* \"#utility.yul\":5838:5917   */\n      tag_177\n      tag_74\n      jump\t// in\n    tag_177:\n        /* \"#utility.yul\":5797:5919   */\n    tag_176:\n        /* \"#utility.yul\":5955:5961   */\n      dup2\n        /* \"#utility.yul\":5942:5962   */\n      calldataload\n        /* \"#utility.yul\":5980:6059   */\n      tag_178\n        /* \"#utility.yul\":6055:6058   */\n      dup5\n        /* \"#utility.yul\":6047:6053   */\n      dup3\n        /* \"#utility.yul\":6040:6044   */\n      0x20\n        /* \"#utility.yul\":6032:6038   */\n      dup7\n        /* \"#utility.yul\":6028:6045   */\n      add\n        /* \"#utility.yul\":5980:6059   */\n      tag_81\n      jump\t// in\n    tag_178:\n        /* \"#utility.yul\":5971:6059   */\n      swap2\n      pop\n        /* \"#utility.yul\":5787:6065   */\n      pop\n        /* \"#utility.yul\":5725:6065   */\n      swap3\n      swap2\n      pop\n      pop\n      jump\t// out\n        /* \"#utility.yul\":6071:6580   */\n    tag_28:\n        /* \"#utility.yul\":6140:6146   */\n      0x00\n        /* \"#utility.yul\":6189:6191   */\n      0x20\n        /* \"#utility.yul\":6177:6186   */\n      dup3\n        /* \"#utility.yul\":6168:6175   */\n      dup5\n        /* \"#utility.yul\":6164:6187   */\n      sub\n        /* \"#utility.yul\":6160:6192   */\n      slt\n        /* \"#utility.yul\":6157:6276   */\n      iszero\n      tag_180\n      jumpi\n        /* \"#utility.yul\":6195:6274   */\n      tag_181\n      tag_58\n      jump\t// in\n    tag_181:\n        /* \"#utility.yul\":6157:6276   */\n    tag_180:\n        /* \"#utility.yul\":6343:6344   */\n      0x00\n        /* \"#utility.yul\":6332:6341   */\n      dup3\n        /* \"#utility.yul\":6328:6345   */\n      add\n        /* \"#utility.yul\":6315:6346   */\n      calldataload\n        /* \"#utility.yul\":6373:6391   */\n      0xffffffffffffffff\n        /* \"#utility.yul\":6365:6371   */\n      dup2\n        /* \"#utility.yul\":6362:6392   */\n      gt\n        /* \"#utility.yul\":6359:6476   */\n      iszero\n      tag_182\n      jumpi\n        /* \"#utility.yul\":6395:6474   */\n      tag_183\n      tag_59\n      jump\t// in\n    tag_183:\n        /* \"#utility.yul\":6359:6476   */\n    tag_182:\n        /* \"#utility.yul\":6500:6563   */\n      tag_184\n        /* \"#utility.yul\":6555:6562   */\n      dup5\n        /* \"#utility.yul\":6546:6552   */\n      dup3\n        /* \"#utility.yul\":6535:6544   */\n      dup6\n        /* \"#utility.yul\":6531:6553   */\n      add\n        /* \"#utility.yul\":6500:6563   */\n      tag_82\n      jump\t// in\n    tag_184:\n        /* \"#utility.yul\":6490:6563   */\n      swap2\n      pop\n        /* \"#utility.yul\":6286:6573   */\n      pop\n        /* \"#utility.yul\":6071:6580   */\n      swap3\n      swap2\n      pop\n      pop\n      jump\t// out\n        /* \"#utility.yul\":6586:6766   */\n    tag_83:\n        /* \"#utility.yul\":6634:6711   */\n      0x4e487b7100000000000000000000000000000000000000000000000000000000\n        /* \"#utility.yul\":6631:6632   */\n      0x00\n        /* \"#utility.yul\":6624:6712   */\n      mstore\n        /* \"#utility.yul\":6731:6735   */\n      0x22\n        /* \"#utility.yul\":6728:6729   */\n      0x04\n        /* \"#utility.yul\":6721:6736   */\n      mstore\n        /* \"#utility.yul\":6755:6759   */\n      0x24\n        /* \"#utility.yul\":6752:6753   */\n      0x00\n        /* \"#utility.yul\":6745:6760   */\n      revert\n        /* \"#utility.yul\":6772:7092   */\n    tag_36:\n        /* \"#utility.yul\":6816:6822   */\n      0x00\n        /* \"#utility.yul\":6853:6854   */\n      0x02\n        /* \"#utility.yul\":6847:6851   */\n      dup3\n        /* \"#utility.yul\":6843:6855   */\n      div\n        /* \"#utility.yul\":6833:6855   */\n      swap1\n      pop\n        /* \"#utility.yul\":6900:6901   */\n      0x01\n        /* \"#utility.yul\":6894:6898   */\n      dup3\n        /* \"#utility.yul\":6890:6902   */\n      and\n        /* \"#utility.yul\":6921:6939   */\n      dup1\n        /* \"#utility.yul\":6911:6992   */\n      tag_187\n      jumpi\n        /* \"#utility.yul\":6977:6981   */\n      0x7f\n        /* \"#utility.yul\":6969:6975   */\n      dup3\n        /* \"#utility.yul\":6965:6982   */\n      and\n        /* \"#utility.yul\":6955:6982   */\n      swap2\n      pop\n        /* \"#utility.yul\":6911:6992   */\n    tag_187:\n        /* \"#utility.yul\":7039:7041   */\n      0x20\n        /* \"#utility.yul\":7031:7037   */\n      dup3\n        /* \"#utility.yul\":7028:7042   */\n      lt\n        /* \"#utility.yul\":7008:7026   */\n      dup2\n        /* \"#utility.yul\":7005:7043   */\n      sub\n        /* \"#utility.yul\":7002:7086   */\n      tag_188\n      jumpi\n        /* \"#utility.yul\":7058:7076   */\n      tag_189\n      tag_83\n      jump\t// in\n    tag_189:\n        /* \"#utility.yul\":7002:7086   */\n    tag_188:\n        /* \"#utility.yul\":6823:7092   */\n      pop\n        /* \"#utility.yul\":6772:7092   */\n      swap2\n      swap1\n      pop\n      jump\t// out\n        /* \"#utility.yul\":7098:7278   */\n    tag_84:\n        /* \"#utility.yul\":7146:7223   */\n      0x4e487b7100000000000000000000000000000000000000000000000000000000\n        /* \"#utility.yul\":7143:7144   */\n      0x00\n        /* \"#utility.yul\":7136:7224   */\n      mstore\n        /* \"#utility.yul\":7243:7247   */\n      0x11\n        /* \"#utility.yul\":7240:7241   */\n      0x04\n        /* \"#utility.yul\":7233:7248   */\n      mstore\n        /* \"#utility.yul\":7267:7271   */\n      0x24\n        /* \"#utility.yul\":7264:7265   */\n      0x00\n        /* \"#utility.yul\":7257:7272   */\n      revert\n        /* \"#utility.yul\":7284:7475   */\n    tag_44:\n        /* \"#utility.yul\":7324:7327   */\n      0x00\n        /* \"#utility.yul\":7343:7363   */\n      tag_192\n        /* \"#utility.yul\":7361:7362   */\n      dup3\n        /* \"#utility.yul\":7343:7363   */\n      tag_60\n      jump\t// in\n    tag_192:\n        /* \"#utility.yul\":7338:7363   */\n      swap2\n      pop\n        /* \"#utility.yul\":7377:7397   */\n      tag_193\n        /* \"#utility.yul\":7395:7396   */\n      dup4\n        /* \"#utility.yul\":7377:7397   */\n      tag_60\n      jump\t// in\n    tag_193:\n        /* \"#utility.yul\":7372:7397   */\n      swap3\n      pop\n        /* \"#utility.yul\":7420:7421   */\n      dup3\n        /* \"#utility.yul\":7417:7418   */\n      dup3\n        /* \"#utility.yul\":7413:7422   */\n      add\n        /* \"#utility.yul\":7406:7422   */\n      swap1\n      pop\n        /* \"#utility.yul\":7441:7444   */\n      dup1\n        /* \"#utility.yul\":7438:7439   */\n      dup3\n        /* \"#utility.yul\":7435:7445   */\n      gt\n        /* \"#utility.yul\":7432:7468   */\n      iszero\n      tag_194\n      jumpi\n        /* \"#utility.yul\":7448:7466   */\n      tag_195\n      tag_84\n      jump\t// in\n    tag_195:\n        /* \"#utility.yul\":7432:7468   */\n    tag_194:\n        /* \"#utility.yul\":7284:7475   */\n      swap3\n      swap2\n      pop\n      pop\n      jump\t// out\n        /* \"#utility.yul\":7481:7560   */\n    tag_85:\n        /* \"#utility.yul\":7520:7527   */\n      0x00\n        /* \"#utility.yul\":7549:7554   */\n      dup2\n        /* \"#utility.yul\":7538:7554   */\n      swap1\n      pop\n        /* \"#utility.yul\":7481:7560   */\n      swap2\n      swap1\n      pop\n      jump\t// out\n        /* \"#utility.yul\":7566:7723   */\n    tag_86:\n        /* \"#utility.yul\":7671:7716   */\n      tag_198\n        /* \"#utility.yul\":7691:7715   */\n      tag_199\n        /* \"#utility.yul\":7709:7714   */\n      dup3\n        /* \"#utility.yul\":7691:7715   */\n      tag_60\n      jump\t// in\n    tag_199:\n        /* \"#utility.yul\":7671:7716   */\n      tag_85\n      jump\t// in\n    tag_198:\n        /* \"#utility.yul\":7666:7669   */\n      dup3\n        /* \"#utility.yul\":7659:7717   */\n      mstore\n        /* \"#utility.yul\":7566:7723   */\n      pop\n      pop\n      jump\t// out\n        /* \"#utility.yul\":7729:7823   */\n    tag_87:\n        /* \"#utility.yul\":7762:7770   */\n      0x00\n        /* \"#utility.yul\":7810:7815   */\n      dup2\n        /* \"#utility.yul\":7806:7808   */\n      0x60\n        /* \"#utility.yul\":7802:7816   */\n      shl\n        /* \"#utility.yul\":7781:7816   */\n      swap1\n      pop\n        /* \"#utility.yul\":7729:7823   */\n      swap2\n      swap1\n      pop\n      jump\t// out\n        /* \"#utility.yul\":7829:7923   */\n    tag_88:\n        /* \"#utility.yul\":7868:7875   */\n      0x00\n        /* \"#utility.yul\":7897:7917   */\n      tag_202\n        /* \"#utility.yul\":7911:7916   */\n      dup3\n        /* \"#utility.yul\":7897:7917   */\n      tag_87\n      jump\t// in\n    tag_202:\n        /* \"#utility.yul\":7886:7917   */\n      swap1\n      pop\n        /* \"#utility.yul\":7829:7923   */\n      swap2\n      swap1\n      pop\n      jump\t// out\n        /* \"#utility.yul\":7929:8029   */\n    tag_89:\n        /* \"#utility.yul\":7968:7975   */\n      0x00\n        /* \"#utility.yul\":7997:8023   */\n      tag_204\n        /* \"#utility.yul\":8017:8022   */\n      dup3\n        /* \"#utility.yul\":7997:8023   */\n      tag_88\n      jump\t// in\n    tag_204:\n        /* \"#utility.yul\":7986:8023   */\n      swap1\n      pop\n        /* \"#utility.yul\":7929:8029   */\n      swap2\n      swap1\n      pop\n      jump\t// out\n        /* \"#utility.yul\":8035:8192   */\n    tag_90:\n        /* \"#utility.yul\":8140:8185   */\n      tag_206\n        /* \"#utility.yul\":8160:8184   */\n      tag_207\n        /* \"#utility.yul\":8178:8183   */\n      dup3\n        /* \"#utility.yul\":8160:8184   */\n      tag_67\n      jump\t// in\n    tag_207:\n        /* \"#utility.yul\":8140:8185   */\n      tag_89\n      jump\t// in\n    tag_206:\n        /* \"#utility.yul\":8135:8138   */\n      dup3\n        /* \"#utility.yul\":8128:8186   */\n      mstore\n        /* \"#utility.yul\":8035:8192   */\n      pop\n      pop\n      jump\t// out\n        /* \"#utility.yul\":8198:8346   */\n    tag_91:\n        /* \"#utility.yul\":8300:8311   */\n      0x00\n        /* \"#utility.yul\":8337:8340   */\n      dup2\n        /* \"#utility.yul\":8322:8340   */\n      swap1\n      pop\n        /* \"#utility.yul\":8198:8346   */\n      swap3\n      swap2\n      pop\n      pop\n      jump\t// out\n        /* \"#utility.yul\":8352:8742   */\n    tag_92:\n        /* \"#utility.yul\":8458:8461   */\n      0x00\n        /* \"#utility.yul\":8486:8525   */\n      tag_210\n        /* \"#utility.yul\":8519:8524   */\n      dup3\n        /* \"#utility.yul\":8486:8525   */\n      tag_69\n      jump\t// in\n    tag_210:\n        /* \"#utility.yul\":8541:8630   */\n      tag_211\n        /* \"#utility.yul\":8623:8629   */\n      dup2\n        /* \"#utility.yul\":8618:8621   */\n      dup6\n        /* \"#utility.yul\":8541:8630   */\n      tag_91\n      jump\t// in\n    tag_211:\n        /* \"#utility.yul\":8534:8630   */\n      swap4\n      pop\n        /* \"#utility.yul\":8639:8704   */\n      tag_212\n        /* \"#utility.yul\":8697:8703   */\n      dup2\n        /* \"#utility.yul\":8692:8695   */\n      dup6\n        /* \"#utility.yul\":8685:8689   */\n      0x20\n        /* \"#utility.yul\":8678:8683   */\n      dup7\n        /* \"#utility.yul\":8674:8690   */\n      add\n        /* \"#utility.yul\":8639:8704   */\n      tag_71\n      jump\t// in\n    tag_212:\n        /* \"#utility.yul\":8729:8735   */\n      dup1\n        /* \"#utility.yul\":8724:8727   */\n      dup5\n        /* \"#utility.yul\":8720:8736   */\n      add\n        /* \"#utility.yul\":8713:8736   */\n      swap2\n      pop\n        /* \"#utility.yul\":8462:8742   */\n      pop\n        /* \"#utility.yul\":8352:8742   */\n      swap3\n      swap2\n      pop\n      pop\n      jump\t// out\n        /* \"#utility.yul\":8748:8827   */\n    tag_93:\n        /* \"#utility.yul\":8787:8794   */\n      0x00\n        /* \"#utility.yul\":8816:8821   */\n      dup2\n        /* \"#utility.yul\":8805:8821   */\n      swap1\n      pop\n        /* \"#utility.yul\":8748:8827   */\n      swap2\n      swap1\n      pop\n      jump\t// out\n        /* \"#utility.yul\":8833:8990   */\n    tag_94:\n        /* \"#utility.yul\":8938:8983   */\n      tag_215\n        /* \"#utility.yul\":8958:8982   */\n      tag_216\n        /* \"#utility.yul\":8976:8981   */\n      dup3\n        /* \"#utility.yul\":8958:8982   */\n      tag_64\n      jump\t// in\n    tag_216:\n        /* \"#utility.yul\":8938:8983   */\n      tag_93\n      jump\t// in\n    tag_215:\n        /* \"#utility.yul\":8933:8936   */\n      dup3\n        /* \"#utility.yul\":8926:8984   */\n      mstore\n        /* \"#utility.yul\":8833:8990   */\n      pop\n      pop\n      jump\t// out\n        /* \"#utility.yul\":8996:9694   */\n    tag_48:\n        /* \"#utility.yul\":9212:9215   */\n      0x00\n        /* \"#utility.yul\":9227:9302   */\n      tag_218\n        /* \"#utility.yul\":9298:9301   */\n      dup3\n        /* \"#utility.yul\":9289:9295   */\n      dup8\n        /* \"#utility.yul\":9227:9302   */\n      tag_86\n      jump\t// in\n    tag_218:\n        /* \"#utility.yul\":9327:9329   */\n      0x20\n        /* \"#utility.yul\":9322:9325   */\n      dup3\n        /* \"#utility.yul\":9318:9330   */\n      add\n        /* \"#utility.yul\":9311:9330   */\n      swap2\n      pop\n        /* \"#utility.yul\":9340:9415   */\n      tag_219\n        /* \"#utility.yul\":9411:9414   */\n      dup3\n        /* \"#utility.yul\":9402:9408   */\n      dup7\n        /* \"#utility.yul\":9340:9415   */\n      tag_90\n      jump\t// in\n    tag_219:\n        /* \"#utility.yul\":9440:9442   */\n      0x14\n        /* \"#utility.yul\":9435:9438   */\n      dup3\n        /* \"#utility.yul\":9431:9443   */\n      add\n        /* \"#utility.yul\":9424:9443   */\n      swap2\n      pop\n        /* \"#utility.yul\":9460:9555   */\n      tag_220\n        /* \"#utility.yul\":9551:9554   */\n      dup3\n        /* \"#utility.yul\":9542:9548   */\n      dup6\n        /* \"#utility.yul\":9460:9555   */\n      tag_92\n      jump\t// in\n    tag_220:\n        /* \"#utility.yul\":9453:9555   */\n      swap2\n      pop\n        /* \"#utility.yul\":9565:9640   */\n      tag_221\n        /* \"#utility.yul\":9636:9639   */\n      dup3\n        /* \"#utility.yul\":9627:9633   */\n      dup5\n        /* \"#utility.yul\":9565:9640   */\n      tag_94\n      jump\t// in\n    tag_221:\n        /* \"#utility.yul\":9665:9667   */\n      0x20\n        /* \"#utility.yul\":9660:9663   */\n      dup3\n        /* \"#utility.yul\":9656:9668   */\n      add\n        /* \"#utility.yul\":9649:9668   */\n      swap2\n      pop\n        /* \"#utility.yul\":9685:9688   */\n      dup2\n        /* \"#utility.yul\":9678:9688   */\n      swap1\n      pop\n        /* \"#utility.yul\":8996:9694   */\n      swap6\n      swap5\n      pop\n      pop\n      pop\n      pop\n      pop\n      jump\t// out\n        /* \"#utility.yul\":9700:9841   */\n    tag_95:\n        /* \"#utility.yul\":9749:9753   */\n      0x00\n        /* \"#utility.yul\":9772:9775   */\n      dup2\n        /* \"#utility.yul\":9764:9775   */\n      swap1\n      pop\n        /* \"#utility.yul\":9795:9798   */\n      dup2\n        /* \"#utility.yul\":9792:9793   */\n      0x00\n        /* \"#utility.yul\":9785:9799   */\n      mstore\n        /* \"#utility.yul\":9829:9833   */\n      0x20\n        /* \"#utility.yul\":9826:9827   */\n      0x00\n        /* \"#utility.yul\":9816:9834   */\n      keccak256\n        /* \"#utility.yul\":9808:9834   */\n      swap1\n      pop\n        /* \"#utility.yul\":9700:9841   */\n      swap2\n      swap1\n      pop\n      jump\t// out\n        /* \"#utility.yul\":9847:9940   */\n    tag_96:\n        /* \"#utility.yul\":9884:9890   */\n      0x00\n        /* \"#utility.yul\":9931:9933   */\n      0x20\n        /* \"#utility.yul\":9926:9928   */\n      0x1f\n        /* \"#utility.yul\":9919:9924   */\n      dup4\n        /* \"#utility.yul\":9915:9929   */\n      add\n        /* \"#utility.yul\":9911:9934   */\n      div\n        /* \"#utility.yul\":9901:9934   */\n      swap1\n      pop\n        /* \"#utility.yul\":9847:9940   */\n      swap2\n      swap1\n      pop\n      jump\t// out\n        /* \"#utility.yul\":9946:10053   */\n    tag_97:\n        /* \"#utility.yul\":9990:9998   */\n      0x00\n        /* \"#utility.yul\":10040:10045   */\n      dup3\n        /* \"#utility.yul\":10034:10038   */\n      dup3\n        /* \"#utility.yul\":10030:10046   */\n      shl\n        /* \"#utility.yul\":10009:10046   */\n      swap1\n      pop\n        /* \"#utility.yul\":9946:10053   */\n      swap3\n      swap2\n      pop\n      pop\n      jump\t// out\n        /* \"#utility.yul\":10059:10452   */\n    tag_98:\n        /* \"#utility.yul\":10128:10134   */\n      0x00\n        /* \"#utility.yul\":10178:10179   */\n      0x08\n        /* \"#utility.yul\":10166:10176   */\n      dup4\n        /* \"#utility.yul\":10162:10180   */\n      mul\n        /* \"#utility.yul\":10201:10298   */\n      tag_226\n        /* \"#utility.yul\":10231:10297   */\n      0xffffffffffffffffffffffffffffffffffffffffffffffffffffffffffffffff\n        /* \"#utility.yul\":10220:10229   */\n      dup3\n        /* \"#utility.yul\":10201:10298   */\n      tag_97\n      jump\t// in\n    tag_226:\n        /* \"#utility.yul\":10319:10358   */\n      tag_227\n        /* \"#utility.yul\":10349:10357   */\n      dup7\n        /* \"#utility.yul\":10338:10347   */\n      dup4\n        /* \"#utility.yul\":10319:10358   */\n      tag_97\n      jump\t// in\n    tag_227:\n        /* \"#utility.yul\":10307:10358   */\n      swap6\n      pop\n        /* \"#utility.yul\":10391:10395   */\n      dup1\n        /* \"#utility.yul\":10387:10396   */\n      not\n        /* \"#utility.yul\":10380:10385   */\n      dup5\n        /* \"#utility.yul\":10376:10397   */\n      and\n        /* \"#utility.yul\":10367:10397   */\n      swap4\n      pop\n        /* \"#utility.yul\":10440:10444   */\n      dup1\n        /* \"#utility.yul\":10430:10438   */\n      dup7\n        /* \"#utility.yul\":10426:10445   */\n      and\n        /* \"#utility.yul\":10419:10424   */\n      dup5\n        /* \"#utility.yul\":10416:10446   */\n      or\n        /* \"#utility.yul\":10406:10446   */\n      swap3\n      pop\n        /* \"#utility.yul\":10135:10452   */\n      pop\n      pop\n        /* \"#utility.yul\":10059:10452   */\n      swap4\n      swap3\n      pop\n      pop\n      pop\n      jump\t// out\n        /* \"#utility.yul\":10458:10518   */\n    tag_99:\n        /* \"#utility.yul\":10486:10489   */\n      0x00\n        /* \"#utility.yul\":10507:10512   */\n      dup2\n        /* \"#utility.yul\":10500:10512   */\n      swap1\n      pop\n        /* \"#utility.yul\":10458:10518   */\n      swap2\n      swap1\n      pop\n      jump\t// out\n        /* \"#utility.yul\":10524:10666   */\n    tag_100:\n        /* \"#utility.yul\":10574:10583   */\n      0x00\n        /* \"#utility.yul\":10607:10660   */\n      tag_230\n        /* \"#utility.yul\":10625:10659   */\n      tag_231\n        /* \"#utility.yul\":10634:10658   */\n      tag_232\n        /* \"#utility.yul\":10652:10657   */\n      dup5\n        /* \"#utility.yul\":10634:10658   */\n      tag_60\n      jump\t// in\n    tag_232:\n        /* \"#utility.yul\":10625:10659   */\n      tag_99\n      jump\t// in\n    tag_231:\n        /* \"#utility.yul\":10607:10660   */\n      tag_60\n      jump\t// in\n    tag_230:\n        /* \"#utility.yul\":10594:10660   */\n      swap1\n      pop\n        /* \"#utility.yul\":10524:10666   */\n      swap2\n      swap1\n      pop\n      jump\t// out\n        /* \"#utility.yul\":10672:10747   */\n    tag_101:\n        /* \"#utility.yul\":10715:10718   */\n      0x00\n        /* \"#utility.yul\":10736:10741   */\n      dup2\n        /* \"#utility.yul\":10729:10741   */\n      swap1\n      pop\n        /* \"#utility.yul\":10672:10747   */\n      swap2\n      swap1\n      pop\n      jump\t// out\n        /* \"#utility.yul\":10753:11022   */\n    tag_102:\n        /* \"#utility.yul\":10863:10902   */\n      tag_235\n        /* \"#utility.yul\":10894:10901   */\n      dup4\n        /* \"#utility.yul\":10863:10902   */\n      tag_100\n      jump\t// in\n    tag_235:\n        /* \"#utility.yul\":10924:11015   */\n      tag_236\n        /* \"#utility.yul\":10973:11014   */\n      tag_237\n        /* \"#utility.yul\":10997:11013   */\n      dup3\n        /* \"#utility.yul\":10973:11014   */\n      tag_101\n      jump\t// in\n    tag_237:\n        /* \"#utility.yul\":10965:10971   */\n      dup5\n        /* \"#utility.yul\":10958:10962   */\n      dup5\n        /* \"#utility.yul\":10952:10963   */\n      sload\n        /* \"#utility.yul\":10924:11015   */\n      tag_98\n      jump\t// in\n    tag_236:\n        /* \"#utility.yul\":10918:10922   */\n      dup3\n        /* \"#utility.yul\":10911:11016   */\n      sstore\n        /* \"#utility.yul\":10829:11022   */\n      pop\n        /* \"#utility.yul\":10753:11022   */\n      pop\n      pop\n      pop\n      jump\t// out\n        /* \"#utility.yul\":11028:11101   */\n    tag_103:\n        /* \"#utility.yul\":11073:11076   */\n      0x00\n        /* \"#utility.yul\":11094:11095   */\n      0x00\n        /* \"#utility.yul\":11087:11095   */\n      swap1\n      pop\n        /* \"#utility.yul\":11028:11101   */\n      swap1\n      jump\t// out\n        /* \"#utility.yul\":11107:11296   */\n    tag_104:\n        /* \"#utility.yul\":11184:11216   */\n      tag_240\n      tag_103\n      jump\t// in\n    tag_240:\n        /* \"#utility.yul\":11225:11290   */\n      tag_241\n        /* \"#utility.yul\":11283:11289   */\n      dup2\n        /* \"#utility.yul\":11275:11281   */\n      dup5\n        /* \"#utility.yul\":11269:11273   */\n      dup5\n        /* \"#utility.yul\":11225:11290   */\n      tag_102\n      jump\t// in\n    tag_241:\n        /* \"#utility.yul\":11160:11296   */\n      pop\n        /* \"#utility.yul\":11107:11296   */\n      pop\n      pop\n      jump\t// out\n        /* \"#utility.yul\":11302:11488   */\n    tag_105:\n        /* \"#utility.yul\":11362:11482   */\n    tag_243:\n        /* \"#utility.yul\":11379:11382   */\n      dup2\n        /* \"#utility.yul\":11372:11377   */\n      dup2\n        /* \"#utility.yul\":11369:11383   */\n      lt\n        /* \"#utility.yul\":11362:11482   */\n      iszero\n      tag_245\n      jumpi\n        /* \"#utility.yul\":11433:11472   */\n      tag_246\n        /* \"#utility.yul\":11470:11471   */\n      0x00\n        /* \"#utility.yul\":11463:11468   */\n      dup3\n        /* \"#utility.yul\":11433:11472   */\n      tag_104\n      jump\t// in\n    tag_246:\n        /* \"#utility.yul\":11406:11407   */\n      0x01\n        /* \"#utility.yul\":11399:11404   */\n      dup2\n        /* \"#utility.yul\":11395:11408   */\n      add\n        /* \"#utility.yul\":11386:11408   */\n      swap1\n      pop\n        /* \"#utility.yul\":11362:11482   */\n      jump(tag_243)\n    tag_245:\n        /* \"#utility.yul\":11302:11488   */\n      pop\n      pop\n      jump\t// out\n        /* \"#utility.yul\":11494:12037   */\n    tag_106:\n        /* \"#utility.yul\":11595:11597   */\n      0x1f\n        /* \"#utility.yul\":11590:11593   */\n      dup3\n        /* \"#utility.yul\":11587:11598   */\n      gt\n        /* \"#utility.yul\":11584:12030   */\n      iszero\n      tag_248\n      jumpi\n        /* \"#utility.yul\":11629:11667   */\n      tag_249\n        /* \"#utility.yul\":11661:11666   */\n      dup2\n        /* \"#utility.yul\":11629:11667   */\n      tag_95\n      jump\t// in\n    tag_249:\n        /* \"#utility.yul\":11713:11742   */\n      tag_250\n        /* \"#utility.yul\":11731:11741   */\n      dup5\n        /* \"#utility.yul\":11713:11742   */\n      tag_96\n      jump\t// in\n    tag_250:\n        /* \"#utility.yul\":11703:11711   */\n      dup2\n        /* \"#utility.yul\":11699:11743   */\n      add\n        /* \"#utility.yul\":11896:11898   */\n      0x20\n        /* \"#utility.yul\":11884:11894   */\n      dup6\n        /* \"#utility.yul\":11881:11899   */\n      lt\n        /* \"#utility.yul\":11878:11927   */\n      iszero\n      tag_251\n      jumpi\n        /* \"#utility.yul\":11917:11925   */\n      dup2\n        /* \"#utility.yul\":11902:11925   */\n      swap1\n      pop\n        /* \"#utility.yul\":11878:11927   */\n    tag_251:\n        /* \"#utility.yul\":11940:12020   */\n      tag_252\n        /* \"#utility.yul\":11996:12018   */\n      tag_253\n        /* \"#utility.yul\":12014:12017   */\n      dup6\n        /* \"#utility.yul\":11996:12018   */\n      tag_96\n      jump\t// in\n    tag_253:\n        /* \"#utility.yul\":11986:11994   */\n      dup4\n        /* \"#utility.yul\":11982:12019   */\n      add\n        /* \"#utility.yul\":11969:11980   */\n      dup3\n        /* \"#utility.yul\":11940:12020   */\n      tag_105\n      jump\t// in\n    tag_252:\n        /* \"#utility.yul\":11599:12030   */\n      pop\n      pop\n        /* \"#utility.yul\":11584:12030   */\n    tag_248:\n        /* \"#utility.yul\":11494:12037   */\n      pop\n      pop\n      pop\n      jump\t// out\n        /* \"#utility.yul\":12043:12160   */\n    tag_107:\n        /* \"#utility.yul\":12097:12105   */\n      0x00\n        /* \"#utility.yul\":12147:12152   */\n      dup3\n        /* \"#utility.yul\":12141:12145   */\n      dup3\n        /* \"#utility.yul\":12137:12153   */\n      shr\n        /* \"#utility.yul\":12116:12153   */\n      swap1\n      pop\n        /* \"#utility.yul\":12043:12160   */\n      swap3\n      swap2\n      pop\n      pop\n      jump\t// out\n        /* \"#utility.yul\":12166:12335   */\n    tag_108:\n        /* \"#utility.yul\":12210:12216   */\n      0x00\n        /* \"#utility.yul\":12243:12294   */\n      tag_256\n        /* \"#utility.yul\":12291:12292   */\n      0x00\n        /* \"#utility.yul\":12287:12293   */\n      not\n        /* \"#utility.yul\":12279:12284   */\n      dup5\n        /* \"#utility.yul\":12276:12277   */\n      0x08\n        /* \"#utility.yul\":12272:12285   */\n      mul\n        /* \"#utility.yul\":12243:12294   */\n      tag_107\n      jump\t// in\n    tag_256:\n        /* \"#utility.yul\":12239:12295   */\n      not\n        /* \"#utility.yul\":12324:12328   */\n      dup1\n        /* \"#utility.yul\":12318:12322   */\n      dup4\n        /* \"#utility.yul\":12314:12329   */\n      and\n        /* \"#utility.yul\":12304:12329   */\n      swap2\n      pop\n        /* \"#utility.yul\":12217:12335   */\n      pop\n        /* \"#utility.yul\":12166:12335   */\n      swap3\n      swap2\n      pop\n      pop\n      jump\t// out\n        /* \"#utility.yul\":12340:12635   */\n    tag_109:\n        /* \"#utility.yul\":12416:12420   */\n      0x00\n        /* \"#utility.yul\":12562:12591   */\n      tag_258\n        /* \"#utility.yul\":12587:12590   */\n      dup4\n        /* \"#utility.yul\":12581:12585   */\n      dup4\n        /* \"#utility.yul\":12562:12591   */\n      tag_108\n      jump\t// in\n    tag_258:\n        /* \"#utility.yul\":12554:12591   */\n      swap2\n      pop\n        /* \"#utility.yul\":12624:12627   */\n      dup3\n        /* \"#utility.yul\":12621:12622   */\n      0x02\n        /* \"#utility.yul\":12617:12628   */\n      mul\n        /* \"#utility.yul\":12611:12615   */\n      dup3\n        /* \"#utility.yul\":12608:12629   */\n      or\n        /* \"#utility.yul\":12600:12629   */\n      swap1\n      pop\n        /* \"#utility.yul\":12340:12635   */\n      swap3\n      swap2\n      pop\n      pop\n      jump\t// out\n        /* \"#utility.yul\":12640:14035   */\n    tag_50:\n        /* \"#utility.yul\":12757:12794   */\n      tag_260\n        /* \"#utility.yul\":12790:12793   */\n      dup3\n        /* \"#utility.yul\":12757:12794   */\n      tag_69\n      jump\t// in\n    tag_260:\n        /* \"#utility.yul\":12859:12877   */\n      0xffffffffffffffff\n        /* \"#utility.yul\":12851:12857   */\n      dup2\n        /* \"#utility.yul\":12848:12878   */\n      gt\n        /* \"#utility.yul\":12845:12901   */\n      iszero\n      tag_261\n      jumpi\n        /* \"#utility.yul\":12881:12899   */\n      tag_262\n      tag_76\n      jump\t// in\n    tag_262:\n        /* \"#utility.yul\":12845:12901   */\n    tag_261:\n        /* \"#utility.yul\":12925:12963   */\n      tag_263\n        /* \"#utility.yul\":12957:12961   */\n      dup3\n        /* \"#utility.yul\":12951:12962   */\n      sload\n        /* \"#utility.yul\":12925:12963   */\n      tag_36\n      jump\t// in\n    tag_263:\n        /* \"#utility.yul\":13010:13077   */\n      tag_264\n        /* \"#utility.yul\":13070:13076   */\n      dup3\n        /* \"#utility.yul\":13062:13068   */\n      dup3\n        /* \"#utility.yul\":13056:13060   */\n      dup6\n        /* \"#utility.yul\":13010:13077   */\n      tag_106\n      jump\t// in\n    tag_264:\n        /* \"#utility.yul\":13104:13105   */\n      0x00\n        /* \"#utility.yul\":13128:13132   */\n      0x20\n        /* \"#utility.yul\":13115:13132   */\n      swap1\n      pop\n        /* \"#utility.yul\":13160:13162   */\n      0x1f\n        /* \"#utility.yul\":13152:13158   */\n      dup4\n        /* \"#utility.yul\":13149:13163   */\n      gt\n        /* \"#utility.yul\":13177:13178   */\n      0x01\n        /* \"#utility.yul\":13172:13790   */\n      dup2\n      eq\n      tag_266\n      jumpi\n        /* \"#utility.yul\":13834:13835   */\n      0x00\n        /* \"#utility.yul\":13851:13857   */\n      dup5\n        /* \"#utility.yul\":13848:13925   */\n      iszero\n      tag_267\n      jumpi\n        /* \"#utility.yul\":13900:13909   */\n      dup3\n        /* \"#utility.yul\":13895:13898   */\n      dup8\n        /* \"#utility.yul\":13891:13910   */\n      add\n        /* \"#utility.yul\":13885:13911   */\n      mload\n        /* \"#utility.yul\":13876:13911   */\n      swap1\n      pop\n        /* \"#utility.yul\":13848:13925   */\n    tag_267:\n        /* \"#utility.yul\":13951:14018   */\n      tag_268\n        /* \"#utility.yul\":14011:14017   */\n      dup6\n        /* \"#utility.yul\":14004:14009   */\n      dup3\n        /* \"#utility.yul\":13951:14018   */\n      tag_109\n      jump\t// in\n    tag_268:\n        /* \"#utility.yul\":13945:13949   */\n      dup7\n        /* \"#utility.yul\":13938:14019   */\n      sstore\n        /* \"#utility.yul\":13807:14029   */\n      pop\n        /* \"#utility.yul\":13142:14029   */\n      jump(tag_265)\n        /* \"#utility.yul\":13172:13790   */\n    tag_266:\n        /* \"#utility.yul\":13224:13228   */\n      0x1f\n        /* \"#utility.yul\":13220:13229   */\n      not\n        /* \"#utility.yul\":13212:13218   */\n      dup5\n        /* \"#utility.yul\":13208:13230   */\n      and\n        /* \"#utility.yul\":13258:13295   */\n      tag_269\n        /* \"#utility.yul\":13290:13294   */\n      dup7\n        /* \"#utility.yul\":13258:13295   */\n      tag_95\n      jump\t// in\n    tag_269:\n        /* \"#utility.yul\":13317:13318   */\n      0x00\n        /* \"#utility.yul\":13331:13539   */\n    tag_270:\n        /* \"#utility.yul\":13345:13352   */\n      dup3\n        /* \"#utility.yul\":13342:13343   */\n      dup2\n        /* \"#utility.yul\":13339:13353   */\n      lt\n        /* \"#utility.yul\":13331:13539   */\n      iszero\n      tag_272\n      jumpi\n        /* \"#utility.yul\":13424:13433   */\n      dup5\n        /* \"#utility.yul\":13419:13422   */\n      dup10\n        /* \"#utility.yul\":13415:13434   */\n      add\n        /* \"#utility.yul\":13409:13435   */\n      mload\n        /* \"#utility.yul\":13401:13407   */\n      dup3\n        /* \"#utility.yul\":13394:13436   */\n      sstore\n        /* \"#utility.yul\":13475:13476   */\n      0x01\n        /* \"#utility.yul\":13467:13473   */\n      dup3\n        /* \"#utility.yul\":13463:13477   */\n      add\n        /* \"#utility.yul\":13453:13477   */\n      swap2\n      pop\n        /* \"#utility.yul\":13522:13524   */\n      0x20\n        /* \"#utility.yul\":13511:13520   */\n      dup6\n        /* \"#utility.yul\":13507:13525   */\n      add\n        /* \"#utility.yul\":13494:13525   */\n      swap5\n      pop\n        /* \"#utility.yul\":13368:13372   */\n      0x20\n        /* \"#utility.yul\":13365:13366   */\n      dup2\n        /* \"#utility.yul\":13361:13373   */\n      add\n        /* \"#utility.yul\":13356:13373   */\n      swap1\n      pop\n        /* \"#utility.yul\":13331:13539   */\n      jump(tag_270)\n    tag_272:\n        /* \"#utility.yul\":13567:13573   */\n      dup7\n        /* \"#utility.yul\":13558:13565   */\n      dup4\n        /* \"#utility.yul\":13555:13574   */\n      lt\n        /* \"#utility.yul\":13552:13731   */\n      iszero\n      tag_273\n      jumpi\n        /* \"#utility.yul\":13625:13634   */\n      dup5\n        /* \"#utility.yul\":13620:13623   */\n      dup10\n        /* \"#utility.yul\":13616:13635   */\n      add\n        /* \"#utility.yul\":13610:13636   */\n      mload\n        /* \"#utility.yul\":13668:13716   */\n      tag_274\n        /* \"#utility.yul\":13710:13714   */\n      0x1f\n        /* \"#utility.yul\":13702:13708   */\n      dup10\n        /* \"#utility.yul\":13698:13715   */\n      and\n        /* \"#utility.yul\":13687:13696   */\n      dup3\n        /* \"#utility.yul\":13668:13716   */\n      tag_108\n      jump\t// in\n    tag_274:\n        /* \"#utility.yul\":13660:13666   */\n      dup4\n        /* \"#utility.yul\":13653:13717   */\n      sstore\n        /* \"#utility.yul\":13575:13731   */\n      pop\n        /* \"#utility.yul\":13552:13731   */\n    tag_273:\n        /* \"#utility.yul\":13777:13778   */\n      0x01\n        /* \"#utility.yul\":13773:13774   */\n      0x02\n        /* \"#utility.yul\":13765:13771   */\n      dup9\n        /* \"#utility.yul\":13761:13775   */\n      mul\n        /* \"#utility.yul\":13757:13779   */\n      add\n        /* \"#utility.yul\":13751:13755   */\n      dup9\n        /* \"#utility.yul\":13744:13780   */\n      sstore\n        /* \"#utility.yul\":13179:13790   */\n      pop\n      pop\n      pop\n        /* \"#utility.yul\":13142:14029   */\n    tag_265:\n      pop\n        /* \"#utility.yul\":12732:14035   */\n      pop\n      pop\n      pop\n        /* \"#utility.yul\":12640:14035   */\n      pop\n      pop\n      jump\t// out\n\n    auxdata: 0xa26469706673582212200fd38138352cec5834102ce9ec0416e4411990d8a3004cc41f691563f897d38564736f6c634300081e0033\n}\n",
				"bytecode": {
					"linkReferences": {},
					"object": "608060405234801561000f575f5ffd5b505f4233604051602001610024929190610299565b6040516020818303038152906040528051906020012090506040518060c001604052805f81526020015f5f1b81526020018281526020013373ffffffffffffffffffffffffffffffffffffffff1681526020016040518060400160405280600d81526020017f47656e6573697320426c6f636b000000000000000000000000000000000000008152508152602001428152505f5f5f81526020019081526020015f205f820151815f015560208201518160010155604082015181600201556060820151816003015f6101000a81548173ffffffffffffffffffffffffffffffffffffffff021916908373ffffffffffffffffffffffffffffffffffffffff160217905550608082015181600401908161013d9190610503565b5060a082015181600501559050505f6001819055503373ffffffffffffffffffffffffffffffffffffffff165f7f84c1f3580ae009522c870c7efc2c3dc362bb7c75603ba15b642a5f0f954086438360405161019991906105ea565b60405180910390a350610603565b5f819050919050565b5f819050919050565b6101ca6101c5826101a7565b6101b0565b82525050565b5f73ffffffffffffffffffffffffffffffffffffffff82169050919050565b5f6101f9826101d0565b9050919050565b5f8160601b9050919050565b5f61021682610200565b9050919050565b5f6102278261020c565b9050919050565b61023f61023a826101ef565b61021d565b82525050565b5f81905092915050565b7f47656e6573697320426c6f636b000000000000000000000000000000000000005f82015250565b5f610283600d83610245565b915061028e8261024f565b600d82019050919050565b5f6102a482856101b9565b6020820191506102b4828461022e565b6014820191506102c382610277565b91508190509392505050565b5f81519050919050565b7f4e487b71000000000000000000000000000000000000000000000000000000005f52604160045260245ffd5b7f4e487b71000000000000000000000000000000000000000000000000000000005f52602260045260245ffd5b5f600282049050600182168061034a57607f821691505b60208210810361035d5761035c610306565b5b50919050565b5f819050815f5260205f209050919050565b5f6020601f8301049050919050565b5f82821b905092915050565b5f600883026103bf7fffffffffffffffffffffffffffffffffffffffffffffffffffffffffffffffff82610384565b6103c98683610384565b95508019841693508086168417925050509392505050565b5f819050919050565b5f6104046103ff6103fa846101a7565b6103e1565b6101a7565b9050919050565b5f819050919050565b61041d836103ea565b6104316104298261040b565b848454610390565b825550505050565b5f5f905090565b610448610439565b610453818484610414565b505050565b5b818110156104765761046b5f82610440565b600181019050610459565b5050565b601f8211156104bb5761048c81610363565b61049584610375565b810160208510156104a4578190505b6104b86104b085610375565b830182610458565b50505b505050565b5f82821c905092915050565b5f6104db5f19846008026104c0565b1980831691505092915050565b5f6104f383836104cc565b9150826002028217905092915050565b61050c826102cf565b67ffffffffffffffff811115610525576105246102d9565b5b61052f8254610333565b61053a82828561047a565b5f60209050601f83116001811461056b575f8415610559578287015190505b61056385826104e8565b8655506105ca565b601f19841661057986610363565b5f5b828110156105a05784890151825560018201915060208501945060208101905061057b565b868310156105bd57848901516105b9601f8916826104cc565b8355505b6001600288020188555050505b505050505050565b5f819050919050565b6105e4816105d2565b82525050565b5f6020820190506105fd5f8301846105db565b92915050565b610d02806106105f395ff3fe608060405234801561000f575f5ffd5b5060043610610060575f3560e01c806304c075691461006457806342bcad28146100995780638f2bab07146100b7578063a4388d22146100d5578063dc6548b0146100f3578063f25b3f991461010f575b5f5ffd5b61007e6004803603810190610079919061058c565b610144565b6040516100909695949392919061068d565b60405180910390f35b6100a16102a8565b6040516100ae91906106f3565b60405180910390f35b6100bf6102c4565b6040516100cc919061070c565b60405180910390f35b6100dd6102d8565b6040516100ea919061070c565b60405180910390f35b61010d60048036038101906101089190610851565b6102de565b005b6101296004803603810190610124919061058c565b61046c565b60405161013b9695949392919061068d565b60405180910390f35b5f5f5f5f60605f5f5f5f8981526020019081526020015f206040518060c00160405290815f82015481526020016001820154815260200160028201548152602001600382015f9054906101000a900473ffffffffffffffffffffffffffffffffffffffff1673ffffffffffffffffffffffffffffffffffffffff1673ffffffffffffffffffffffffffffffffffffffff1681526020016004820180546101e9906108c5565b80601f0160208091040260200160405190810160405280929190818152602001828054610215906108c5565b80156102605780601f1061023757610100808354040283529160200191610260565b820191905f5260205f20905b81548152906001019060200180831161024357829003601f168201915b505050505081526020016005820154815250509050805f015181602001518260400151836060015184608001518560a001519650965096509650965096505091939550919395565b5f5f5f60015481526020019081526020015f2060020154905090565b5f600180546102d39190610922565b905090565b60015481565b5f600180546102ed9190610922565b90505f5f5f60015481526020019081526020015f206002015490505f423385846040516020016103209493929190610a14565b6040516020818303038152906040528051906020012090506040518060c001604052808481526020018381526020018281526020013373ffffffffffffffffffffffffffffffffffffffff168152602001858152602001428152505f5f8581526020019081526020015f205f820151815f015560208201518160010155604082015181600201556060820151816003015f6101000a81548173ffffffffffffffffffffffffffffffffffffffff021916908373ffffffffffffffffffffffffffffffffffffffff16021790555060808201518160040190816104029190610bfd565b5060a08201518160050155905050826001819055503373ffffffffffffffffffffffffffffffffffffffff16837f84c1f3580ae009522c870c7efc2c3dc362bb7c75603ba15b642a5f0f954086438360405161045e91906106f3565b60405180910390a350505050565b5f602052805f5260405f205f91509050805f015490806001015490806002015490806003015f9054906101000a900473ffffffffffffffffffffffffffffffffffffffff16908060040180546104c1906108c5565b80601f01602080910402602001604051908101604052809291908181526020018280546104ed906108c5565b80156105385780601f1061050f57610100808354040283529160200191610538565b820191905f5260205f20905b81548152906001019060200180831161051b57829003601f168201915b5050505050908060050154905086565b5f604051905090565b5f5ffd5b5f5ffd5b5f819050919050565b61056b81610559565b8114610575575f5ffd5b50565b5f8135905061058681610562565b92915050565b5f602082840312156105a1576105a0610551565b5b5f6105ae84828501610578565b91505092915050565b6105c081610559565b82525050565b5f819050919050565b6105d8816105c6565b82525050565b5f73ffffffffffffffffffffffffffffffffffffffff82169050919050565b5f610607826105de565b9050919050565b610617816105fd565b82525050565b5f81519050919050565b5f82825260208201905092915050565b8281835e5f83830152505050565b5f601f19601f8301169050919050565b5f61065f8261061d565b6106698185610627565b9350610679818560208601610637565b61068281610645565b840191505092915050565b5f60c0820190506106a05f8301896105b7565b6106ad60208301886105cf565b6106ba60408301876105cf565b6106c7606083018661060e565b81810360808301526106d98185610655565b90506106e860a08301846105b7565b979650505050505050565b5f6020820190506107065f8301846105cf565b92915050565b5f60208201905061071f5f8301846105b7565b92915050565b5f5ffd5b5f5ffd5b7f4e487b71000000000000000000000000000000000000000000000000000000005f52604160045260245ffd5b61076382610645565b810181811067ffffffffffffffff821117156107825761078161072d565b5b80604052505050565b5f610794610548565b90506107a0828261075a565b919050565b5f67ffffffffffffffff8211156107bf576107be61072d565b5b6107c882610645565b9050602081019050919050565b828183375f83830152505050565b5f6107f56107f0846107a5565b61078b565b90508281526020810184848401111561081157610810610729565b5b61081c8482856107d5565b509392505050565b5f82601f83011261083857610837610725565b5b81356108488482602086016107e3565b91505092915050565b5f6020828403121561086657610865610551565b5b5f82013567ffffffffffffffff81111561088357610882610555565b5b61088f84828501610824565b91505092915050565b7f4e487b71000000000000000000000000000000000000000000000000000000005f52602260045260245ffd5b5f60028204905060018216806108dc57607f821691505b6020821081036108ef576108ee610898565b5b50919050565b7f4e487b71000000000000000000000000000000000000000000000000000000005f52601160045260245ffd5b5f61092c82610559565b915061093783610559565b925082820190508082111561094f5761094e6108f5565b5b92915050565b5f819050919050565b61096f61096a82610559565b610955565b82525050565b5f8160601b9050919050565b5f61098b82610975565b9050919050565b5f61099c82610981565b9050919050565b6109b46109af826105fd565b610992565b82525050565b5f81905092915050565b5f6109ce8261061d565b6109d881856109ba565b93506109e8818560208601610637565b80840191505092915050565b5f819050919050565b610a0e610a09826105c6565b6109f4565b82525050565b5f610a1f828761095e565b602082019150610a2f82866109a3565b601482019150610a3f82856109c4565b9150610a4b82846109fd565b60208201915081905095945050505050565b5f819050815f5260205f209050919050565b5f6020601f8301049050919050565b5f82821b905092915050565b5f60088302610ab97fffffffffffffffffffffffffffffffffffffffffffffffffffffffffffffffff82610a7e565b610ac38683610a7e565b95508019841693508086168417925050509392505050565b5f819050919050565b5f610afe610af9610af484610559565b610adb565b610559565b9050919050565b5f819050919050565b610b1783610ae4565b610b2b610b2382610b05565b848454610a8a565b825550505050565b5f5f905090565b610b42610b33565b610b4d818484610b0e565b505050565b5b81811015610b7057610b655f82610b3a565b600181019050610b53565b5050565b601f821115610bb557610b8681610a5d565b610b8f84610a6f565b81016020851015610b9e578190505b610bb2610baa85610a6f565b830182610b52565b50505b505050565b5f82821c905092915050565b5f610bd55f1984600802610bba565b1980831691505092915050565b5f610bed8383610bc6565b9150826002028217905092915050565b610c068261061d565b67ffffffffffffffff811115610c1f57610c1e61072d565b5b610c2982546108c5565b610c34828285610b74565b5f60209050601f831160018114610c65575f8415610c53578287015190505b610c5d8582610be2565b865550610cc4565b601f198416610c7386610a5d565b5f5b82811015610c9a57848901518255600182019150602085019450602081019050610c75565b86831015610cb75784890151610cb3601f891682610bc6565b8355505b6001600288020188555050505b50505050505056fea26469706673582212200fd38138352cec5834102ce9ec0416e4411990d8a3004cc41f691563f897d38564736f6c634300081e0033",
					"opcodes": "PUSH1 0x80 PUSH1 0x40 MSTORE CALLVALUE DUP1 ISZERO PUSH2 0xF JUMPI PUSH0 PUSH0 REVERT JUMPDEST POP PUSH0 TIMESTAMP CALLER PUSH1 0x40 MLOAD PUSH1 0x20 ADD PUSH2 0x24 SWAP3 SWAP2 SWAP1 PUSH2 0x299 JUMP JUMPDEST PUSH1 0x40 MLOAD PUSH1 0x20 DUP2 DUP4 SUB SUB DUP2 MSTORE SWAP1 PUSH1 0x40 MSTORE DUP1 MLOAD SWAP1 PUSH1 0x20 ADD KECCAK256 SWAP1 POP PUSH1 0x40 MLOAD DUP1 PUSH1 0xC0 ADD PUSH1 0x40 MSTORE DUP1 PUSH0 DUP2 MSTORE PUSH1 0x20 ADD PUSH0 PUSH0 SHL DUP2 MSTORE PUSH1 0x20 ADD DUP3 DUP2 MSTORE PUSH1 0x20 ADD CALLER PUSH20 0xFFFFFFFFFFFFFFFFFFFFFFFFFFFFFFFFFFFFFFFF AND DUP2 MSTORE PUSH1 0x20 ADD PUSH1 0x40 MLOAD DUP1 PUSH1 0x40 ADD PUSH1 0x40 MSTORE DUP1 PUSH1 0xD DUP2 MSTORE PUSH1 0x20 ADD PUSH32 0x47656E6573697320426C6F636B00000000000000000000000000000000000000 DUP2 MSTORE POP DUP2 MSTORE PUSH1 0x20 ADD TIMESTAMP DUP2 MSTORE POP PUSH0 PUSH0 PUSH0 DUP2 MSTORE PUSH1 0x20 ADD SWAP1 DUP2 MSTORE PUSH1 0x20 ADD PUSH0 KECCAK256 PUSH0 DUP3 ADD MLOAD DUP2 PUSH0 ADD SSTORE PUSH1 0x20 DUP3 ADD MLOAD DUP2 PUSH1 0x1 ADD SSTORE PUSH1 0x40 DUP3 ADD MLOAD DUP2 PUSH1 0x2 ADD SSTORE PUSH1 0x60 DUP3 ADD MLOAD DUP2 PUSH1 0x3 ADD PUSH0 PUSH2 0x100 EXP DUP2 SLOAD DUP2 PUSH20 0xFFFFFFFFFFFFFFFFFFFFFFFFFFFFFFFFFFFFFFFF MUL NOT AND SWAP1 DUP4 PUSH20 0xFFFFFFFFFFFFFFFFFFFFFFFFFFFFFFFFFFFFFFFF AND MUL OR SWAP1 SSTORE POP PUSH1 0x80 DUP3 ADD MLOAD DUP2 PUSH1 0x4 ADD SWAP1 DUP2 PUSH2 0x13D SWAP2 SWAP1 PUSH2 0x503 JUMP JUMPDEST POP PUSH1 0xA0 DUP3 ADD MLOAD DUP2 PUSH1 0x5 ADD SSTORE SWAP1 POP POP PUSH0 PUSH1 0x1 DUP2 SWAP1 SSTORE POP CALLER PUSH20 0xFFFFFFFFFFFFFFFFFFFFFFFFFFFFFFFFFFFFFFFF AND PUSH0 PUSH32 0x84C1F3580AE009522C870C7EFC2C3DC362BB7C75603BA15B642A5F0F95408643 DUP4 PUSH1 0x40 MLOAD PUSH2 0x199 SWAP2 SWAP1 PUSH2 0x5EA JUMP JUMPDEST PUSH1 0x40 MLOAD DUP1 SWAP2 SUB SWAP1 LOG3 POP PUSH2 0x603 JUMP JUMPDEST PUSH0 DUP2 SWAP1 POP SWAP2 SWAP1 POP JUMP JUMPDEST PUSH0 DUP2 SWAP1 POP SWAP2 SWAP1 POP JUMP JUMPDEST PUSH2 0x1CA PUSH2 0x1C5 DUP3 PUSH2 0x1A7 JUMP JUMPDEST PUSH2 0x1B0 JUMP JUMPDEST DUP3 MSTORE POP POP JUMP JUMPDEST PUSH0 PUSH20 0xFFFFFFFFFFFFFFFFFFFFFFFFFFFFFFFFFFFFFFFF DUP3 AND SWAP1 POP SWAP2 SWAP1 POP JUMP JUMPDEST PUSH0 PUSH2 0x1F9 DUP3 PUSH2 0x1D0 JUMP JUMPDEST SWAP1 POP SWAP2 SWAP1 POP JUMP JUMPDEST PUSH0 DUP2 PUSH1 0x60 SHL SWAP1 POP SWAP2 SWAP1 POP JUMP JUMPDEST PUSH0 PUSH2 0x216 DUP3 PUSH2 0x200 JUMP JUMPDEST SWAP1 POP SWAP2 SWAP1 POP JUMP JUMPDEST PUSH0 PUSH2 0x227 DUP3 PUSH2 0x20C JUMP JUMPDEST SWAP1 POP SWAP2 SWAP1 POP JUMP JUMPDEST PUSH2 0x23F PUSH2 0x23A DUP3 PUSH2 0x1EF JUMP JUMPDEST PUSH2 0x21D JUMP JUMPDEST DUP3 MSTORE POP POP JUMP JUMPDEST PUSH0 DUP2 SWAP1 POP SWAP3 SWAP2 POP POP JUMP JUMPDEST PUSH32 0x47656E6573697320426C6F636B00000000000000000000000000000000000000 PUSH0 DUP3 ADD MSTORE POP JUMP JUMPDEST PUSH0 PUSH2 0x283 PUSH1 0xD DUP4 PUSH2 0x245 JUMP JUMPDEST SWAP2 POP PUSH2 0x28E DUP3 PUSH2 0x24F JUMP JUMPDEST PUSH1 0xD DUP3 ADD SWAP1 POP SWAP2 SWAP1 POP JUMP JUMPDEST PUSH0 PUSH2 0x2A4 DUP3 DUP6 PUSH2 0x1B9 JUMP JUMPDEST PUSH1 0x20 DUP3 ADD SWAP2 POP PUSH2 0x2B4 DUP3 DUP5 PUSH2 0x22E JUMP JUMPDEST PUSH1 0x14 DUP3 ADD SWAP2 POP PUSH2 0x2C3 DUP3 PUSH2 0x277 JUMP JUMPDEST SWAP2 POP DUP2 SWAP1 POP SWAP4 SWAP3 POP POP POP JUMP JUMPDEST PUSH0 DUP2 MLOAD SWAP1 POP SWAP2 SWAP1 POP JUMP JUMPDEST PUSH32 0x4E487B7100000000000000000000000000000000000000000000000000000000 PUSH0 MSTORE PUSH1 0x41 PUSH1 0x4 MSTORE PUSH1 0x24 PUSH0 REVERT JUMPDEST PUSH32 0x4E487B7100000000000000000000000000000000000000000000000000000000 PUSH0 MSTORE PUSH1 0x22 PUSH1 0x4 MSTORE PUSH1 0x24 PUSH0 REVERT JUMPDEST PUSH0 PUSH1 0x2 DUP3 DIV SWAP1 POP PUSH1 0x1 DUP3 AND DUP1 PUSH2 0x34A JUMPI PUSH1 0x7F DUP3 AND SWAP2 POP JUMPDEST PUSH1 0x20 DUP3 LT DUP2 SUB PUSH2 0x35D JUMPI PUSH2 0x35C PUSH2 0x306 JUMP JUMPDEST JUMPDEST POP SWAP2 SWAP1 POP JUMP JUMPDEST PUSH0 DUP2 SWAP1 POP DUP2 PUSH0 MSTORE PUSH1 0x20 PUSH0 KECCAK256 SWAP1 POP SWAP2 SWAP1 POP JUMP JUMPDEST PUSH0 PUSH1 0x20 PUSH1 0x1F DUP4 ADD DIV SWAP1 POP SWAP2 SWAP1 POP JUMP JUMPDEST PUSH0 DUP3 DUP3 SHL SWAP1 POP SWAP3 SWAP2 POP POP JUMP JUMPDEST PUSH0 PUSH1 0x8 DUP4 MUL PUSH2 0x3BF PUSH32 0xFFFFFFFFFFFFFFFFFFFFFFFFFFFFFFFFFFFFFFFFFFFFFFFFFFFFFFFFFFFFFFFF DUP3 PUSH2 0x384 JUMP JUMPDEST PUSH2 0x3C9 DUP7 DUP4 PUSH2 0x384 JUMP JUMPDEST SWAP6 POP DUP1 NOT DUP5 AND SWAP4 POP DUP1 DUP7 AND DUP5 OR SWAP3 POP POP POP SWAP4 SWAP3 POP POP POP JUMP JUMPDEST PUSH0 DUP2 SWAP1 POP SWAP2 SWAP1 POP JUMP JUMPDEST PUSH0 PUSH2 0x404 PUSH2 0x3FF PUSH2 0x3FA DUP5 PUSH2 0x1A7 JUMP JUMPDEST PUSH2 0x3E1 JUMP JUMPDEST PUSH2 0x1A7 JUMP JUMPDEST SWAP1 POP SWAP2 SWAP1 POP JUMP JUMPDEST PUSH0 DUP2 SWAP1 POP SWAP2 SWAP1 POP JUMP JUMPDEST PUSH2 0x41D DUP4 PUSH2 0x3EA JUMP JUMPDEST PUSH2 0x431 PUSH2 0x429 DUP3 PUSH2 0x40B JUMP JUMPDEST DUP5 DUP5 SLOAD PUSH2 0x390 JUMP JUMPDEST DUP3 SSTORE POP POP POP POP JUMP JUMPDEST PUSH0 PUSH0 SWAP1 POP SWAP1 JUMP JUMPDEST PUSH2 0x448 PUSH2 0x439 JUMP JUMPDEST PUSH2 0x453 DUP2 DUP5 DUP5 PUSH2 0x414 JUMP JUMPDEST POP POP POP JUMP JUMPDEST JUMPDEST DUP2 DUP2 LT ISZERO PUSH2 0x476 JUMPI PUSH2 0x46B PUSH0 DUP3 PUSH2 0x440 JUMP JUMPDEST PUSH1 0x1 DUP2 ADD SWAP1 POP PUSH2 0x459 JUMP JUMPDEST POP POP JUMP JUMPDEST PUSH1 0x1F DUP3 GT ISZERO PUSH2 0x4BB JUMPI PUSH2 0x48C DUP2 PUSH2 0x363 JUMP JUMPDEST PUSH2 0x495 DUP5 PUSH2 0x375 JUMP JUMPDEST DUP2 ADD PUSH1 0x20 DUP6 LT ISZERO PUSH2 0x4A4 JUMPI DUP2 SWAP1 POP JUMPDEST PUSH2 0x4B8 PUSH2 0x4B0 DUP6 PUSH2 0x375 JUMP JUMPDEST DUP4 ADD DUP3 PUSH2 0x458 JUMP JUMPDEST POP POP JUMPDEST POP POP POP JUMP JUMPDEST PUSH0 DUP3 DUP3 SHR SWAP1 POP SWAP3 SWAP2 POP POP JUMP JUMPDEST PUSH0 PUSH2 0x4DB PUSH0 NOT DUP5 PUSH1 0x8 MUL PUSH2 0x4C0 JUMP JUMPDEST NOT DUP1 DUP4 AND SWAP2 POP POP SWAP3 SWAP2 POP POP JUMP JUMPDEST PUSH0 PUSH2 0x4F3 DUP4 DUP4 PUSH2 0x4CC JUMP JUMPDEST SWAP2 POP DUP3 PUSH1 0x2 MUL DUP3 OR SWAP1 POP SWAP3 SWAP2 POP POP JUMP JUMPDEST PUSH2 0x50C DUP3 PUSH2 0x2CF JUMP JUMPDEST PUSH8 0xFFFFFFFFFFFFFFFF DUP2 GT ISZERO PUSH2 0x525 JUMPI PUSH2 0x524 PUSH2 0x2D9 JUMP JUMPDEST JUMPDEST PUSH2 0x52F DUP3 SLOAD PUSH2 0x333 JUMP JUMPDEST PUSH2 0x53A DUP3 DUP3 DUP6 PUSH2 0x47A JUMP JUMPDEST PUSH0 PUSH1 0x20 SWAP1 POP PUSH1 0x1F DUP4 GT PUSH1 0x1 DUP2 EQ PUSH2 0x56B JUMPI PUSH0 DUP5 ISZERO PUSH2 0x559 JUMPI DUP3 DUP8 ADD MLOAD SWAP1 POP JUMPDEST PUSH2 0x563 DUP6 DUP3 PUSH2 0x4E8 JUMP JUMPDEST DUP7 SSTORE POP PUSH2 0x5CA JUMP JUMPDEST PUSH1 0x1F NOT DUP5 AND PUSH2 0x579 DUP7 PUSH2 0x363 JUMP JUMPDEST PUSH0 JUMPDEST DUP3 DUP2 LT ISZERO PUSH2 0x5A0 JUMPI DUP5 DUP10 ADD MLOAD DUP3 SSTORE PUSH1 0x1 DUP3 ADD SWAP2 POP PUSH1 0x20 DUP6 ADD SWAP5 POP PUSH1 0x20 DUP2 ADD SWAP1 POP PUSH2 0x57B JUMP JUMPDEST DUP7 DUP4 LT ISZERO PUSH2 0x5BD JUMPI DUP5 DUP10 ADD MLOAD PUSH2 0x5B9 PUSH1 0x1F DUP10 AND DUP3 PUSH2 0x4CC JUMP JUMPDEST DUP4 SSTORE POP JUMPDEST PUSH1 0x1 PUSH1 0x2 DUP9 MUL ADD DUP9 SSTORE POP POP POP JUMPDEST POP POP POP POP POP POP JUMP JUMPDEST PUSH0 DUP2 SWAP1 POP SWAP2 SWAP1 POP JUMP JUMPDEST PUSH2 0x5E4 DUP2 PUSH2 0x5D2 JUMP JUMPDEST DUP3 MSTORE POP POP JUMP JUMPDEST PUSH0 PUSH1 0x20 DUP3 ADD SWAP1 POP PUSH2 0x5FD PUSH0 DUP4 ADD DUP5 PUSH2 0x5DB JUMP JUMPDEST SWAP3 SWAP2 POP POP JUMP JUMPDEST PUSH2 0xD02 DUP1 PUSH2 0x610 PUSH0 CODECOPY PUSH0 RETURN INVALID PUSH1 0x80 PUSH1 0x40 MSTORE CALLVALUE DUP1 ISZERO PUSH2 0xF JUMPI PUSH0 PUSH0 REVERT JUMPDEST POP PUSH1 0x4 CALLDATASIZE LT PUSH2 0x60 JUMPI PUSH0 CALLDATALOAD PUSH1 0xE0 SHR DUP1 PUSH4 0x4C07569 EQ PUSH2 0x64 JUMPI DUP1 PUSH4 0x42BCAD28 EQ PUSH2 0x99 JUMPI DUP1 PUSH4 0x8F2BAB07 EQ PUSH2 0xB7 JUMPI DUP1 PUSH4 0xA4388D22 EQ PUSH2 0xD5 JUMPI DUP1 PUSH4 0xDC6548B0 EQ PUSH2 0xF3 JUMPI DUP1 PUSH4 0xF25B3F99 EQ PUSH2 0x10F JUMPI JUMPDEST PUSH0 PUSH0 REVERT JUMPDEST PUSH2 0x7E PUSH1 0x4 DUP1 CALLDATASIZE SUB DUP2 ADD SWAP1 PUSH2 0x79 SWAP2 SWAP1 PUSH2 0x58C JUMP JUMPDEST PUSH2 0x144 JUMP JUMPDEST PUSH1 0x40 MLOAD PUSH2 0x90 SWAP7 SWAP6 SWAP5 SWAP4 SWAP3 SWAP2 SWAP1 PUSH2 0x68D JUMP JUMPDEST PUSH1 0x40 MLOAD DUP1 SWAP2 SUB SWAP1 RETURN JUMPDEST PUSH2 0xA1 PUSH2 0x2A8 JUMP JUMPDEST PUSH1 0x40 MLOAD PUSH2 0xAE SWAP2 SWAP1 PUSH2 0x6F3 JUMP JUMPDEST PUSH1 0x40 MLOAD DUP1 SWAP2 SUB SWAP1 RETURN JUMPDEST PUSH2 0xBF PUSH2 0x2C4 JUMP JUMPDEST PUSH1 0x40 MLOAD PUSH2 0xCC SWAP2 SWAP1 PUSH2 0x70C JUMP JUMPDEST PUSH1 0x40 MLOAD DUP1 SWAP2 SUB SWAP1 RETURN JUMPDEST PUSH2 0xDD PUSH2 0x2D8 JUMP JUMPDEST PUSH1 0x40 MLOAD PUSH2 0xEA SWAP2 SWAP1 PUSH2 0x70C JUMP JUMPDEST PUSH1 0x40 MLOAD DUP1 SWAP2 SUB SWAP1 RETURN JUMPDEST PUSH2 0x10D PUSH1 0x4 DUP1 CALLDATASIZE SUB DUP2 ADD SWAP1 PUSH2 0x108 SWAP2 SWAP1 PUSH2 0x851 JUMP JUMPDEST PUSH2 0x2DE JUMP JUMPDEST STOP JUMPDEST PUSH2 0x129 PUSH1 0x4 DUP1 CALLDATASIZE SUB DUP2 ADD SWAP1 PUSH2 0x124 SWAP2 SWAP1 PUSH2 0x58C JUMP JUMPDEST PUSH2 0x46C JUMP JUMPDEST PUSH1 0x40 MLOAD PUSH2 0x13B SWAP7 SWAP6 SWAP5 SWAP4 SWAP3 SWAP2 SWAP1 PUSH2 0x68D JUMP JUMPDEST PUSH1 0x40 MLOAD DUP1 SWAP2 SUB SWAP1 RETURN JUMPDEST PUSH0 PUSH0 PUSH0 PUSH0 PUSH1 0x60 PUSH0 PUSH0 PUSH0 PUSH0 DUP10 DUP2 MSTORE PUSH1 0x20 ADD SWAP1 DUP2 MSTORE PUSH1 0x20 ADD PUSH0 KECCAK256 PUSH1 0x40 MLOAD DUP1 PUSH1 0xC0 ADD PUSH1 0x40 MSTORE SWAP1 DUP2 PUSH0 DUP3 ADD SLOAD DUP2 MSTORE PUSH1 0x20 ADD PUSH1 0x1 DUP3 ADD SLOAD DUP2 MSTORE PUSH1 0x20 ADD PUSH1 0x2 DUP3 ADD SLOAD DUP2 MSTORE PUSH1 0x20 ADD PUSH1 0x3 DUP3 ADD PUSH0 SWAP1 SLOAD SWAP1 PUSH2 0x100 EXP SWAP1 DIV PUSH20 0xFFFFFFFFFFFFFFFFFFFFFFFFFFFFFFFFFFFFFFFF AND PUSH20 0xFFFFFFFFFFFFFFFFFFFFFFFFFFFFFFFFFFFFFFFF AND PUSH20 0xFFFFFFFFFFFFFFFFFFFFFFFFFFFFFFFFFFFFFFFF AND DUP2 MSTORE PUSH1 0x20 ADD PUSH1 0x4 DUP3 ADD DUP1 SLOAD PUSH2 0x1E9 SWAP1 PUSH2 0x8C5 JUMP JUMPDEST DUP1 PUSH1 0x1F ADD PUSH1 0x20 DUP1 SWAP2 DIV MUL PUSH1 0x20 ADD PUSH1 0x40 MLOAD SWAP1 DUP2 ADD PUSH1 0x40 MSTORE DUP1 SWAP3 SWAP2 SWAP1 DUP2 DUP2 MSTORE PUSH1 0x20 ADD DUP3 DUP1 SLOAD PUSH2 0x215 SWAP1 PUSH2 0x8C5 JUMP JUMPDEST DUP1 ISZERO PUSH2 0x260 JUMPI DUP1 PUSH1 0x1F LT PUSH2 0x237 JUMPI PUSH2 0x100 DUP1 DUP4 SLOAD DIV MUL DUP4 MSTORE SWAP2 PUSH1 0x20 ADD SWAP2 PUSH2 0x260 JUMP JUMPDEST DUP3 ADD SWAP2 SWAP1 PUSH0 MSTORE PUSH1 0x20 PUSH0 KECCAK256 SWAP1 JUMPDEST DUP2 SLOAD DUP2 MSTORE SWAP1 PUSH1 0x1 ADD SWAP1 PUSH1 0x20 ADD DUP1 DUP4 GT PUSH2 0x243 JUMPI DUP3 SWAP1 SUB PUSH1 0x1F AND DUP3 ADD SWAP2 JUMPDEST POP POP POP POP POP DUP2 MSTORE PUSH1 0x20 ADD PUSH1 0x5 DUP3 ADD SLOAD DUP2 MSTORE POP POP SWAP1 POP DUP1 PUSH0 ADD MLOAD DUP2 PUSH1 0x20 ADD MLOAD DUP3 PUSH1 0x40 ADD MLOAD DUP4 PUSH1 0x60 ADD MLOAD DUP5 PUSH1 0x80 ADD MLOAD DUP6 PUSH1 0xA0 ADD MLOAD SWAP7 POP SWAP7 POP SWAP7 POP SWAP7 POP SWAP7 POP SWAP7 POP POP SWAP2 SWAP4 SWAP6 POP SWAP2 SWAP4 SWAP6 JUMP JUMPDEST PUSH0 PUSH0 PUSH0 PUSH1 0x1 SLOAD DUP2 MSTORE PUSH1 0x20 ADD SWAP1 DUP2 MSTORE PUSH1 0x20 ADD PUSH0 KECCAK256 PUSH1 0x2 ADD SLOAD SWAP1 POP SWAP1 JUMP JUMPDEST PUSH0 PUSH1 0x1 DUP1 SLOAD PUSH2 0x2D3 SWAP2 SWAP1 PUSH2 0x922 JUMP JUMPDEST SWAP1 POP SWAP1 JUMP JUMPDEST PUSH1 0x1 SLOAD DUP2 JUMP JUMPDEST PUSH0 PUSH1 0x1 DUP1 SLOAD PUSH2 0x2ED SWAP2 SWAP1 PUSH2 0x922 JUMP JUMPDEST SWAP1 POP PUSH0 PUSH0 PUSH0 PUSH1 0x1 SLOAD DUP2 MSTORE PUSH1 0x20 ADD SWAP1 DUP2 MSTORE PUSH1 0x20 ADD PUSH0 KECCAK256 PUSH1 0x2 ADD SLOAD SWAP1 POP PUSH0 TIMESTAMP CALLER DUP6 DUP5 PUSH1 0x40 MLOAD PUSH1 0x20 ADD PUSH2 0x320 SWAP5 SWAP4 SWAP3 SWAP2 SWAP1 PUSH2 0xA14 JUMP JUMPDEST PUSH1 0x40 MLOAD PUSH1 0x20 DUP2 DUP4 SUB SUB DUP2 MSTORE SWAP1 PUSH1 0x40 MSTORE DUP1 MLOAD SWAP1 PUSH1 0x20 ADD KECCAK256 SWAP1 POP PUSH1 0x40 MLOAD DUP1 PUSH1 0xC0 ADD PUSH1 0x40 MSTORE DUP1 DUP5 DUP2 MSTORE PUSH1 0x20 ADD DUP4 DUP2 MSTORE PUSH1 0x20 ADD DUP3 DUP2 MSTORE PUSH1 0x20 ADD CALLER PUSH20 0xFFFFFFFFFFFFFFFFFFFFFFFFFFFFFFFFFFFFFFFF AND DUP2 MSTORE PUSH1 0x20 ADD DUP6 DUP2 MSTORE PUSH1 0x20 ADD TIMESTAMP DUP2 MSTORE POP PUSH0 PUSH0 DUP6 DUP2 MSTORE PUSH1 0x20 ADD SWAP1 DUP2 MSTORE PUSH1 0x20 ADD PUSH0 KECCAK256 PUSH0 DUP3 ADD MLOAD DUP2 PUSH0 ADD SSTORE PUSH1 0x20 DUP3 ADD MLOAD DUP2 PUSH1 0x1 ADD SSTORE PUSH1 0x40 DUP3 ADD MLOAD DUP2 PUSH1 0x2 ADD SSTORE PUSH1 0x60 DUP3 ADD MLOAD DUP2 PUSH1 0x3 ADD PUSH0 PUSH2 0x100 EXP DUP2 SLOAD DUP2 PUSH20 0xFFFFFFFFFFFFFFFFFFFFFFFFFFFFFFFFFFFFFFFF MUL NOT AND SWAP1 DUP4 PUSH20 0xFFFFFFFFFFFFFFFFFFFFFFFFFFFFFFFFFFFFFFFF AND MUL OR SWAP1 SSTORE POP PUSH1 0x80 DUP3 ADD MLOAD DUP2 PUSH1 0x4 ADD SWAP1 DUP2 PUSH2 0x402 SWAP2 SWAP1 PUSH2 0xBFD JUMP JUMPDEST POP PUSH1 0xA0 DUP3 ADD MLOAD DUP2 PUSH1 0x5 ADD SSTORE SWAP1 POP POP DUP3 PUSH1 0x1 DUP2 SWAP1 SSTORE POP CALLER PUSH20 0xFFFFFFFFFFFFFFFFFFFFFFFFFFFFFFFFFFFFFFFF AND DUP4 PUSH32 0x84C1F3580AE009522C870C7EFC2C3DC362BB7C75603BA15B642A5F0F95408643 DUP4 PUSH1 0x40 MLOAD PUSH2 0x45E SWAP2 SWAP1 PUSH2 0x6F3 JUMP JUMPDEST PUSH1 0x40 MLOAD DUP1 SWAP2 SUB SWAP1 LOG3 POP POP POP POP JUMP JUMPDEST PUSH0 PUSH1 0x20 MSTORE DUP1 PUSH0 MSTORE PUSH1 0x40 PUSH0 KECCAK256 PUSH0 SWAP2 POP SWAP1 POP DUP1 PUSH0 ADD SLOAD SWAP1 DUP1 PUSH1 0x1 ADD SLOAD SWAP1 DUP1 PUSH1 0x2 ADD SLOAD SWAP1 DUP1 PUSH1 0x3 ADD PUSH0 SWAP1 SLOAD SWAP1 PUSH2 0x100 EXP SWAP1 DIV PUSH20 0xFFFFFFFFFFFFFFFFFFFFFFFFFFFFFFFFFFFFFFFF AND SWAP1 DUP1 PUSH1 0x4 ADD DUP1 SLOAD PUSH2 0x4C1 SWAP1 PUSH2 0x8C5 JUMP JUMPDEST DUP1 PUSH1 0x1F ADD PUSH1 0x20 DUP1 SWAP2 DIV MUL PUSH1 0x20 ADD PUSH1 0x40 MLOAD SWAP1 DUP2 ADD PUSH1 0x40 MSTORE DUP1 SWAP3 SWAP2 SWAP1 DUP2 DUP2 MSTORE PUSH1 0x20 ADD DUP3 DUP1 SLOAD PUSH2 0x4ED SWAP1 PUSH2 0x8C5 JUMP JUMPDEST DUP1 ISZERO PUSH2 0x538 JUMPI DUP1 PUSH1 0x1F LT PUSH2 0x50F JUMPI PUSH2 0x100 DUP1 DUP4 SLOAD DIV MUL DUP4 MSTORE SWAP2 PUSH1 0x20 ADD SWAP2 PUSH2 0x538 JUMP JUMPDEST DUP3 ADD SWAP2 SWAP1 PUSH0 MSTORE PUSH1 0x20 PUSH0 KECCAK256 SWAP1 JUMPDEST DUP2 SLOAD DUP2 MSTORE SWAP1 PUSH1 0x1 ADD SWAP1 PUSH1 0x20 ADD DUP1 DUP4 GT PUSH2 0x51B JUMPI DUP3 SWAP1 SUB PUSH1 0x1F AND DUP3 ADD SWAP2 JUMPDEST POP POP POP POP POP SWAP1 DUP1 PUSH1 0x5 ADD SLOAD SWAP1 POP DUP7 JUMP JUMPDEST PUSH0 PUSH1 0x40 MLOAD SWAP1 POP SWAP1 JUMP JUMPDEST PUSH0 PUSH0 REVERT JUMPDEST PUSH0 PUSH0 REVERT JUMPDEST PUSH0 DUP2 SWAP1 POP SWAP2 SWAP1 POP JUMP JUMPDEST PUSH2 0x56B DUP2 PUSH2 0x559 JUMP JUMPDEST DUP2 EQ PUSH2 0x575 JUMPI PUSH0 PUSH0 REVERT JUMPDEST POP JUMP JUMPDEST PUSH0 DUP2 CALLDATALOAD SWAP1 POP PUSH2 0x586 DUP2 PUSH2 0x562 JUMP JUMPDEST SWAP3 SWAP2 POP POP JUMP JUMPDEST PUSH0 PUSH1 0x20 DUP3 DUP5 SUB SLT ISZERO PUSH2 0x5A1 JUMPI PUSH2 0x5A0 PUSH2 0x551 JUMP JUMPDEST JUMPDEST PUSH0 PUSH2 0x5AE DUP5 DUP3 DUP6 ADD PUSH2 0x578 JUMP JUMPDEST SWAP2 POP POP SWAP3 SWAP2 POP POP JUMP JUMPDEST PUSH2 0x5C0 DUP2 PUSH2 0x559 JUMP JUMPDEST DUP3 MSTORE POP POP JUMP JUMPDEST PUSH0 DUP2 SWAP1 POP SWAP2 SWAP1 POP JUMP JUMPDEST PUSH2 0x5D8 DUP2 PUSH2 0x5C6 JUMP JUMPDEST DUP3 MSTORE POP POP JUMP JUMPDEST PUSH0 PUSH20 0xFFFFFFFFFFFFFFFFFFFFFFFFFFFFFFFFFFFFFFFF DUP3 AND SWAP1 POP SWAP2 SWAP1 POP JUMP JUMPDEST PUSH0 PUSH2 0x607 DUP3 PUSH2 0x5DE JUMP JUMPDEST SWAP1 POP SWAP2 SWAP1 POP JUMP JUMPDEST PUSH2 0x617 DUP2 PUSH2 0x5FD JUMP JUMPDEST DUP3 MSTORE POP POP JUMP JUMPDEST PUSH0 DUP2 MLOAD SWAP1 POP SWAP2 SWAP1 POP JUMP JUMPDEST PUSH0 DUP3 DUP3 MSTORE PUSH1 0x20 DUP3 ADD SWAP1 POP SWAP3 SWAP2 POP POP JUMP JUMPDEST DUP3 DUP2 DUP4 MCOPY PUSH0 DUP4 DUP4 ADD MSTORE POP POP POP JUMP JUMPDEST PUSH0 PUSH1 0x1F NOT PUSH1 0x1F DUP4 ADD AND SWAP1 POP SWAP2 SWAP1 POP JUMP JUMPDEST PUSH0 PUSH2 0x65F DUP3 PUSH2 0x61D JUMP JUMPDEST PUSH2 0x669 DUP2 DUP6 PUSH2 0x627 JUMP JUMPDEST SWAP4 POP PUSH2 0x679 DUP2 DUP6 PUSH1 0x20 DUP7 ADD PUSH2 0x637 JUMP JUMPDEST PUSH2 0x682 DUP2 PUSH2 0x645 JUMP JUMPDEST DUP5 ADD SWAP2 POP POP SWAP3 SWAP2 POP POP JUMP JUMPDEST PUSH0 PUSH1 0xC0 DUP3 ADD SWAP1 POP PUSH2 0x6A0 PUSH0 DUP4 ADD DUP10 PUSH2 0x5B7 JUMP JUMPDEST PUSH2 0x6AD PUSH1 0x20 DUP4 ADD DUP9 PUSH2 0x5CF JUMP JUMPDEST PUSH2 0x6BA PUSH1 0x40 DUP4 ADD DUP8 PUSH2 0x5CF JUMP JUMPDEST PUSH2 0x6C7 PUSH1 0x60 DUP4 ADD DUP7 PUSH2 0x60E JUMP JUMPDEST DUP2 DUP2 SUB PUSH1 0x80 DUP4 ADD MSTORE PUSH2 0x6D9 DUP2 DUP6 PUSH2 0x655 JUMP JUMPDEST SWAP1 POP PUSH2 0x6E8 PUSH1 0xA0 DUP4 ADD DUP5 PUSH2 0x5B7 JUMP JUMPDEST SWAP8 SWAP7 POP POP POP POP POP POP POP JUMP JUMPDEST PUSH0 PUSH1 0x20 DUP3 ADD SWAP1 POP PUSH2 0x706 PUSH0 DUP4 ADD DUP5 PUSH2 0x5CF JUMP JUMPDEST SWAP3 SWAP2 POP POP JUMP JUMPDEST PUSH0 PUSH1 0x20 DUP3 ADD SWAP1 POP PUSH2 0x71F PUSH0 DUP4 ADD DUP5 PUSH2 0x5B7 JUMP JUMPDEST SWAP3 SWAP2 POP POP JUMP JUMPDEST PUSH0 PUSH0 REVERT JUMPDEST PUSH0 PUSH0 REVERT JUMPDEST PUSH32 0x4E487B7100000000000000000000000000000000000000000000000000000000 PUSH0 MSTORE PUSH1 0x41 PUSH1 0x4 MSTORE PUSH1 0x24 PUSH0 REVERT JUMPDEST PUSH2 0x763 DUP3 PUSH2 0x645 JUMP JUMPDEST DUP2 ADD DUP2 DUP2 LT PUSH8 0xFFFFFFFFFFFFFFFF DUP3 GT OR ISZERO PUSH2 0x782 JUMPI PUSH2 0x781 PUSH2 0x72D JUMP JUMPDEST JUMPDEST DUP1 PUSH1 0x40 MSTORE POP POP POP JUMP JUMPDEST PUSH0 PUSH2 0x794 PUSH2 0x548 JUMP JUMPDEST SWAP1 POP PUSH2 0x7A0 DUP3 DUP3 PUSH2 0x75A JUMP JUMPDEST SWAP2 SWAP1 POP JUMP JUMPDEST PUSH0 PUSH8 0xFFFFFFFFFFFFFFFF DUP3 GT ISZERO PUSH2 0x7BF JUMPI PUSH2 0x7BE PUSH2 0x72D JUMP JUMPDEST JUMPDEST PUSH2 0x7C8 DUP3 PUSH2 0x645 JUMP JUMPDEST SWAP1 POP PUSH1 0x20 DUP2 ADD SWAP1 POP SWAP2 SWAP1 POP JUMP JUMPDEST DUP3 DUP2 DUP4 CALLDATACOPY PUSH0 DUP4 DUP4 ADD MSTORE POP POP POP JUMP JUMPDEST PUSH0 PUSH2 0x7F5 PUSH2 0x7F0 DUP5 PUSH2 0x7A5 JUMP JUMPDEST PUSH2 0x78B JUMP JUMPDEST SWAP1 POP DUP3 DUP2 MSTORE PUSH1 0x20 DUP2 ADD DUP5 DUP5 DUP5 ADD GT ISZERO PUSH2 0x811 JUMPI PUSH2 0x810 PUSH2 0x729 JUMP JUMPDEST JUMPDEST PUSH2 0x81C DUP5 DUP3 DUP6 PUSH2 0x7D5 JUMP JUMPDEST POP SWAP4 SWAP3 POP POP POP JUMP JUMPDEST PUSH0 DUP3 PUSH1 0x1F DUP4 ADD SLT PUSH2 0x838 JUMPI PUSH2 0x837 PUSH2 0x725 JUMP JUMPDEST JUMPDEST DUP2 CALLDATALOAD PUSH2 0x848 DUP5 DUP3 PUSH1 0x20 DUP7 ADD PUSH2 0x7E3 JUMP JUMPDEST SWAP2 POP POP SWAP3 SWAP2 POP POP JUMP JUMPDEST PUSH0 PUSH1 0x20 DUP3 DUP5 SUB SLT ISZERO PUSH2 0x866 JUMPI PUSH2 0x865 PUSH2 0x551 JUMP JUMPDEST JUMPDEST PUSH0 DUP3 ADD CALLDATALOAD PUSH8 0xFFFFFFFFFFFFFFFF DUP2 GT ISZERO PUSH2 0x883 JUMPI PUSH2 0x882 PUSH2 0x555 JUMP JUMPDEST JUMPDEST PUSH2 0x88F DUP5 DUP3 DUP6 ADD PUSH2 0x824 JUMP JUMPDEST SWAP2 POP POP SWAP3 SWAP2 POP POP JUMP JUMPDEST PUSH32 0x4E487B7100000000000000000000000000000000000000000000000000000000 PUSH0 MSTORE PUSH1 0x22 PUSH1 0x4 MSTORE PUSH1 0x24 PUSH0 REVERT JUMPDEST PUSH0 PUSH1 0x2 DUP3 DIV SWAP1 POP PUSH1 0x1 DUP3 AND DUP1 PUSH2 0x8DC JUMPI PUSH1 0x7F DUP3 AND SWAP2 POP JUMPDEST PUSH1 0x20 DUP3 LT DUP2 SUB PUSH2 0x8EF JUMPI PUSH2 0x8EE PUSH2 0x898 JUMP JUMPDEST JUMPDEST POP SWAP2 SWAP1 POP JUMP JUMPDEST PUSH32 0x4E487B7100000000000000000000000000000000000000000000000000000000 PUSH0 MSTORE PUSH1 0x11 PUSH1 0x4 MSTORE PUSH1 0x24 PUSH0 REVERT JUMPDEST PUSH0 PUSH2 0x92C DUP3 PUSH2 0x559 JUMP JUMPDEST SWAP2 POP PUSH2 0x937 DUP4 PUSH2 0x559 JUMP JUMPDEST SWAP3 POP DUP3 DUP3 ADD SWAP1 POP DUP1 DUP3 GT ISZERO PUSH2 0x94F JUMPI PUSH2 0x94E PUSH2 0x8F5 JUMP JUMPDEST JUMPDEST SWAP3 SWAP2 POP POP JUMP JUMPDEST PUSH0 DUP2 SWAP1 POP SWAP2 SWAP1 POP JUMP JUMPDEST PUSH2 0x96F PUSH2 0x96A DUP3 PUSH2 0x559 JUMP JUMPDEST PUSH2 0x955 JUMP JUMPDEST DUP3 MSTORE POP POP JUMP JUMPDEST PUSH0 DUP2 PUSH1 0x60 SHL SWAP1 POP SWAP2 SWAP1 POP JUMP JUMPDEST PUSH0 PUSH2 0x98B DUP3 PUSH2 0x975 JUMP JUMPDEST SWAP1 POP SWAP2 SWAP1 POP JUMP JUMPDEST PUSH0 PUSH2 0x99C DUP3 PUSH2 0x981 JUMP JUMPDEST SWAP1 POP SWAP2 SWAP1 POP JUMP JUMPDEST PUSH2 0x9B4 PUSH2 0x9AF DUP3 PUSH2 0x5FD JUMP JUMPDEST PUSH2 0x992 JUMP JUMPDEST DUP3 MSTORE POP POP JUMP JUMPDEST PUSH0 DUP2 SWAP1 POP SWAP3 SWAP2 POP POP JUMP JUMPDEST PUSH0 PUSH2 0x9CE DUP3 PUSH2 0x61D JUMP JUMPDEST PUSH2 0x9D8 DUP2 DUP6 PUSH2 0x9BA JUMP JUMPDEST SWAP4 POP PUSH2 0x9E8 DUP2 DUP6 PUSH1 0x20 DUP7 ADD PUSH2 0x637 JUMP JUMPDEST DUP1 DUP5 ADD SWAP2 POP POP SWAP3 SWAP2 POP POP JUMP JUMPDEST PUSH0 DUP2 SWAP1 POP SWAP2 SWAP1 POP JUMP JUMPDEST PUSH2 0xA0E PUSH2 0xA09 DUP3 PUSH2 0x5C6 JUMP JUMPDEST PUSH2 0x9F4 JUMP JUMPDEST DUP3 MSTORE POP POP JUMP JUMPDEST PUSH0 PUSH2 0xA1F DUP3 DUP8 PUSH2 0x95E JUMP JUMPDEST PUSH1 0x20 DUP3 ADD SWAP2 POP PUSH2 0xA2F DUP3 DUP7 PUSH2 0x9A3 JUMP JUMPDEST PUSH1 0x14 DUP3 ADD SWAP2 POP PUSH2 0xA3F DUP3 DUP6 PUSH2 0x9C4 JUMP JUMPDEST SWAP2 POP PUSH2 0xA4B DUP3 DUP5 PUSH2 0x9FD JUMP JUMPDEST PUSH1 0x20 DUP3 ADD SWAP2 POP DUP2 SWAP1 POP SWAP6 SWAP5 POP POP POP POP POP JUMP JUMPDEST PUSH0 DUP2 SWAP1 POP DUP2 PUSH0 MSTORE PUSH1 0x20 PUSH0 KECCAK256 SWAP1 POP SWAP2 SWAP1 POP JUMP JUMPDEST PUSH0 PUSH1 0x20 PUSH1 0x1F DUP4 ADD DIV SWAP1 POP SWAP2 SWAP1 POP JUMP JUMPDEST PUSH0 DUP3 DUP3 SHL SWAP1 POP SWAP3 SWAP2 POP POP JUMP JUMPDEST PUSH0 PUSH1 0x8 DUP4 MUL PUSH2 0xAB9 PUSH32 0xFFFFFFFFFFFFFFFFFFFFFFFFFFFFFFFFFFFFFFFFFFFFFFFFFFFFFFFFFFFFFFFF DUP3 PUSH2 0xA7E JUMP JUMPDEST PUSH2 0xAC3 DUP7 DUP4 PUSH2 0xA7E JUMP JUMPDEST SWAP6 POP DUP1 NOT DUP5 AND SWAP4 POP DUP1 DUP7 AND DUP5 OR SWAP3 POP POP POP SWAP4 SWAP3 POP POP POP JUMP JUMPDEST PUSH0 DUP2 SWAP1 POP SWAP2 SWAP1 POP JUMP JUMPDEST PUSH0 PUSH2 0xAFE PUSH2 0xAF9 PUSH2 0xAF4 DUP5 PUSH2 0x559 JUMP JUMPDEST PUSH2 0xADB JUMP JUMPDEST PUSH2 0x559 JUMP JUMPDEST SWAP1 POP SWAP2 SWAP1 POP JUMP JUMPDEST PUSH0 DUP2 SWAP1 POP SWAP2 SWAP1 POP JUMP JUMPDEST PUSH2 0xB17 DUP4 PUSH2 0xAE4 JUMP JUMPDEST PUSH2 0xB2B PUSH2 0xB23 DUP3 PUSH2 0xB05 JUMP JUMPDEST DUP5 DUP5 SLOAD PUSH2 0xA8A JUMP JUMPDEST DUP3 SSTORE POP POP POP POP JUMP JUMPDEST PUSH0 PUSH0 SWAP1 POP SWAP1 JUMP JUMPDEST PUSH2 0xB42 PUSH2 0xB33 JUMP JUMPDEST PUSH2 0xB4D DUP2 DUP5 DUP5 PUSH2 0xB0E JUMP JUMPDEST POP POP POP JUMP JUMPDEST JUMPDEST DUP2 DUP2 LT ISZERO PUSH2 0xB70 JUMPI PUSH2 0xB65 PUSH0 DUP3 PUSH2 0xB3A JUMP JUMPDEST PUSH1 0x1 DUP2 ADD SWAP1 POP PUSH2 0xB53 JUMP JUMPDEST POP POP JUMP JUMPDEST PUSH1 0x1F DUP3 GT ISZERO PUSH2 0xBB5 JUMPI PUSH2 0xB86 DUP2 PUSH2 0xA5D JUMP JUMPDEST PUSH2 0xB8F DUP5 PUSH2 0xA6F JUMP JUMPDEST DUP2 ADD PUSH1 0x20 DUP6 LT ISZERO PUSH2 0xB9E JUMPI DUP2 SWAP1 POP JUMPDEST PUSH2 0xBB2 PUSH2 0xBAA DUP6 PUSH2 0xA6F JUMP JUMPDEST DUP4 ADD DUP3 PUSH2 0xB52 JUMP JUMPDEST POP POP JUMPDEST POP POP POP JUMP JUMPDEST PUSH0 DUP3 DUP3 SHR SWAP1 POP SWAP3 SWAP2 POP POP JUMP JUMPDEST PUSH0 PUSH2 0xBD5 PUSH0 NOT DUP5 PUSH1 0x8 MUL PUSH2 0xBBA JUMP JUMPDEST NOT DUP1 DUP4 AND SWAP2 POP POP SWAP3 SWAP2 POP POP JUMP JUMPDEST PUSH0 PUSH2 0xBED DUP4 DUP4 PUSH2 0xBC6 JUMP JUMPDEST SWAP2 POP DUP3 PUSH1 0x2 MUL DUP3 OR SWAP1 POP SWAP3 SWAP2 POP POP JUMP JUMPDEST PUSH2 0xC06 DUP3 PUSH2 0x61D JUMP JUMPDEST PUSH8 0xFFFFFFFFFFFFFFFF DUP2 GT ISZERO PUSH2 0xC1F JUMPI PUSH2 0xC1E PUSH2 0x72D JUMP JUMPDEST JUMPDEST PUSH2 0xC29 DUP3 SLOAD PUSH2 0x8C5 JUMP JUMPDEST PUSH2 0xC34 DUP3 DUP3 DUP6 PUSH2 0xB74 JUMP JUMPDEST PUSH0 PUSH1 0x20 SWAP1 POP PUSH1 0x1F DUP4 GT PUSH1 0x1 DUP2 EQ PUSH2 0xC65 JUMPI PUSH0 DUP5 ISZERO PUSH2 0xC53 JUMPI DUP3 DUP8 ADD MLOAD SWAP1 POP JUMPDEST PUSH2 0xC5D DUP6 DUP3 PUSH2 0xBE2 JUMP JUMPDEST DUP7 SSTORE POP PUSH2 0xCC4 JUMP JUMPDEST PUSH1 0x1F NOT DUP5 AND PUSH2 0xC73 DUP7 PUSH2 0xA5D JUMP JUMPDEST PUSH0 JUMPDEST DUP3 DUP2 LT ISZERO PUSH2 0xC9A JUMPI DUP5 DUP10 ADD MLOAD DUP3 SSTORE PUSH1 0x1 DUP3 ADD SWAP2 POP PUSH1 0x20 DUP6 ADD SWAP5 POP PUSH1 0x20 DUP2 ADD SWAP1 POP PUSH2 0xC75 JUMP JUMPDEST DUP7 DUP4 LT ISZERO PUSH2 0xCB7 JUMPI DUP5 DUP10 ADD MLOAD PUSH2 0xCB3 PUSH1 0x1F DUP10 AND DUP3 PUSH2 0xBC6 JUMP JUMPDEST DUP4 SSTORE POP JUMPDEST PUSH1 0x1 PUSH1 0x2 DUP9 MUL ADD DUP9 SSTORE POP POP POP JUMPDEST POP POP POP POP POP POP JUMP INVALID LOG2 PUSH5 0x6970667358 0x22 SLT KECCAK256 0xF 0xD3 DUP2 CODESIZE CALLDATALOAD 0x2C EOFCREATE 0x58 CALLVALUE LT 0x2C 0xE9 EOFCREATE 0x4 AND RETF COINBASE NOT SWAP1 0xD8 LOG3 STOP 0x4C 0xC4 0x1F PUSH10 0x1563F897D38564736F6C PUSH4 0x4300081E STOP CALLER "
				},
				"gasEstimates": {
					"creation": {
						"codeDepositCost": "666000",
						"executionCost": "infinite",
						"totalCost": "infinite"
					},
					"external": {
						"addBlock(string)": "infinite",
						"blocks(uint256)": "infinite",
						"getBlock(uint256)": "infinite",
						"getChainLength()": "infinite",
						"getLatestBlockHash()": "4613",
						"latestBlockId()": "2469"
					}
				},
				"methodIdentifiers": {
					"addBlock(string)": "dc6548b0",
					"blocks(uint256)": "f25b3f99",
					"getBlock(uint256)": "04c07569",
					"getChainLength()": "8f2bab07",
					"getLatestBlockHash()": "42bcad28",
					"latestBlockId()": "a4388d22"
				}
			},
			"storageLayout": {
				"storage": [
					{
						"astId": 19,
						"contract": "contracts/PixelcoinMergeChain.sol:PixelcoinMergeChain",
						"label": "blocks",
						"offset": 0,
						"slot": "0",
						"type": "t_mapping(t_uint256,t_struct(Block)14_storage)"
					},
					{
						"astId": 21,
						"contract": "contracts/PixelcoinMergeChain.sol:PixelcoinMergeChain",
						"label": "latestBlockId",
						"offset": 0,
						"slot": "1",
						"type": "t_uint256"
					}
				],
				"types": {
					"t_address": {
						"encoding": "inplace",
						"label": "address",
						"numberOfBytes": "20"
					},
					"t_bytes32": {
						"encoding": "inplace",
						"label": "bytes32",
						"numberOfBytes": "32"
					},
					"t_mapping(t_uint256,t_struct(Block)14_storage)": {
						"encoding": "mapping",
						"key": "t_uint256",
						"label": "mapping(uint256 => struct PixelcoinMergeChain.Block)",
						"numberOfBytes": "32",
						"value": "t_struct(Block)14_storage"
					},
					"t_string_storage": {
						"encoding": "bytes",
						"label": "string",
						"numberOfBytes": "32"
					},
					"t_struct(Block)14_storage": {
						"encoding": "inplace",
						"label": "struct PixelcoinMergeChain.Block",
						"members": [
							{
								"astId": 3,
								"contract": "contracts/PixelcoinMergeChain.sol:PixelcoinMergeChain",
								"label": "id",
								"offset": 0,
								"slot": "0",
								"type": "t_uint256"
							},
							{
								"astId": 5,
								"contract": "contracts/PixelcoinMergeChain.sol:PixelcoinMergeChain",
								"label": "prevHash",
								"offset": 0,
								"slot": "1",
								"type": "t_bytes32"
							},
							{
								"astId": 7,
								"contract": "contracts/PixelcoinMergeChain.sol:PixelcoinMergeChain",
								"label": "blockHash",
								"offset": 0,
								"slot": "2",
								"type": "t_bytes32"
							},
							{
								"astId": 9,
								"contract": "contracts/PixelcoinMergeChain.sol:PixelcoinMergeChain",
								"label": "miner",
								"offset": 0,
								"slot": "3",
								"type": "t_address"
							},
							{
								"astId": 11,
								"contract": "contracts/PixelcoinMergeChain.sol:PixelcoinMergeChain",
								"label": "data",
								"offset": 0,
								"slot": "4",
								"type": "t_string_storage"
							},
							{
								"astId": 13,
								"contract": "contracts/PixelcoinMergeChain.sol:PixelcoinMergeChain",
								"label": "timestamp",
								"offset": 0,
								"slot": "5",
								"type": "t_uint256"
							}
						],
						"numberOfBytes": "192"
					},
					"t_uint256": {
						"encoding": "inplace",
						"label": "uint256",
						"numberOfBytes": "32"
					}
				}
			},
			"userdoc": {
				"kind": "user",
				"methods": {},
				"version": 1
			}
		}
	}
}